:020000041000EA
:10000000002000080B0100100D0000006D01001021
:1000100000000000000000000000000000000000E0
:100020000000000000000000000000006901001056
:1000300000000000000000006901001069010010CC
:1000400069010010690100106901001069010010C8
:1000500069010010690100106901001069010010B8
:1000600069010010690100106901001069010010A8
:100070006901001069010010690100106901001098
:100080006901001069010010690100106901001088
:100090006901001069010010690100106901001078
:1000A0006901001069010010690100106901001068
:1000B0006901001069010010690100106901001058
:1000C00010B5064C2378002B07D1054B002B02D02E
:1000D000044800E000BF0123237010BD8C05000818
:1000E000000000000C150010044B10B5002B03D0CD
:1000F0000349044800E000BF10BDC04600000000F6
:10010000900500080C1500107047FFF7FDFF72B650
:100110000F4C104DAC4209DA21686268A368043BB9
:1001200002DBC858D050FAE70C34F3E70A490B4A0F
:100130000020521A02DD043A8850FCDC08480949C4
:100140000860BFF34F8F00F0F1F800F099F9FEE777
:1001500010150010281500108C05000880070008F5
:100160000000000808ED00E0FEE7FEE700B504200F
:100170007146084202D0EFF3098001E0EFF30880F6
:10018000043000F0DBFDFEE710B5002000F042FC7B
:1001900010BD7047F8B5E023524C9B00E2580F2386
:1001A000D0211A40930089001B1958580721084094
:1001B000032860D0042861D0414248414A49404266
:1001C00008404A494018002A67D1B223B1220321CE
:1001D000DB00D200E558A358A6581B0F360F0B4082
:1001E0000E4204D0A258120F0A40012A01D1EA0798
:1001F00001D4032B11D1B0233D4ADB00E658A158AE
:10020000E558C904C90C00F051FFB3039B0B5843D8
:10021000E901C90F013100F049FFE0239B00E358D9
:100220009B069B0FD840334B1860334B1C691969F0
:10023000240A090E013100F039FF304BE1B2186099
:10024000013100F033FF2E4B040018602D4B2E4976
:1002500018602E4BC01800F029FFFA212C4B8900A2
:1002600018702C4BE01800F021FF2B4B18602B4B23
:10027000C0031860F8BD2A490868A4E7C0211F2000
:10028000890059580140112901D0132902D1802039
:10029000000298E7FA20C00195E7013A012ABCD88C
:1002A0000327204A9E58204A99589D58090F2D0F20
:1002B00039403D4204D09D582D0F3D40012D01D1C4
:1002C000F50701D40329A8D19E5899589D587F233A
:1002D00033401F26090A3140584300F0E7FE290C3D
:1002E000314098E70000264000DC0BFF00366E012D
:1002F00084050000C800000800002140CC00000870
:10030000C0000008D400000840420F003F420F0028
:10031000DC000008E7030000D8000008D000000857
:10032000C40000083C060000FC05000010B524488D
:1003300000F0C2F8B022E0213020224CD200A358B5
:1003400089005B005B08A35063588343635080239C
:100350005B04A3501C4B1D4AE250A02204339201BF
:10036000E250FF221A4BE25000F08EFEC022012123
:100370005200A3588B43A350FFF70BFFFFF70AFF70
:10038000B0235B055A78002A02D05B78212B03D179
:100390000022104BDA605A600F4A8021032000F0DF
:1003A000A1FB0E4800F09CF90D4B1B6851331B78E4
:1003B000002B02D00B4800F001FA00F035F910BD17
:1003C0005C120010000026408405000001000200BD
:1003D0008C050000E000234030050008A805000857
:1003E0007C07000828120010024BD86F0323184026
:1003F0007047C0460400214010B500F056F8074988
:10040000074ACB6F1A40074B1343CB6710230649AB
:100410000A681A42FCD000F04CF810BD04002140DC
:10042000FCFF00000100FA058800214070B50F4C68
:10043000060000F03AF8E36F0500DB439B0701D1AB
:10044000FFF7DAFFB0230A4A9B00D650E36F094A50
:1004500009491A40094B1343E36710230A681A42FB
:10046000FCD0280000F025F870BDC04604002140F3
:1004700000002140FCFF0000880021400300FA0535
:1004800010B562B60348FFF7D1FF002000F066FD0B
:10049000FBE7C046002000100230800803D0013086
:1004A0000238FCD1C046C0467047EFF3108072B6E8
:1004B000704780F310887047014B18607047C04642
:1004C0007C0700081D4B98420FD010D840282FD031
:1004D00005D8002830D0102828D019481EE08028E0
:1004E00028D080235B009842F7D1144816E0154BC2
:1004F000984214D008D8A0231B0698421CD0124B57
:100500009842EAD1A0200BE0104B98420AD0104B41
:10051000984209D00F4B9842DFD10F487047A42072
:10052000C003FBE70D48F9E70D48F7E70D48F5E78D
:100530000D48F3E70D48F1E70020EFE70600520011
:10054000FF005200010000F0090000A0040000F0CC
:10055000050000F0030000F001005200020052000C
:10056000030052000100500002005000050052003C
:1005700070B50A4D04002B6831331B78834204D8D0
:10058000E9210748490000F0C9FB2B681A00B03286
:1005900010884443186A201870BDC0467C070008C4
:1005A0001413001010B50020FFF7E2FF0A4B1C687F
:1005B0002300B4331B68C0180368002B0ADB074B09
:1005C0001868FFF77FFF012263689A609A68002A23
:1005D000FCD110BD0248FCE77C0700082807000892
:1005E000020050000D4B10B51860002804D0FE2307
:1005F0005B42038000234380094B1B681A00503282
:100600001278002A08D051331B78002B04D0022224
:100610000449002000F070F910BDC04638070008FA
:100620007C0700084D01000810B50248FFF7DAFF0B
:1006300010BDC046400500080B4B70B51B68050097
:10064000B4331B680C00C3181B68002B0ADA0B0CB0
:1006500004D0B9210548890000F060FB0020A4B255
:100660006C6070BD0248FCE77C07000814130010A2
:1006700001008A00036870B505000C00002B0ADA3F
:10068000C2600B0C03D00549054800F047FB002071
:10069000A4B2AC6070BD0348FCE7C046CA020000CB
:1006A0001413001001008A0070B505000C1E03D160
:1006B000A321084800F032FB074B1B68B4331B68CA
:1006C000EB181B68002B03DA0020EB68236070BD79
:1006D0000248FCE77A1300107C07000801008A003A
:1006E000024B1A68002A00D1186070473C070008C6
:1006F000F7B52C4D1F002B68040000910192002BD0
:1007000003D1BF21284800F009FB2C23FF225C43C2
:100710002B683D001C193B0A3F0CA760234F134078
:1007200063603B681540256031331B789D4204D3DC
:10073000E9211F48490000F0F1FA3B681A00B03285
:10074000128855431A6A3233AD1825611B786568E3
:100750009D4204D3F7211648490000F0DFFA3B68B8
:1007600080351B6A6D01A668ED186561330C08D0F1
:100770000F4F1049380000F0D1FA0F49380000F04F
:10078000CDFA33041A0C1343AB60019BE361009B69
:1007900023620023A361089B002B01D01B88A38147
:1007A000F7BDC0463C070008DF1300107C070008B7
:1007B000141300100D0200000E020000F0B504003A
:1007C00085B0002803D15C21214800F0A7FA6368B6
:1007D000032B03D95E211E4800F0A0FAE36A002B28
:1007E00003D162211A4800F099FA236B002B03D140
:1007F0006321174800F092FAA36802AD2B80154BD5
:1008000022681B68E16ADB8EE0689B186B80636876
:10081000A26A039300952369266A676AFFF768FF57
:1008200000213B000A0000913000FFF761FF216BBF
:10083000280000F01FFA0022AB5E002B06DB1F220F
:1008400013401E3A9A401300034A136005B0F0BDEE
:10085000DF1300107C07000800E100E0F7B504009A
:100860000F00151E019304D108211D48FF3100F02F
:1008700055FA1C4E3368002B04D1842118484900D6
:1008800000F04CFA2C235C4332685F43141926694C
:10089000D719002E1FD0BB69002B1ED13368002B47
:1008A0001BDA01226368140011009C407B689940A8
:1008B0002B6809049BB20B432B60019BF5607B62A4
:1008C000BA61230C03D00849084800F027FA002039
:1008D000A4B2B460FEBD0648FCE70648FAE7C0468D
:1008E000DF1300103C070008CA02000014130010B8
:1008F00004028A0007028A00F8B5114F04003B6821
:100900000E001500002B04D1B4210E48490000F060
:1009100005FA2C2060433C682418236A002B04D17C
:10092000B6210848490000F0F9F9E369AB4204D95F
:100930000020236AAD00EE50F8BD0348FCE7C04636
:100940003C070008DF1300100A028A00002373B579
:1009500004000193984204D1DC212C48FF3100F0BF
:10096000DDF92369002B04D1EE212848490000F06D
:10097000D5F96369002B04D1DE212448FF3100F052
:10098000CDF9236A002B04D1EF212048490000F063
:10099000C5F96269D5682B0C22D01B04136013685B
:1009A0001B4B20691B68B4331B68C3181B68002BE2
:1009B00016DA01A9FFF778FE0026B0420CD10198A3
:1009C000E26903681E0CDBB29A4205D9226A9B00D9
:1009D0009B58002B00D0984731002069FFF72CFE70
:1009E000ADB2002D09D063691D6000251B68636AE4
:1009F000AB4205D098476562A56163691B6873BD0A
:100A0000A36A002BF8D09847F6E7C046DF13001022
:100A10007C07000870B5084C05002368002B04D142
:100A2000BC210648FF3100F079F92C2045432068AD
:100A30004019FFF78BFF70BD3C070008DF13001063
:100A400070B50A4D04002B6831331B78834204D8FB
:100A5000E9210748490000F061F92B681A00B0321B
:100A600010884443186A201870BDC0467C070008EF
:100A700014130010F8B5174B0D001B6831331B78A9
:100A8000834225D9002923D01F240B681C401FD185
:100A9000FFF7D6FF07002B680F4EDA082100306001
:100AA000686800F08FFB21003800FFF7C5FD2100CA
:100AB0002A003068FFF7DEFD041E07D10100306810
:100AC000FFF7BAFD03002000002B00D00348F8BD5B
:100AD0000348FCE77C0700084007000801018A0082
:100AE00003018A0010B50C00002A07D100290DD19E
:100AF000FFF7A6FF064B1860200010BD002905D0A7
:100B000004490C604A60FFF7B5FFF6E70248F4E7D6
:100B1000400700084405000803018A00F7B5184F94
:100B200004003B680191DE683368834226D90025C2
:100B3000A94202D1FFF7B9FC050038680368002B11
:100B40001ADA1F2201232240934064097268A4002C
:100B50001419226813420DD09A4322600024002108
:100B6000FFF76AFD019B002B02D12800FFF7A1FCD3
:100B70002000FEBD034CF2E7034CF3E7034CF7E71C
:100B800040070008020188000301880004018A0070
:100B90000A4B1B68DB681A6882420DD959681F230B
:100BA000420918401E3B8340920050581840431E93
:100BB0009841034BC01870470248FCE74007000803
:100BC0000001880004018A0070B5194E05003368E1
:100BD0000C001A0028321278012A15D18208072148
:100BE000100088430FD103202840C00084401B68B8
:100BF000920020339B182200FF24844019684A4049
:100C000014404C401C6070BD5B8F8B4203D180212F
:100C1000084800F083F8336807201A6880232840CA
:100C20001B06184380239B01E418A400A050EAE7A8
:100C30007C070008451400100A4B70B59B680A4EEB
:100C400010300D008400B34209D1002904D14221A3
:100C50000648FF3100F062F83059355170BD044B41
:100C60001859FBE700ED00E00000000845140010F3
:100C700000000010F8B506000D00002841D04368C0
:100C8000032B03D93C21204800F048F80023F05EF4
:100C9000002828DB7188FFF797FF0024FF22032735
:100CA00094460023F05E716883B21F40FF006646E1
:100CB000BA4089013140D243B940002815DB134EB8
:100CC00083089B009B19C026B6009F593A401143E8
:100CD00099510F4B9A680F4B9A4202D12900FFF7A6
:100CE000ABFF2000F8BD0C4CD8E70F263340083B83
:100CF000074E9B089B009B19DE6932401143D96166
:100D0000E7E7054CEDE7C0464514001000E100E0C0
:100D100000ED00E0000000080100560070B50D0075
:100D2000044C01001822200000F054FAA56101BE15
:100D3000FEE7C04650050008FEE7000002680A4BC7
:100D400010B5DA6142681A6282685A62C2689A62B1
:100D50000269DA6242691A6382695A63C2699A63F4
:100D6000FFF7EAFF10BDC04650050008B0235B0541
:100D70005A782120002A01D05878C0B27047B02399
:100D80005B059A89002A02D0988980B2704780203A
:100D90004000FBE710B5074C236831331B78002B6C
:100DA00004D1E92104484900FFF7B8FF2368186A15
:100DB00010BDC0467C0700081413001030B50400B5
:100DC00085B00D00042803D927492848FFF7A6FF5E
:100DD0006B1E012B07D9FB222B1F134203D0244982
:100DE0002248FFF79BFF234BA400E458042D01D0B9
:100DF000012D1AD100200FE0A3682B420BD1E3682C
:100E000029001A685B6802920193039302A8236881
:100E10009847194B1C606469002C04D0174B98420A
:100E2000EAD1012DE8D105B030BD022D06D1124B1B
:100E30001B68181EF7D01C6903E01C006369002BB7
:100E4000FBD10020002CEED0A3682B4209D1E3682F
:100E500029001A685B6802920193039302A8236831
:100E600098472469EEE7C046E6090000A91400107F
:100E7000E70900006807000864070008FF00420057
:100E800010B5041E03D111491148FFF747FFF222A4
:100E9000104BD2011B68DB689A582260F022D20105
:100EA0009A5862600C4A9A58A2600C4A9A58E260BA
:100EB0000B4A9A5822610B4A9A5862610A4A9A5818
:100EC000A2610A4A9B58E36110BDC046D50A0000E2
:100ED000A91400107C0700080478000008780000BE
:100EE0000C780000107800001478000018780000DA
:100EF00010B5041E03D110491048FFF70FFFF02270
:100F00000F4B61681B68D201DB689950A1680D4ADC
:100F10009950E1680C4A995021690C4A99506169CD
:100F20000B4A9950A1690B4A9950E1690A4A9950B4
:100F30002168E832995010BDFD0A0000A914001084
:100F40007C07000804780000087800000C78000096
:100F5000107800001478000018780000F7B507003A
:100F6000012803D940494148FFF7D8FE404D6B683E
:100F7000002B4AD1FFF799FA6B680190002B56D1EC
:100F80003C4E33681A0043321278002A07D09B681F
:100F9000E0331B68DB0602D53748FFF771FFFFF728
:100FA000EEFE80235B00984246D1380000F034F911
:100FB000002433681A0043321278002A17D0002820
:100FC00015D09B68E0331B68DB0610D5FFF7CEFE1B
:100FD000294B212808D032681300B0331988072321
:100FE0004B43126A9B18DB681800FFF781FF0198DA
:100FF000FFF75FFA002C0ED16B68002B03D008219D
:101000000120FFF7DBFE2000FEBD01210800FFF7F5
:10101000D5FE041EAED06B68002B03D00221012048
:10102000FFF7CCFE154B9C42EDD0154CEBE70421AD
:101030000120FFF7C3FEA3E7FFF7ACFE3368B4332C
:101040001B68C0180368002B0BDB04230D4A1169D1
:101050000B431361012F02D030BF0020A8E720BF4F
:10106000FBE70020054CA4E7AF020000A914001024
:10107000680700087C0700084407000805004200D4
:10108000FF00420000ED00E0C0228020064952002F
:101090008B58C0059B009B0803438B5080238858C6
:1010A0001B0603438B507047000026400022430874
:1010B0008B4274D303098B425FD3030A8B4244D320
:1010C000030B8B4228D3030C8B420DD3FF22090262
:1010D00012BA030C8B4202D31212090265D0030B21
:1010E0008B4219D300E0090AC30B8B4201D3CB0317
:1010F000C01A5241830B8B4201D38B03C01A524159
:10110000430B8B4201D34B03C01A5241030B8B425A
:1011100001D30B03C01A5241C30A8B4201D3CB0245
:10112000C01A5241830A8B4201D38B02C01A52412A
:10113000430A8B4201D34B02C01A5241030A8B422D
:1011400001D30B02C01A5241CDD2C3098B4201D345
:10115000CB01C01A524183098B4201D38B01C01AC3
:10116000524143098B4201D34B01C01A524103093A
:101170008B4201D30B01C01A5241C3088B4201D3E9
:10118000CB00C01A524183088B4201D38B00C01A96
:10119000524143088B4201D34B00C01A5241411ABD
:1011A00000D20146524110467047FFE701B50020CA
:1011B00000F006F802BDC0460029F7D076E7704778
:1011C0007047C04603001218934200D1704719704F
:1011D0000133F9E730B50500002A00D130BD0C78A5
:1011E000013A6B1C2C700131002C05D19A189A42DF
:1011F000F4D01C700133FAE71D00EDE7F8B5C046E6
:10120000F8BC08BC9E467047F8B5C046F8BC08BCA0
:101210009E4670470000000001B40248844601BCAD
:10122000604700BFA90200080300000001000000A1
:101230000100000000000000050360000400000041
:101240000100000000000000010000000604600032
:101250000800000008070008890100100000214074
:101260000000254000000140000034400000244000
:10127000000031400000324000001F4100002340C8
:1012800000001140010101010101010101101010D4
:10129000800019005500F0000501053B04101C01F9
:1012A000010000000FC00000000400000101010166
:1012B000011D3A577896000820001012080000001F
:1012C000001F00000010000F002000023F06080E63
:1012D00000080009000A000B24282C30340000000C
:1012E00010000000900000008800000008000000CE
:1012F0008000000004F0000000F000004002000048
:101300002005A000D00100018001A0012000000004
:1013100010000000433A2F55736572732F6F687584
:10132000642F4D6F647573546F6F6C626F785F32AA
:101330002E302F6C69627261726965732F70736FE2
:10134000633673772D312E322F636F6D706F6E653C
:101350006E74732F70736F633670646C2F64726970
:10136000766572732F696E636C7564652F63795F40
:101370006970635F6472762E6800433A2F55736517
:1013800072732F6F6875642F4D6F647573546F6F30
:101390006C626F785F322E302F6C69627261726995
:1013A00065732F70736F633673772D312E322F6311
:1013B0006F6D706F6E656E74732F70736F633670C0
:1013C000646C2F647269766572732F736F757263C4
:1013D000652F63795F6970635F6472762E63004383
:1013E0003A2F55736572732F6F6875642F4D6F6454
:1013F0007573546F6F6C626F785F322E302F6C692B
:10140000627261726965732F70736F633673772DC3
:10141000312E322F636F6D706F6E656E74732F7027
:10142000736F633670646C2F647269766572732FA4
:10143000736F757263652F63795F6970635F70693D
:1014400070652E6300433A2F55736572732F6F6872
:1014500075642F4D6F647573546F6F6C626F785F36
:10146000322E302F6C69627261726965732F7073EE
:101470006F633673772D312E322F636F6D706F6E01
:10148000656E74732F70736F633670646C2F647243
:1014900069766572732F736F757263652F63795FF9
:1014A000737973696E742E6300433A2F55736572B6
:1014B000732F6F6875642F4D6F647573546F6F6C05
:1014C000626F785F322E302F6C696272617269656B
:1014D000732F70736F633673772D312E322F636FD6
:1014E0006D706F6E656E74732F70736F633670649A
:1014F0006C2F647269766572732F736F7572636592
:101500002F63795F737973706D2E630000000000A4
:101510000000001000000008C0000000301500109E
:10152000C0000008700400008C050008F4010000F1
:1015300000093D000048E80100127A0000093D0062
:101540000000D00700093D00A00F000004000000CB
:10155000E9000010C100001080B230B5C00020D0FA
:10156000104B07221C682300B0331B885A43236AA0
:10157000D31819680029FCDA3E210B4B06251960A7
:101580000A4B0B491960A3210A4BC9005D500A4957
:1015900058505858206A1218002050605A58002A93
:1015A000FCDA30BD7C070008040126400801264013
:1015B0001E1F0000000026401C05000010B54378E7
:1015C000FF2B11D100F0B4F90400032000F0A8F9BA
:1015D000C3685A68012311681943116011681942E0
:1015E000FCD1200000F0BCF910BDF7B50090002040
:1015F000019100F095F93F4D06002B681A00503319
:10160000B43214681B780419002B5AD000F078F912
:10161000070003281BD000F08BF9374A374B050031
:10162000D358002B3EDA364A0121300000F0A8F9E9
:10163000002837D10198FFF78FFF009B002B3ED089
:101640002368002BFCDB00F063F904002BE006208C
:1016500000F066F92B68B4331B68C0180368002BD0
:1016600002DA284C2000FEBD002000F071F9264B64
:101670009842F6D00023254A19001268012000F094
:1016800077F90025A842ECD1002000F061F91E4A4C
:101690001F4B904203D09D42E3D00135F4E79D42B9
:1016A000B9D1DEE7174C032F05D10121002000F04E
:1016B0006FF90028F9D1280000F052F9D2E7154C53
:1016C000F1E700F035F90E4A05000121300000F085
:1016D00057F9002809D1009B002B08D02368002B64
:1016E000FCDB00F015F90400E5E7064CE3E7094CE4
:1016F000E1E7C0467C070008000026401C0500000A
:10170000280700080500520001018800380700087A
:10171000F049020001005000F7B56E4D04002A6840
:10172000536800931300B033198807234B43126AA0
:101730009B181A68002AFCDA00F002F92A681300E4
:10174000B033198807234B43212800D096E0116A53
:101750005B180221D8680143D960D968C9072FD521
:1017600008208446944460461600D968C06F0191F1
:101770001168883608183568076849190D683902F4
:10178000FF273F040F40694689882D0A2D063943FB
:101790002943D960902103684F4D09012B400B4329
:1017A0000360136830681B181868054029431960E6
:1017B00013686246D26F9A18126832689B181B68C9
:1017C000444D2A681300B033198807234B43126A2B
:1017D0009B1800225A600423404A11690B4313618D
:1017E000012C50D030BF2A681300B033198807236A
:1017F0004B43126A9B181A68002AFCDA00F0A0F822
:10180000212842D1296807220B000124B0331B880C
:1018100000205A430B6AD318DD6825421CD008000B
:1018200008300D68C06F2C4E28180568DB683540FD
:101830001B0C1B061B0C2B4303600B008833186822
:101840000B6818180B6A0568D318DB682E401B0E4E
:101850001B023343036020000B6A0221D218D368B5
:101860008B43D3601B4B1A681300B03319880723CE
:101870004B43126A9B1800225A60FEBD126A9B18E5
:10188000174ADA609CE720BFADE70020009BFC33DD
:101890001B698342E6D1A320124B1349134A144F0C
:1018A000C0000E681D5814680F6006271F503E20A8
:1018B000106010483E371F501F58002FFCDA009868
:1018C0000D4FFC3007610E60A321C9005D5001205F
:1018D0001460C7E77C070008FF00FFFF00ED00E091
:1018E0004407000800002640080126400401264065
:1018F0001E1F00001C050000AAAAAAAA00000000E2
:1019000001B40248844601BC604700BFE9030010EF
:1019100001B40248844601BC604700BFA505001021
:1019200001B40248844601BC604700BF7105001045
:1019300001B40248844601BC604700BFAB040010FC
:1019400001B40248844601BC604700BF6D0D001021
:1019500001B40248844601BC604700BF910B0010EF
:1019600001B40248844601BC604700BFB3040010C4
:1019700001B40248844601BC604700BF5D08001006
:1019800001B40248844601BC604700BF75060010E0
:1019900001B40248844601BC604700BF1D0B001023
:1019A0000000000000000000000000000000000037
:1019B0000000000000000000000000000000000027
:1019C0000000000000000000000000000000000017
:1019D0000000000000000000000000000000000007
:1019E00000000000000000000000000000000000F7
:1019F00000000000000000000000000000000000E7
:10200000007804082B0005100D000000FDB304103B
:1020100005B404100DB4041015B404100000000041
:1020200000000000000000000000000099C904103A
:10203000890005100000000031CA041041CA0410D4
:102040008900051089000510890005108900051018
:102050008900051089000510890005108900051008
:1020600089000510890005108900051089000510F8
:1020700089000510890005108900051089000510E8
:1022800089000510890005108900051010B5054C5E
:10229000237833B9044B13B10448AFF30080012312
:1022A000237010BDB836000800000000F4630F1062
:1022B0000C4B43B10C480D4910B5AFF300800C48EE
:1022C000036823B910BD0A48036833B97047094B46
:1022D000002BF7D0BDE810401847064B002BF5D077
:1022E000184700BF00000000F4630F10BC36000860
:1022F0007431000800000000154B002B08BF134B81
:102300009D46A3F5803A00218B460F461348144A98
:10231000121A5EF01BFE0F4B002B00D098470E4B9D
:10232000002B00D098470020002104000D000D482C
:10233000002802D00C4849F021FE5EF0EBF82000A6
:1023400029004AF003FA49F0ADFF00BF0000080081
:102350000078040800000000A9C60410B836000880
:10236000EC0E02087DBF041000000000034610B10F
:1023700007C983E8070070477047034610B107C9D3
:1023800083E807007047704742688168036812F06D
:10239000010F4FEA62021CBF8858C35888181847BB
:1023A00042688168036812F0010F4FEA62021CBFA5
:1023B0008858C3588818184710B504460BF072FDAA
:1023C000204610BD4FF0FF310BF082BEC36810B540
:1023D0002BB94FF40F720449044849F0DDF91B682A
:1023E000BDE81040184700BFC8B10610E6B106109E
:1023F00070B504460068164602680D46926A194692
:1024000090472068036832465B6929469847024B2B
:10241000984208BF002070BD47F4FFFFF7B51F4684
:102420000E4B04460D4640F8043B16460021102290
:102430005EF08CFD002104F140004AF00DF904F13A
:1024400054004AF09FF8089B009320463B463246D2
:1024500029464CF0AFFB204603B0F0BDF87F0810D2
:1024600010B504460BF082FD236A984234BF002069
:10247000012010BD38B504460D460BF04EFD204638
:1024800025620BF07CFD2046BDE838400BF01ABDFC
:1024900038B504460D460BF083FD20462946FFF76C
:1024A000E9FF204638BD10B5046A0BF05FFD201A25
:1024B00010BD10B50446406810B103685B689847CA
:1024C000204610BD37B504468160C02049F00EFF9C
:1024D0000E4B0093054600234FF480521821FFF75E
:1024E0009DFF2560C02049F001FF094B00934FF488
:1024F0000062002318210546FFF790FF00232046C5
:10250000656084F8243003B030BD00BF9EB1061072
:10251000B2B1061001485FF0F1B800BF0037000803
:102520004161704781617047C36810B504460BB1C3
:102530009B689847204610BD08B5FFF7F5FF08BD1A
:102540002DE9F041074688461646002407EB04159E
:10255000D5F8640860B141465EF066FF40B9C6B97F
:10256000C5F86408C5F86808C5F86C08BDE8F081CE
:102570000134052CEAD146B1002407EB0413D3F84B
:10258000643833B10134052CF7D14FF0FF30BDE88A
:10259000F081863407EB04140020C4F80480E66060
:1025A000BDE8F08190F85D28002380F85C3880F861
:1025B000C0386AB1C0F86438C0F87438C0F88438DC
:1025C000C0F89438C0F8A438A0F8C83C80F8CA3CD9
:1025D00070472DE9F04705460E4691460024B44267
:1025E0001CDAD5F800A04846FFF75DFFDAF80400D2
:1025F00004F1080703682F44A6EB04081B69424650
:1026000039469847002803DA4FF0FF30BDE8F087DD
:1026100004444846FFF724FF0028E0D0B442F3D139
:10262000D5F8580838B14FF47A71414305F60800DF
:10263000FFF720FF0020BDE8F0872DE9F74F056880
:1026400000F58167044608468846FFF72CFF012203
:1026500003463946281DFFF7CBFE0128054646D123
:102660004046FFF720FFA94683464FF0050A0026A3
:10267000BAF1010A13D020685B4601220DF107016F
:102680000430FFF7B5FE012809D19DF8073003F0AB
:102690007F021B0609FB02664FEAC919E8D43146DE
:1026A00004F2094000F070FF0130C0F58063B342CE
:1026B00021DB002E0EDD07444046D4F80090FFF7E2
:1026C000F2FE32460346394609F10400FFF790FE58
:1026D000B0420CD194F80854D4F858382D0933B1CD
:1026E0004FF47A71594304F50360FFF7C3FE28469F
:1026F00003B0BDE8F08F6FF00105F8E730B52B4D62
:102700002B78BFF35B8FDB078BB004460ED42846D3
:1027100049F03EFC50B126480BF042FC284649F0F7
:1027200059FC244A2449224849F026FCD4F8583858
:102730001BB9002528460BB030BD94F85C3823B196
:102740001B48FFF78DFE4542F4E704F60800FFF74B
:1027500087FE28B904F50360FFF782FE0028E8D061
:102760004FF47A716846FFF793FE4FF4806104F1ED
:10277000080000F087FE011E01DC002505E06A4626
:102780002046FFF726FF054618B168460BF08AFB86
:10279000D0E7012384F85C38D4F8583804484FF463
:1027A0007A715943FFF766FEEFE700BFD4360008A1
:1027B000D83600088C220008B923001010B44368F2
:1027C000024693B1006860B1926812F0010F4FEABF
:1027D000620218BF8458104418BFE3585DF8044BD8
:1027E000184708465DF8044B18475DF8044B7047DE
:1027F0002DE9F74306460D461746044600F15008FA
:102800004FF0FF39D4F86418C1B1284600F091FFA9
:10281000002843D1AB686968D4F864281944501E75
:1028200001F1FF3C10F8012FA2B3994232D993F87D
:1028300000E0BEF12F0F1AD12F2A27D010344445C3
:10284000E0D1B9F1000F0CD0D6F8B43813B9D6F8EE
:10285000B83843B1694606F6B40000970195FFF712
:10286000ADFF4FF00009484603B0BDE8F0832B2AC6
:1028700003D0232A0CD07245DFE71A46944513464D
:1028800004D012F801EFBEF12F0FF7D10133C9E7E1
:102890004B1EFBE79942D1D1002ACFD1D4F868383A
:1028A00004F668001BB9D4F86C38002BC6D0694612
:1028B000009701954FF00009FFF780FFBEE72DE973
:1028C000F0438FB005460F46FFF7B7FE0D280646CA
:1028D0006BD80123834040F215241C4061D113F4CE
:1028E00000585BD11A075ED505F5816303930DABE4
:1028F00002934FF480690CAB07AC0193CDF81090B4
:1029000000940BAB0DF1290206A90DF12A00CDF8B8
:102910001C80CDF82080CDF82480CDF8348000F0E4
:10292000B4FD012843D1069B8DF8283021460AAA20
:102930002846FFF75DFF9DF82840ACB1012C22D15D
:10294000BDF82C30009304224346494605F10800A7
:1029500000F062FF002818DD01463A462846FFF7DE
:1029600038FE431C044610D02846FFF7C7FE60B966
:10297000ECB195F8C03813B12846FFF713FE204696
:102980000FB0BDE8F083022C02D04FF0FF34F0E727
:10299000BDF82C30009305224346D6E785F85C4805
:1029A000E2E70024E0E70446E2E70446E1E73446D4
:1029B000E5E7F8B506460F4615464FF0FF342846C2
:1029C000FFF74EFD40B929463046FFF778FFB84281
:1029D000044601D00028F2DA2046F8BDF0B585B0F3
:1029E000054616461F46FFF7F4FD044618BB012FA7
:1029F0001CD1324604212846FFF7DBFF042818D1FA
:102A00004FF4806300930DF10E0205F5816303A975
:102A10000DF10D0000F07DFD01280AD1B5F8C82C9C
:102A2000BDF80E309A4201D1A5F8C84C204605B039
:102A3000F0BD4FF0FF342846FFF7B4FDF6E7000085
:102A40002DE9F0410469C16196B00D4616469846DD
:102A50001CB9002016B0BDE8F08161680CA8FFF732
:102A600017FD94F8C028002309930A930B936AB9C1
:102A70004FF0FF340CA80BF015FA002CE9D02146DA
:102A800019485EF0B1FA4FF0FF30E3E716A904F100
:102A9000080741F8345DCDF81880059607C902ADE6
:102AA00085E80700019300931A464FF48061384689
:102AB00000F06AFE051EDBDD94F85D685EB92A460B
:102AC000394604F6C1005EF043F9A4F8C86CC4F8B6
:102AD000C45C84F8CA6C204600230CAA2946FFF780
:102AE0007DFF0446C6E700BF2EB1061030B587B0A3
:102AF00043690546684698474FF4806049F008FCF2
:102B0000009B0E4A4FF4806104465EF03FFB031EBB
:102B100008DA19460A485EF067FA68465BF078FB07
:102B200007B030BD224605F16B012846FFF788FF4C
:102B3000002CF2D0204649F005FCEEE779360F1064
:102B4000B4AF06102DE9F047964B9749D3F80090A3
:102B5000964B1F68964BA2B042F2B32206469548A8
:102B6000D3F800805EF040FA082049F0BFFBB3685C
:102B7000036004464FF4B76049F0B8FB00F2245AF2
:102B8000054601230022514644F0E2FC8A4B2B60AB
:102B9000504644F06FFA6560F460002C00F08980C4
:102BA0002B682068D3F844A003681B6E984743F055
:102BB000E7FE01462846D047051E10DB49466068FF
:102BC00044F01EFF42463946606844F0ADFE42F2D2
:102BD000B3227549606844F083FB054630B305F6BF
:102BE000FF7240F6FE739A4204D8744829465EF09C
:102BF000FBF902E015F5805F02DD4FF0FF30CDE01C
:102C00004FF4807049F084FB4FF480720446014613
:102C1000284635F055FE2246294669485EF0E4F91B
:102C2000002CEAD0204649F08DFBE6E765485EF0CF
:102C30003DFA65485EF03AFA64485EF037FA582289
:102C400063490CA85EF084F803238DF83830614B9B
:102C50000F93614B1C934FF44D60604B1F9349F0F1
:102C600045FBF3680360044604F5036700F60800BB
:102C70000BF096F938460BF093F9C4F8605804F657
:102C8000640304F6B4025D609D6010339342FAD190
:102C900047F2305363600123C4F8B458C4F8B858FD
:102CA00084F85D382046FFF77DFC34612CB94C4830
:102CB00000E04C485EF0FAF99FE7616802A8FFF770
:102CC000E7FB94F8C0384BB14FF0FF3502A80BF08A
:102CD000E9F8002D5BD02946434888E7BDF8483025
:102CE000C4F858389DF84A30003318BF012304F166
:102CF00008064FF4806184F85D380CAA304600F075
:102D0000FBFA011EE0DD02AA2046FFF762FC054641
:102D10000028DBD1D4F858382BB14FF47A715943DD
:102D20003846FFF7A7FB02AA02212046FFF741FE23
:102D300002281CD04FF0FF35B4F8C83C7BB14FF4EB
:102D4000806204F6C10130465EF002F894F8CA3C95
:102D5000D4F8C41C02AA2046FFF740FE0546002D09
:102D6000B4D1012384F8C03884F85C58AEE700235E
:102D700000938DF8043004F581624FF48063694656
:102D800001A800F03DFB0128D4D1009DD4E71748ED
:102D90005EF08CF90C485EF089F9284622B0BDE857
:102DA000F08700BF902200086FAF06109422000841
:102DB00098220008F0AF06100C6B08100FB0061038
:102DC00036B006104CB006101CE107106AB00610B1
:102DD000B0AE06102EAF06101BAF061008AF0610DF
:102DE000F9B006109BB00610BDB00610E1B0061099
:102DF00070B590B004460E46416806A8FFF748FB40
:102E000003AA00235360936094F8C0380396002B04
:102E100038D0D4F8603801924FF6FF718B4214BF5E
:102E2000013301230122C4F8603800924FF480611D
:102E300004F108009BB2002200F0C7FD011E21DD55
:102E400006AA2046FFF7C5FB0546E8B906AA0B21EE
:102E50002046FFF7AEFD0B2814D14FF4806204F535
:102E600081610DF10A0000F0F0FD012804D12A462D
:102E700031462046FFF764FB06A80BF013F82846FE
:102E800010B070BD4FF0FF352046FFF78BFBF3E726
:102E900030B5044600698BB098B394F824303BB148
:102EA000216AFFF7A5FF0022216A2069FFF748FB8E
:102EB000256995F8C038ABB169686846FFF7E8FA4C
:102EC0004FF4806105F1080000F0D9FA011E03DD1E
:102ED0006A462846FFF77DFB2846FFF763FB6846F6
:102EE0000AF0E0FF256965B105F503600AF0DAFF35
:102EF00005F608000AF0D6FF4FF44D61284649F068
:102F00001FFAE36863B1586803689B689847E468F0
:102F100034B12046FFF7CDFA0821204649F010FAD7
:102F20000BB030BD2DE9F04397B004460F46416821
:102F30008DF817200CA898461E9EFFF7A9FA09AA3B
:102F400000235360936094F8C03809975BB920461A
:102F5000FFF728FB4FF0FF350CA80AF0A3FF284627
:102F600017B0BDE8F083D4F8603801924FF6FF71D6
:102F70008B4214BF013301230DF117014FF00109FA
:102F8000C4F86038029104F108004FF48061CDF874
:102F900000909BB2002200F07DFC011ED7DD0CAA40
:102FA0002046FFF716FB054608BB0CAA0921204660
:102FB000FFF7FFFC0928CAD116AA4FF4806342F834
:102FC000385D3560019304F58163009349463346CB
:102FD0000DF11E0000F0A4FC4845BDD13368802BE4
:102FE000BAD0424639462046FFF7AAFA05466B1C7E
:102FF000B2D1ACE77FB50546006929620E4613469B
:1030000060B103AA00920022FFF78CFF044638B19A
:10301000014609485DF0E8FF4FF0FF3004B070BD95
:10302000012385F82430314604485DF0DDFF044873
:103030005EF03CF82046F1E752B1061078B1061078
:103040001CE1071030B500F16B0585B0044630492E
:1030500028465EF053FB2F4928465EF04DF92E4975
:1030600028465EF049F929462C4804F125055DF013
:10307000BBFF274928465EF041FB264928465EF003
:103080003BF9274928465EF037F9294625485DF087
:10309000ABFF2946A2692046FFF7ACFF25681DB9A2
:1030A0004FF0FF3005B030BD1022002168465DF0C2
:1030B0004DFF1D4B009369461C4B03932846029419
:1030C0004BF00EFE6846FFF72FFA20684BF0DDFD4F
:1030D0000028E5D06568002DE2D010220021684666
:1030E0005DF034FF124B0093124B02936946124B72
:1030F000039328464BF0F4FD6846FFF715FA606825
:103100004BF0C3FDB0FA80F040094042CAE700BF6F
:103110003EAF0610003700084BAF0610D2AF0610C6
:103120005AAF0610E1AF06109D310010A4AE061094
:10313000C52300102037000898AE061010B50469AA
:103140008AB02CB194F8C03833B912485DF0AEFFA4
:103150004FF0FF300AB010BD68460AF021FF4FF46F
:103160007A716846FFF786F96846FFF779F968B91A
:1031700069462046FFF7A3FB0028F5DA4FF0FF343D
:1031800068460AF08FFE1CB10348DFE70024F7E72A
:103190002046DFE7A3AF0610AEAF0610F0B5244F10
:1031A000244E85B004462046FFF7C8FF70B138466C
:1031B0005DF07CFF2046FFF76BFE2046FFF7C2FC68
:1031C000A26904F125012046FFF714FF1A4B1B7872
:1031D000002BE8D03378002BE5D010220021684680
:1031E0005DF0B4FE154B00931021154B1548029469
:1031F00003930AF0F3FF0546A0B1102200215DF011
:10320000A5FE039B1BB15B68694628469847039B54
:103210000D49EB6028460BF07AF92A460B4909481C
:103220000BF09CF86846FFF77FF900233370BAE78C
:103230001AB106107C3700081E370008ED2A00106E
:10324000A4AE06102037000839250010CD23001049
:1032500010B5074C00224FF4507120460AF01EFFB3
:103260002046044A0449BDE8104048F085BE00BF2E
:10327000203700088C220008D5E0001070B5037AD2
:10328000032B044636D0042B14BF00250A2504F175
:103290000C0393E8070000F040FAE37E0230054497
:1032A0007BB104F1240393E8070000F036FA04F13F
:1032B0003003064693E8070000F02FFA304404304C
:1032C0000544236C0BB9A36C3BB104F1400393E8B4
:1032D000070000F022FA02300544E36C0BB9636D7D
:1032E00033B14C3494E8070000F017FA023005447B
:1032F000284670BD0C25CAE7F7B506460190104672
:103300000F461446FFF7BAFF054600F075F9B842BC
:103310006EDC102101A800F099F92946019800F00F
:1033200033F9019B257A1844042D01905AD1324972
:1033300001A800F0A4F9294601A800F087F9A37EAE
:1033400000216FF3070163F34101E37E003318BFEF
:10335000012363F38201480741BF94F83D3063F3D2
:10336000C40194F83C3063F34511236C0BB9A36C92
:103370000BB141F08001E36C0BB9636D0BB141F00F
:103380004001CDB2294601A800F060F9218B01A8C7
:1033900000F062F904F10C030ECB01A800F083F9F0
:1033A000E37E5BB104F124030ECB01A800F07BF9AE
:1033B00004F130030ECB01A800F075F92A0605D5FB
:1033C00004F140030ECB01A800F06DF96B0605D5A2
:1033D0004C3494E80E0001A800F065F90198801BB8
:1033E00003B0F0BD054901A800F049F90321A3E7A6
:1033F0006FF00100F4E700BFE9C10610EEC106104E
:1034000073B502AC064644F8082D20460D4600F080
:1034100017F900F0F000202816D101A9009800F05B
:10342000FDF8009B03440093019B012B0ADD20461D
:1034300000F006F900F001003070204600F000F9BD
:103440002870012002B070BD0020FBE713B50129F0
:1034500004464FF0000301900EDD62F30713194696
:1034600001A800F0F3F80021019800F08DF8019B0D
:103470001844001B02B010BD6FF00100FAE70E22E5
:10348000FFF7E4BF0C22FFF7E1BF2DE9F341002570
:1034900080461F4668460B9B00930E4614460195D6
:1034A00000F0CEF82B4660F3070300F0F000302860
:1034B0002BD1C3F3C00288F80020C3F34102C3F349
:1034C0000003326001A92370009800F0A7F8009C67
:1034D000019B044400941C44054622466946089812
:1034E00000F003F988B1009BE31A002B0DDB336871
:1034F000002B03DD684600F09BF83880009B0A9A99
:10350000E41A1460099A01251360284602B0BDE848
:10351000F081F7B502AC064644F8083D20460F4658
:10352000154600F08DF8002360F30703C3F3C002D3
:10353000C3F303133A7001A93370009800F06EF8DA
:10354000009B03440093019B012B04DD204600F007
:103550006FF82880012003B0F0BD0000094A13680D
:1035600070B51C460025E61AB14206DC0029A8BF4A
:103570005B1805B11360084670BD14F8015B057057
:103580000125F0E78037000830B5441E8025002073
:103590004A4202F07F0201F07F0358BF5342DBB280
:1035A00091FBF5F10029C8BF43F08003002900F129
:1035B000010004F8013FEBDC30BDF7B500240746FD
:1035C0000E460C6001250134052C11D001210DF1AE
:1035D0000700B84701280BD19DF80720316802F099
:1035E0007F0305FB0313336013064FEAC515EAD4C6
:1035F000204603B0F0BD0000431C7F2B01DC0230ED
:103600007047B3F5804F01DA03307047024A9342A6
:10361000D4BF043005307047FEFF1F00024B186016
:103620000248FFF7CABF00BF803700085D350010B1
:10363000036819785A780233036002EB012070475F
:103640000368024613F8010B136070470368197092
:10365000036801330360704702684FF4807391FB85
:10366000F3F313700268531C03604B42DBB2C9B220
:1036700058BF59425170036801330360704770B5F9
:10368000044608460E465EF0BBFA05460146204653
:10369000FFF7E2FF2A46314620685DF059FB2068BB
:1036A0002844206070BD30B585B004AC04E90E003C
:1036B000029C002C05460CDD2146FFF7CDFF22467B
:1036C000039900685DF044FB2B681C442C6005B036
:1036D00030BD019921B105B0BDE83040FFF7CFBF43
:1036E00005B0BDE83040FFF7B7BF0B68D31A012B18
:1036F00070B505460C46164603DC002000232B60FF
:1037000070BD0846FFF794FF23686860184486423E
:10371000F3D3AB6020600120F0E784B004AB03E991
:103720000700019810B104B05EF06ABA029804B0C4
:10373000704770B504680E468CB120465EF060FAA2
:10374000054630465EF05CFA85420BD12A4631468A
:1037500020465EF0C3FAB0FA80F0400970BD84687C
:103760004568EEE7002070BD1FB5044601A880E85B
:103770000E0007C8FFF7D1FF069B02301844002C4B
:10378000C8BF023004B010BD2DE9F04F85B01F4610
:10379000149E009610AC8B460390804692463846A5
:1037A00094E80E00FFF7E0FF8146FFF725FF58453C
:1037B0004FF000052DDC032363F307156AF3C305FF
:1037C0009DF8383067F3420563F30005E9B203A8BA
:1037D000FFF73CFF49460398FFF7D6FE039B1844CA
:1037E000039094E80E0003A8FFF75DFF002F04DDAF
:1037F000BDF83C1003A8FFF72FFF3246139903983A
:103800005DF0A6FA03983044A0EB080005B0BDE8CF
:10381000F08F6FF00100F9E713B503290446019416
:103820004FF000001CDD62F3071063F3C300931F29
:103830005A425A4162F34200C1B201A8FFF706FFA3
:1038400002210198FFF7A0FE019BBDF8101018445B
:10385000019001A8FFF700FF0198001B02B010BD06
:103860006FF00100FAE72DE9F04106460F46022508
:1038700000244FF00C08B44202DB2846BDE8F0817A
:1038800008FB047393E80700FFF747FF0330054484
:103890000134F0E72DE9F74F0C9F0D9D01908B4609
:1038A00006462946384690469946FFF7DCFF824691
:1038B000FFF7A2FE58454FF000042EDC082363F307
:1038C000071468F3C304012363F34204E1B201A8BF
:1038D000FFF7BCFE51460198FFF756FE019B1844C6
:1038E0000190494601A8FFF7B7FE00244FF00C09EC
:1038F000BC4204DB0198801B03B0BDE8F08F09FBDC
:1039000004530ECB01A8FFF7CEFE0E9B01A813F8BF
:103910002410FFF79BFE0134EAE76FF00100EBE7AC
:103920002DE9F34702AD98460A9B45F8083D8146CC
:1039300028460F461646FFF783FE00F0F000902859
:1039400027D101A90098FFF769FE009CDDF804A0CB
:103950000444BAF1010F00940BDD2846FFF768FE1E
:103960000023A9F8000054443360009BA34203D312
:10397000012002B0BDE8F087D6F80090B9450ADC16
:1039800009F1010333602846FFF75AFE48F8290081
:10399000EBE70020EDE74FF0FF30EAE72DE9F041DB
:1039A00006460F46022500244FF00C08B44202DB05
:1039B0002846BDE8F08108FB047393E80700FFF791
:1039C000ACFE023005440134F0E72DE9F74F0C9EC0
:1039D0000D9F01908B4605463946304692469846E3
:1039E000FFF7DCFF8146FFF707FE58454FF0000464
:1039F00028DC0A2363F307146AF3C304012363F387
:103A00004204E1B201A8FFF721FE49460198FFF701
:103A1000BBFD019B18440190414601A8FFF71CFE25
:103A200000244FF00C08B44204DB0198401B03B0A3
:103A3000BDE8F08F08FB04730ECB01A8FFF733FE3F
:103A40000134F0E76FF00100F1E71FB504AC00238B
:103A500004F8013D8DF80E3000920B4602462146D7
:103A60000DF10E00FFF755FD9DF80E300B2B08BF32
:103A7000012004B010BD00000C4A0D4B12781A70E2
:103A80000C4A12785A700C4A12789A700B4A1288B3
:103A90009A800B4A1288DA800A4A12881A810A4AE6
:103AA00012789A72094B01221A707047A6370008E3
:103AB0003E460008903700088F3700089E37000800
:103AC000A03700089A370008853700087C370008BF
:103AD000034610B107C983E8070070477047426882
:103AE0008168036812F0010F4FEA62021CBF885818
:103AF000C35888181847F8B5044600F5F07600F565
:103B000025670A250A204AF0EBFF304603F098F9B2
:103B1000384604F069F804F5EA6003F0D1FD04F5D5
:103B2000026003F0EDFC04F50F6003F04BFC013D77
:103B300004F5007002F0C2FA15F0FF05E2D104F5B9
:103B4000037003F07BFB04F5AF6002F009FC04F5A1
:103B5000B76003F009F9D4E770B50546002400F515
:103B6000757601340A20E4B24AF0BAFF132C03D967
:103B7000304601F087FB002405F1380002F06CF9B3
:103B800005F5C07001F05AF9EBE738B500F5C074DF
:103B90000546204600F05FFD014605F1380001F0C2
:103BA000DFFB2046BDE8384000F08EBD1C4B1D49B0
:103BB00001221A701C4B1A7000230B701B490A70EB
:103BC0001B490B701B490B701B49022008701B49D5
:103BD0000B701B490B701B490A701B490A701B496B
:103BE0000A701B490A701B49192008701A493220B3
:103BF00008701A490A701A4903220A8019490A8072
:103C000019490620088019490B7019490A70194989
:103C10000A7019490A70194A1370194A13707047CB
:103C200011460008104600082B460008A43700087B
:103C300091370008A5370008AE3700088C37000818
:103C40008D3700089237000893370008A93700081D
:103C5000AA370008A6370008903700088F370008F9
:103C6000A03700089E3700089A37000895370008EB
:103C7000853700088737000886370008A237000814
:103C80003C46000830B502228BB00446032100F008
:103C9000E7F904F5C07523464E4A4F4904F1380050
:103CA00001F0FCFE284600F0A1FB4C4B00934C4A6F
:103CB0004C4903F5802304F5F07003F0A9F82A4677
:103CC000494904F5007002F0EBF94FF4C02247496E
:103CD00004F5037003F054F9454A464904F575703C
:103CE00001F00EF90422444904F5AF6002F010FA25
:103CF000424B089301330793013306930133059335
:103D0000013304934FF0071303934FF400230293FE
:103D10000133019301333A4A00933A49013304F5E0
:103D2000B76002F025FE384904F5EA6003F0E2FCD2
:103D30004FF4202104F5026003F0FCFB334904F545
:103D40000F6003F09DFA324B0593013B0493013B56
:103D50000393043302934FF0051301932D4B2E4A26
:103D60002E4900930694023B04F5256003F0DCFE27
:103D700004F5346009F0D6FF04F5386009F0D2FF8D
:103D8000C02048F0B3FA264B0093054600234FF4B9
:103D900080622821FEF742FBC4F8C05B15B92148B8
:103DA0005DF084F9C02048F0A1FA1F4B009305464E
:103DB00000234FF480621821FEF730FBC4F8C45B87
:103DC00015B91A485DF072F92046FFF7EFFE20465C
:103DD0000BB030BD07000B0006000B00030006000F
:103DE00002000600050001000600080001000600B0
:103DF00004000600050006000200010002000700A2
:103E0000040008000500080001000A0002000A0082
:103E10000400050007000900040009000700050070
:103E200004C2061016C2061035C206104AC2061099
:103E300038B50546064B45F8283B044609F0B6FF61
:103E40002846FEF771FB20460AF014F9204638BDDB
:103E5000640A071010B50446D0F8C40B10B103680B
:103E60005B689847D4F8C00B10B103685B6898474B
:103E700004F53860FFF7DCFF04F53460FFF7D8FF86
:103E800004F5256003F0CAFE04F50F6003F008FA9C
:103E900004F5026003F043FB04F5EA6003F01FFC45
:103EA00004F5B76002F046FF04F5AF6002F048F990
:103EB00004F5757001F034F804F5037003F03CF874
:103EC00004F5007002F0F8F804F5F07002F0B7FFA6
:103ED00004F5C07000F0BEFB04F1380002F09CF85D
:103EE000204600F0CDF8204610BD10B50446FFF77F
:103EF0009FFF2046402148F023FA204610BD0000D5
:103F000038B5102204460D4600215DF01FF81CB1A3
:103F100095E8070084E80700014BE36038BD00BF67
:103F2000F8C1061070B588B00446144B039001A97F
:103F300004A8002601930296FFF7E2FF4FF4FA620D
:103F4000002304A904F5346009F050FF04A8FEF72B
:103F5000EBFAD4F8C45B75B1094B019301A904A82D
:103F600002960394FFF7CCFF04A928464AF0B8FE56
:103F700004A8FEF7D9FA08B070BD00BF8B3B001053
:103F8000593B001070B5044688B000F0ADF82046EB
:103F9000FFF772FD0025204B049304A968460595A0
:103FA0000694FFF7ADFF102229460DEB02005CF0EE
:103FB000CDFF039B04F538661BB15B68694604A816
:103FC0009847039B154A079304A90023304609F03C
:103FD0000DFF04A8FEF7A8FA6846FEF7A5FAD4F884
:103FE000C05B7DB10E4B00936946002304A801938A
:103FF0000294FFF785FF04A928464AF071FE04A841
:10400000FEF792FA04F5B76002F01CFD04F5256096
:1040100003F02EFE08B070BD793A001000879303BC
:10402000F73A00100C4B1B6870B5C0F307429D694E
:104030000E2AC4B2D8BF05EBC215072C0E4604DD0C
:1040400040F23131054859F0C9F80123A3400EB9B7
:104050006B6070BDAB6070BD600E0208E7C20610F9
:1040600038B515460022044602600271427146F0DE
:10407000AEFE294604F1080009F0F9FB204638BDE0
:1040800010B50446083009F042FC204610BD00007F
:1040900010B504460068431C04D13B22054906487C
:1040A00047F07AFB0121FFF7BDFFA08EBDE810406D
:1040B0004AF016BD8CC20610C8C2061010B50446E0
:1040C0000068431C04D13B220549064847F064FBC5
:1040D0000021FFF7A7FFE08EBDE810404AF000BDC9
:1040E0008CC20610C8C20610F8B5184F0446002549
:1040F00000F1080637F91510304609F0D5FB4FF0EE
:104100007C51304609F0E8FB6B1E032B03D8DFE837
:1041100003F0070A181A4FF49673A386F02305E0FC
:104120009623A38602E05A23A3869623E38620469D
:10413000FFF7AEFF01352046FFF7C0FF052DD9D1AF
:10414000F8BD5A23E9E74FF49673EAE776C2061002
:10415000F8B5154F0446002500F1080637F915108B
:10416000304609F0A1FB4FF07C51304609F0B4FB1A
:10417000012D10D0022D4FF0960310D03C22A286C4
:10418000E3862046FFF784FF01352046FFF796FFC0
:10419000032DE3D1F8BD7823A3865A23F0E7A38645
:1041A0004FF49673ECE700BF80C20610F8B5154FC8
:1041B0000446002500F1080637F91510304609F0CD
:1041C00073FB4FF07C51304609F086FB012D10D077
:1041D000022D4FF0960310D03C22A286E3862046A3
:1041E000FFF756FF01352046FFF768FF032DE3D1A7
:1041F000F8BD7823A3865A23F0E7A3864FF496737D
:10420000ECE700BF86C2061038B500F10805044689
:104210004FF48E71284609F047FB28464FF07C5139
:1042200009F05AFB9623A38600232046E386FFF776
:104230002FFF2046BDE83840FFF740BFF8B5114FCB
:104240000446002500F1080637F91510304609F03C
:104250002BFB4FF07C51304609F03EFB9623012D9D
:10426000A3860BD02D22E2862046FFF711FF0135F1
:104270002046FFF723FF032DE6D1F8BD2D23E3866B
:10428000F2E700BF64C20610F8B5114F04460025DE
:1042900000F1080637F91510304609F005FB4FF01C
:1042A0007C51304609F018FB9623012DA3860BD0D4
:1042B0002D22E2862046FFF7EBFE01352046FFF770
:1042C000FDFE032DE6D1F8BD2D23E386F2E700BF06
:1042D0006AC20610F8B5114F0446002500F1080621
:1042E00037F91510304609F0DFFA4FF07C513046AF
:1042F00009F0F2FA9623012DA3860BD02D22E28637
:104300002046FFF7C5FE01352046FFF7D7FE032DF7
:10431000E6D1F8BD2D23E386F2E700BF70C2061098
:10432000034610B107C983E8070070477047426829
:104330008168036812F0010F4FEA62021CBF8858BF
:10434000C35888181847000008B50B4D0B4E04469B
:104350004FF47A704AF0C4FB94F8503033B13046D1
:104360005CF0A4FE002384F85030F1E728465CF0AE
:104370009DFE0123F7E700BF4DC3061044C306109E
:1043800010B50023044603600371437146F01FFD1E
:10439000204610BD70B50468631C0E4604D13B2254
:1043A0000E490F4847F0F8F90E4B1B68C4F307425B
:1043B0009D690E2AE4B2D8BF05EBC215072C04DDB7
:1043C00040F23131084858F009FF012303FA04F4A0
:1043D0000EB96C6070BDAC6070BD00BF8CC20610C1
:1043E000C8C20610600E0208E7C2061070B50022AF
:1043F000044687490C30FFF7C3FF0022854904F1CA
:1044000014000025FFF7BCFF0022834904F11C00C3
:10441000FFF7B6FF84F8505084F8515084F852509A
:1044200084F8535084F8545084F8555084F856500A
:1044300084F8575084F8585084F8595084F85A50EA
:1044400084F85B5084F85C5084F85D50A4F85E50AA
:10445000182047F05DFF2A4606467049FFF790FF97
:104460002A466F4906F10800FFF78AFF2A466D4980
:1044700006F11000FFF784FF6660182047F048FF40
:104480002A4606466849FFF77BFF2A464FF430214B
:1044900006F10800FFF774FF2A46644906F1100090
:1044A000FFF76EFFA660302047F032FF012206467C
:1044B0004FF44021FFF764FF01225D4906F1080037
:1044C000FFF75EFF01225B4906F11000FFF758FF7E
:1044D0000122594906F11800FFF752FF01225749FE
:1044E00006F12000FFF74CFF0122554906F1280094
:1044F000FFF746FF6662202047F00AFF2A4606467D
:104500005049FFF73DFF2A464F4906F10800FFF7E3
:1045100037FF2A464D4906F11000FFF731FF2A46C2
:104520004B4906F11800FFF72BFFA662042047F065
:10453000EFFE057045708570C5706064032047F01C
:10454000E7FE057045708570A064032047F0E0FE2B
:10455000057045708570E064102047F0D9FE04F1C5
:104560005103036004F157034360A36C8360636CE1
:10457000C360E062102047F0CBFE04F15B030360F0
:1045800004F159034360E36C8360636C206302337E
:10459000C360102047F0BCFE04F15A03036004F12D
:1045A00058034360A36C606301338360636C013321
:1045B000C360102047F0ACFE04F15303036004F124
:1045C00056034360E36CA06301338360636C033381
:1045D000C360102047F09CFE04F15203036004F115
:1045E00054034360E36CC56002338360E0631020D2
:1045F00047F08EFE04F15003036004F1550343605D
:10460000A36CC560023383602064204670BD00BF88
:1046100002000B0006000A0005000A0005000B005E
:1046200004000B0003000B0001000B0007000A0050
:1046300002000C0003000C0004000C0005000C003C
:1046400002000D0003000D0004000D0005000D0028
:1046500006000D00704790F85D00704708B51430F3
:10466000FFF798FE08BD08B5406A00EBC10011468F
:10467000FFF790FE08BD70B506460D460024706A2F
:10468000294620440834FFF785FE302CF7D170BD51
:1046900070B506460D1F002455F8043FB06A19781E
:1046A00020440834FFF776FE202CF5D170BD70B59C
:1046B00006460D460024B06A294620440834FFF718
:1046C00069FE202CF7D170BD10B504460121FFF71B
:1046D000D2FF94F85C300133DBB2052B88BF002396
:1046E00084F85C3000212046FFF7E1FF002294F8B7
:1046F0005C102046FFF7B7FF94F85C30052B08D814
:10470000DFE803F0030C0E101214E16A2046FFF7F5
:10471000BFFF94F85C3084F85D3010BD216BF5E785
:10472000616BF3E7A16BF1E7E16BEFE7216CEDE77C
:10473000034B1B7803B1012380F85030704700BF52
:104740001E370008034B1B7813B980F851307047AF
:104750000123FAE71B460008044B1B782BB9044BD6
:104760001B7803B1012380F85230704711460008CE
:104770002846000810B5044606292FD8DFE801F0C6
:10478000040B1719202F310001216068FFF702FE8A
:10479000606801211AE000216068FFF7FBFD606896
:1047A00000210830FFF7F6FD6068002113E00121C9
:1047B000F2E700216068FFF7EDFD60680121F0E796
:1047C00000214068FFF7E6FD606800210830FFF730
:1047D000E1FD606801211030FFF7DCFD10BD002114
:1047E000D3E70121E6E70000104B1B78DBB9104B43
:1047F0001B78022B17D00F4B1B78A3B90E4B1978DF
:10480000022911D10D4B1B78012B02D10621FFF794
:10481000B1BF022B01D10321F9E7032B01D10521FF
:10482000F5E7042BF3D070470121F0E711460008AB
:10483000A4370008204600088437000885370008A0
:1048400010B5044606292FD8DFE801F0040B17192C
:10485000202F31000121A068FFF79CFDA0680121F5
:104860001AE00021A068FFF795FDA068002108303C
:10487000FFF790FDA068002113E00121F2E700217D
:10488000A068FFF787FDA0680121F0E7002180689C
:10489000FFF780FDA06800210830FFF77BFDA068CE
:1048A00001211030FFF776FD10BD0021D3E7012173
:1048B000E6E700000E4B1B780246BBB90D4B1B7898
:1048C000012B03D105211046FFF7BABF022B01D1FE
:1048D0000321F9E7032B01D10621F5E7042B01D1D0
:1048E0000221F1E7044B1B78002BEBD1704700BF8E
:1048F000114600088F37000813460008072910D812
:10490000DFE801F00417170810171A20436C012282
:104910001A7003E0436C01221A7000225A709A70D8
:10492000DA707047436C00221A705A700121997036
:10493000F6E7436C0022EBE7436C01221A705A70D1
:104940000022ECE7436C01221A705A700021EEE756
:104950000C4B197811B90221FFF7D0BF012901D101
:104960000321F9E7032901D10421F5E70529F3D053
:10497000022901D10621EFE7042901D10721EBE744
:10498000704700BF8C37000838B500210546FFF797
:10499000B5FF836C01241C705C709C70C36C00219B
:1049A0001C705C709C7080F8504080F8514080F81A
:1049B000524080F8534080F8544080F8554080F8C9
:1049C000564080F8574080F8584080F8594080F8A9
:1049D0005A4080F85B40FFF7CDFE28460021FFF7E4
:1049E0002FFF214605F10C00FFF7D4FC214605F10D
:1049F0001400FFF7CFFC214605F11C00FFF7CAFCAD
:104A000038BD042909D8DFE801F003090C111700AB
:104A1000836C01221A705A709A707047836C00225E
:104A2000F8E7836C01221A700022F4E7836C0022FD
:104A300001211A705970EFE7836C00221A705A70C6
:104A40000122E9E7174A12780346DAB1164A1278CA
:104A5000052A02D10121FFF7D4BF062A12D1134A39
:104A6000127812B1826C01219170114A127812B140
:104A70009A6C012151700F4A127892B19B6C0122FD
:104A80001A7070470C4A1278012A02D10221184686
:104A9000E1E7022A01D10321F9E7032A01D1042128
:104AA000F5E7704720460008AE37000825460008A5
:104AB0002346000827460008A9370008042909D81A
:104AC000DFE801F003090C111700C36C01221A7012
:104AD0005A709A707047C36C0022F8E7C36C0122C9
:104AE0001A700022F4E7C36C002201211A70597079
:104AF000EFE7C36C00221A705A700122E9E7000048
:104B0000084B1B7843B9084B1B783BB9074B1B7804
:104B100033B90121FFF7D2BF0421FBE70321F9E7F5
:104B20000221F7E71F4600081E4600081D46000840
:104B300038B501210446FFF7E1FE0121FFF761FFCF
:104B40000121FFF7BBFF002580F8505080F851503D
:104B500080F8525080F8535080F8545080F85550E7
:104B600080F8565080F8575080F8585080F85950C7
:104B700080F85A5080F85B500121FFF7FBFD20467A
:104B80000121FFF75DFE294604F10C00FFF702FC4E
:104B9000294604F11400FFF7FDFB294604F11C002F
:104BA000FFF7F8FB38BD0000164B174A1B781BB9FE
:104BB000A0F85E30137070471378002BFBD0B0F86C
:104BC0005E3001339BB2632BA0F85E3001D8FFF753
:104BD000DBBE952B01D8FFF7ABBFF92BF7DDB3F5A3
:104BE000967FF8DBB3F5C87FF1DBB3F5E17FF2DB4D
:104BF00040F225218B42EADDB3F5167FEBDB002383
:104C0000D8E700BF2846000811460008012905D151
:104C1000002380F8543080F855302DE0022912D15D
:104C20000023012280F8543080F8553080F8563047
:104C300080F8573080F8582080F8592080F85A3092
:104C400080F85B30704703290ED10023012280F8E1
:104C5000543080F8553080F8562080F8572080F87E
:104C6000583080F85930E9E704290AD1002301229D
:104C700080F8543080F8552080F8563080F857304E
:104C8000EDE7052904D1012380F854300023C2E761
:104C90000029D7D180F8541080F8551080F85610AC
:104CA00080F8571080F8581080F859100123C5E794
:104CB000344A1278F8B50346002A61D1324A127894
:104CC000002A5DD0314A324D1278002A56D131493E
:104CD0000C78297844B306292F4E06D118460121B5
:104CE000FFF794FF00233380F8BD0129F6D0348804
:104CF0000134A4B240F6B837BC4234801DD901213A
:104D000080F8542080F8552080F8562080F85720ED
:104D100080F8582080F8592080F85A1080F85B10ED
:104D2000328006232B70F8BD022904D1FFF76EFFF5
:104D3000194B1C80F8BD012903D1BDE8F840FFF7ED
:104D400065BF154E3288013292B240F6B837BA428A
:104D50003280F2D9012280F8544080F8554080F822
:104D6000564080F8574080F8584080F8594080F805
:104D70005A2080F85B2034800223D3E72978DCE7CF
:104D8000F8BD00BF1146000828460008204600086C
:104D9000AE37000891370008AC370008224B1B786B
:104DA00010B50446002B3ED1204B1B784BB9204B4D
:104DB0001B78C3BBFFF7BCFE2046BDE81040FFF7E1
:104DC000B7BC1C4B1B78032B09D1FFF7B1FE204663
:104DD000FFF7BEFD2046BDE81040FFF791BEFFF78C
:104DE00031FE2046FFF78CFE2046FFF7ABFC204645
:104DF000FFF7AEFD2046FFF79BFC2046FFF7F4FCD3
:104E00002046FFF755FF2046FFF754FD2046FFF7E9
:104E1000A3FC094B197821B904F10C00FFF7BAFA89
:104E200001E00129F8D010BD11460008284600080D
:104E3000344600088C370008A537000870B5294BA8
:104E400004681B7886B00546002B3DD0002C33D17A
:104E500025485CF02BF9C02047F048FA234B064662
:104E6000102240F8043B21465CF070F8214606F120
:104E7000400047F0F1FB06F1540047F083FB1C4B68
:104E800000934FF4806223462821304649F092FE79
:104E9000102221462E6002A85CF058F8154B0293B0
:104EA00002A9154B05933046049549F019FF059B5F
:104EB00013B19B6802A898472846FFF775FE28465D
:104EC000FFF76CFF06B070BD002CF5D0204649F00E
:104ED0009DFE1028F0D009485CF0E8F8286849F0F9
:104EE00074FEE9E73446000855C30610F87F081041
:104EF0005EC306104943001038C306107DC3061078
:104F000010B54FF41653044608F026FD002384F82C
:104F1000A23184F8A33184F88931204610BD000005
:104F200010B5034B0360044608F0A2FE204610BDF6
:104F3000340A0710272370B580F88A31A04B1A78FD
:104F4000044672B19F4B1B78012B07D09E4B1B78F8
:104F5000022B03D09D4B1B78032B1BD19C4B1B7842
:104F6000C3B9002384F88B31072384F88C31994B23
:104F70009948197800293FD1984B1D78984B95B1E5
:104F80001D78934B1B783DB1002B40D00D2384F846
:104F90008D3142E00923E5E7002BF7D1092384F89E
:104FA0008D31012337E01B7843B1894B1B78002BEF
:104FB000ECD1092384F88D3102232CE0814B1B783E
:104FC0001BB9032384F88D3103E0012B03D184F84E
:104FD0008D1100231FE0022B05D17D4D2D78002D72
:104FE000F0D00D23EEE7032B01D10123EAE7042BD8
:104FF000E8D0052BEDD1E5E7002A00F0A780774B3C
:105000001D78774B1B78002D62D1002BC6D1092368
:1050100084F88D31032384F89A31724B1B8884F80D
:105020008F311D12704B84F88E511B8884F891319A
:105030001D126E4B84F890511B8884F893311D1219
:10504000037884F894316A4B84F892511B7884F881
:105050009531684B1B7884F89631674B1B7884F840
:105060009731664B1B8884F89931181284F898019F
:10507000002A00F0ED80624B1B78002B40F0D080BE
:10508000504A002979D11378012B07D04E4B1B7859
:10509000022B03D04D4B1B78032B5CD1002384F8EB
:1050A0009B31062384F89C31052384F89D3104F557
:1050B000C575002384F89E3184F89F3104F5D070C3
:1050C0002A46824200F0C78012F8011B4B40F8E7E5
:1050D000002B3FF46EAF4B4B1B7823B9092384F8A8
:1050E0008D31052397E7374B1B78012B7FF67DAF7A
:1050F000022B3FF476AF032B01D1022362E7042B8E
:1051000008D1414D84F88D312D78002D3FF461AFE9
:10511000062380E7052B0ED13C4B1B7813B990F981
:10512000005025B9052384F88D31082373E7052540
:1051300084F88D516FE7062B3FF444AF072B7FF4C3
:105140006CAF012384F88B31002320E784F88D2194
:1051500084F89B2161E72E4B1B78032B01D105239B
:105160009DE7022B01D1022399E7012B01D10823EE
:1051700095E7042B95D1012391E7254B1B78032B51
:105180000AD1052384F89B311378062B50D1214B8B
:105190001B785BB1032382E7022BF3D0012B01D1F3
:1051A0000823EFE7042BEFD10123EBE71A4B1B7821
:1051B000002BD8D1194B1B78002BDCD171E700BF35
:1051C00028460008AE370008A43700088C370008CE
:1051D0002146000820460008A63700082D46000892
:1051E000304600089A370008A03700089E370008AC
:1051F00090370008A7370008A83700088A3700084A
:1052000031460008104600081546000814460008FC
:105210008537000826460008224600082446000874
:10522000144B1B78062B05D1134B1B78002BB1D1E7
:10523000072334E7072B04D1104B1B78002B92D1A6
:10524000F6E7082BF4D10E4B1B78002B93D1EFE738
:1052500084F89B2125E784F8A031302384F8A1311C
:1052600004F5D17615F8011B204608F08EFBAE42FE
:10527000F8D170BD94370008264600082246000881
:105280002446000890F8A3310133DBB2032B02D887
:1052900080F8A3317047002380F8A331FFF74ABE9E
:1052A000034610B107C983E807007047704742689A
:1052B0008168036812F0010F4FEA62021CBF885830
:1052C000C35888181847012380F83B31483008F04C
:1052D0006DBD90F83621BAB190F82C210023C0F8AA
:1052E00030316AB990F838310133DBB2182B02D86B
:1052F00080F83831704780F8382180F836217047BF
:10530000012280F83521F3E7D0F83031CBB190F8A5
:1053100034118B4210D190F837310133DBB2042BBA
:1053200089BF012380F8373180F83721C0F8302158
:1053300088BF80F83631704780F8343180F83721E3
:10534000704790F839210132D2B2052A91BF80F816
:10535000392180F8393180F8373180F8343170479D
:10536000F8B5C56B6B1C04460F4604D1462215499F
:10537000154846F011FA154B1B68C5F307429E69A4
:105380000E2AEDB2D8BF06EBC216082D04DD40F29E
:1053900013310F4857F022FF3169E94001F0010352
:1053A0001946B94084F82C31D4F8303184F82D11E5
:1053B000C9B21943C4F830112046BDE8F840FFF7E0
:1053C00088BF00BF8CC20610C8C20610600E02085B
:1053D000E7C2061090F83A312BB1002380F83A3139
:1053E000014B01221A70704729460008154A1649D8
:1053F000012310B51370154A1370154A137000225B
:105400000A7014490A70144A0621118013490322B4
:105410000A8013490A80134A12786AB9124980F83F
:105420003C210A70114980F83D310A70104980F81A
:105430003E2102240C7010BD0E4A13700E4A1370E8
:1054400010BD00BF923700088C3700089337000862
:10545000A93700088D3700089A370008A0370008E0
:105460009E3700082846000820460008214600080C
:10547000AE3700082B46000811460008164B1A7874
:1054800070B505460C4612B94FF0FF3070BD134E93
:1054900000221A7032788A42F6D0114BD0F82801D7
:1054A0001B7813B1FEF7CAFEEEE759B1FEF750FEC6
:1054B00034700C4B4CB101221A702846FFF796FF4E
:1054C000002070BDFEF772FEF2E702221A70064B52
:1054D0001C70064B1C70F0E729460008284600089F
:1054E0001B460008A2370008A3370008A5370008AC
:1054F0002DE9F041184E3378054653B3DFF87C8030
:1055000098F800402CBBD0F82801144FFEF74EFE4F
:10551000134B347002221A70124B3C7028461C70D8
:10552000FFF764FF104B3278DA72104A12781A7360
:1055300098F800205A730E4A12789A730D4A12781E
:10554000DA7395F83E211A743A785A740A4B01229C
:105550001A70BDE8F08100BF28460008A537000892
:10556000A2370008A33700083E460008AE370008FF
:105570008C370008A93700087C3700081B46000854
:1055800008B5054BD0F8280101221A70FEF73CFE41
:105590004FF0FF3008BD00BF3346000808B5174B79
:1055A0001B7893B1164B01221A70164B00221A7009
:1055B000154B1B782BB9154B1B7813B9144B1B7863
:1055C00033B1D0F82801FEF739FE4FF0FF3008BDA7
:1055D000104B1B787BB9104B1B7853B107290F4B2D
:1055E000D0F82801A8BF00211970FEF70DFE002099
:1055F00008BD0629F3E70829F1E700BF284600089F
:105600002C460008114600081B4600082D460008DD
:10561000304600082046000891370008AE370008E1
:105620000B4B1B7873B10B4B1B785BB90A4B1B7888
:1056300043B90A4B1A780A4B2AB11A78072A01D1C2
:1056400006221A7070471A78062AFBD10222F8E760
:1056500028460008204600081B460008913700082D
:10566000AE3700080C4B1B7810B50C468BB10B4BBA
:10567000D0F8280101221A70094B00221A7029B9AA
:10568000FEF728FE074B00201C7010BDFEF7FCFD46
:10569000F8E74FF0FF3010BD284600082C46000800
:1056A000114600081B460008184B1B7810B453B372
:1056B000174B01221A70174B00211970164B1B78DB
:1056C0002BB9164B1B7813B9154B1B782BB1D0F89F
:1056D00028015DF8044BFEF7B1BD12490C78032C8C
:1056E00011D0114C80F83D21237003240C700F4918
:1056F0000A700F490A700F490B700F490A700F4A60
:1057000013700F4A13705DF8044B70472846000869
:105710002C460008114600081B4600082D460008CC
:10572000304600088C3700088D3700089337000892
:10573000A9370008184600081A4600081C46000849
:10574000194600082DE9F843424B1B7806460D46E2
:1057500093B1414A01231370404A00211170404A1D
:1057600012782AB93F4A127812B93F4A14783CB1EC
:10577000D6F82801FEF762FD4FF0FF30BDE8F88350
:105780006A1E032A394F21D9394A80F83D311470F5
:10579000384A1470384A1470384A1470384A1470F1
:1057A000384A1470384A1370384A1370384A1370E4
:1057B00005233B70374B25461C70D6F8280186F828
:1057C0003C51FEF721FD0020BDE8F883012DDFF8F4
:1057D000C88012D1264B80F83D411D70264B88F8B9
:1057E00000401D70254B1C70254B1C70254B1C70F8
:1057F00005233B70274B1C70DFE7022D0ED11C4A9E
:1058000088F8004015701C4A13701C4A14701C4A1A
:1058100013701C4B1C7005233B70CEE7032DDFF883
:10582000749008D1FFF740FF052388F800403B70D3
:1058300089F80040C1E70E4A88F800400425157039
:105840000D4A3D7013700D4A14700D4A13700D4AC5
:105850001370EDE7284600082C46000811460008A2
:105860001B4600082D46000830460008A2370008F5
:105870008C3700088D370008184600081A460008C3
:105880001C460008194600089237000893370008A4
:10589000A9370008A3370008A5370008044A0023E9
:1058A0001370044A1370044AE830137008F07EBA8B
:1058B0001F4600081E4600081D460008064A012330
:1058C0001370064A1370064A1370064B05221A70AD
:1058D000054B00221A707047923700089337000872
:1058E000A9370008A2370008A3370008064A022398
:1058F0001370064A1370064A1370064B05221A707D
:10590000054B00221A707047923700089337000841
:10591000A9370008A2370008A3370008064A032366
:105920001370064A1370064A1370064A1370064B2A
:1059300000221A70704700BF9237000893370008A2
:10594000A9370008A2370008A337000838B5214B53
:105950001B78054693B1204B01221A701F4B002281
:105960001A701F4B1B782BB91E4B1B7813B91E4B9B
:105970001B7833B1D5F82801FEF760FC4FF0FF30FB
:1059800038BD1A4A13701A4A13701A4A13701A4A09
:1059900013701A4A13701A4A0329137001DC012983
:1059A0000ED12846FFF78AFF01210024D5F82801EF
:1059B00085F83D1185F83C41FEF726FC204638BDB0
:1059C000022902D1FFF792FFEFE70329EDD1FFF79C
:1059D000A5FFEAE7284600082C4600081146000803
:1059E0001B4600082D460008304600088C3700088A
:1059F0008D370008184600081A4600081C460008A3
:105A00001946000810B5084B044641B91970012128
:105A1000FFF79CFF2046FFF703FE002010BD012288
:105A20001A700321F4E700BFA537000810B5034B37
:105A300003600446FEF7FCF9204610BD90C3061033
:105A400010B50446FFF7F2FF2046402146F078FCEF
:105A5000204610BD38B50D461022002104465BF0EB
:105A600075FAEB681BB15B68294620469847EB68DE
:105A7000E360204638BD000038B5102204460D46CC
:105A800000215BF063FA1CB195E8070084E8070089
:105A9000014BE36038BD00BF9CC306102DE9F04107
:105AA00004468AB0002517461E4607F063FE3946B5
:105AB00004F13C00E56384F8405084F8415045F01F
:105AC00083F904F18C0704F1480008F02BF92A4609
:105AD0004FF4D061384608F0E1FA45F0B5F90146D7
:105AE00004F1E80008F032F9C4F82861304BC4F83A
:105AF000E83001262F4B84F83D6103A906A884F8FD
:105B0000365184F8375184F8385184F8395184F883
:105B10003C5184F83E5184F83F5184F8405184F858
:105B20004151039304950594FFF7A6FF06A920466B
:105B300007F066FE06A8FCF7F7FC84F83B6184F8E2
:105B40003A51C02046F0D2FB4FF010081A4B0646DF
:105B5000424640F8043B29465BF0F8F9294606F135
:105B6000400046F079FD06F1540046F00BFD134B62
:105B7000009330462B464FF40072182149F01AF872
:105B800042462946C4F8886006A85BF0DFF90C4B52
:105B9000069306A90B4B09933046089749F0A0F8E5
:105BA00006A8FCF7C1FC20460AB0BDE8F08100BFA2
:105BB00090C30610095D0010F87F0810A8C30610F6
:105BC000C523001098AE061070B588B00446134B7C
:105BD00001930390002301A904A804F18C0502930A
:105BE000FFF74AFF1021284608F0F8FA064658B198
:105BF00004A9FFF72FFF0A49304608F088FC324617
:105C00000849284608F0AAFB04A8FCF78DFC04F11B
:105C1000E80008F0CBF808B070BD00BFF1540010E8
:105C200039250010CD23001070B5174B00241C70CF
:105C3000164B01221A7000F1E805154B88B0064694
:105C400028461C7008F0B2F8124B049304A9684669
:105C500005940696FFF710FF694604A8FFF7FAFEC1
:105C600007A3D3E9002304A9284608F0BFF804A835
:105C7000FCF75AFC6846FCF757FC08B070BD00BF43
:105C800000904E5A030000001F4600081E46000800
:105C90001D460008C95B001070B5174B01221A7031
:105CA000164B00241C7000F1E805154B88B0064621
:105CB00028461C7008F07AF8124B049304A9684631
:105CC00005940696FFF7D8FE694604A8FFF7C2FEC2
:105CD00007A3D3E9002304A9284608F087F804A8FD
:105CE000FCF722FC6846FCF71FFC08B070BD00BF43
:105CF00000209DB4060000001F4600081E46000854
:105D00001D460008C95B001030B589B0124B0690E3
:105D1000044604A96846002504930595FFF7ACFEE8
:105D2000694604A8FFF796FE00230C4A04A904F173
:105D3000480008F05BF804A8FCF7F6FB6846FCF79F
:105D4000F3FB94F83B3123B1012384F83A3184F812
:105D50003B5109B030BD00BFC752001080841E0007
:105D600070B5174B00241C70164B00F1E8051C7031
:105D7000154B88B00122064628461A7008F016F81E
:105D8000124B049304A9684605940696FFF774FE27
:105D9000694604A8FFF75EFE07A3D3E9002304A920
:105DA000284608F023F804A8FCF7BEFB6846FCF779
:105DB000BBFB08B070BD00BF00A493D6000000007C
:105DC0001F4600081E4600081D460008C95B00105B
:105DD0001B4B1B7870B505460C4693B1194B01223D
:105DE0001A70194B00221A70184B1B782BB9184BDC
:105DF0001B7813B9174B1E7836B1D5F82801FEF77A
:105E00001DFA4FF0FF3070BD4B1E022B0AD9FFF771
:105E100045FD3446D5F8280185F83E41FEF7F4F9F2
:105E2000002070BD012902D1FFF79AFFF2E7022995
:105E300002D1FFF7F9FEEDE7FFF72EFF0324E9E7B4
:105E4000284600082C460008114600081B4600089A
:105E50002D4600083046000890F8353170B50446EC
:105E6000DBB92046FFF7B6FA5E4B1978204681F081
:105E70000101FFF703FB05465B4E3278002A00F074
:105E800087805A4B1B88D9B21B0A072B7ED8DFE8C4
:105E900003F05F7D6B6F769A9EA290F83431042BED
:105EA0002CD006D8012B17D0022B20D04FF0FF3575
:105EB00015E0102B35D0202B3AD0082BF6D14C4BC7
:105EC0001B78012B21D14B4B1B78F3B1D4F828015F
:105ED000BDE87040FEF7B2B9FFF752FB054600235C
:105EE00084F8353184F834316B1CC5D1B9E7424BA5
:105EF00019780131C9B2FFF751FBEFE73F4B197831
:105F000081F00101FFF7AEFBE8E794F83C110131A5
:105F1000C9B22046FFF716FC05462046FFF780FB76
:105F2000DDE790F83E110131C9B2FFF751FFF3E709
:105F30002F4B1B78012B03D12E4B1B78002BC5D187
:105F400094F83D110131C9B22046FFF7FFFCE3E7A9
:105F50002B4B00314FF0010218BF012120461A706F
:105F6000FFF78CFA054611E02046FFF717FBF9E72B
:105F7000003118BF01212046FFF774FBF2E72046ED
:105F8000FFF7E0FB05462046FFF74AFB002333708E
:105F9000C5B9144A1B4B1278DA72174A12781A7371
:105FA000164A12785A73184A12789A73174A127856
:105FB000DA7394F83E211A74154A12785A74154B04
:105FC00001221A7070BD2046FFF7C0FCDAE72046B8
:105FD000FFF7FEFED6E7003118BF01212046FFF78C
:105FE00011FDBFE7284600083246000808460008B1
:105FF000A23700083C460008AE3700081B460008E0
:10600000294600083E4600088C370008A9370008DA
:10601000A53700087C37000810B50446D0F8880082
:1060200010B103685B68984704F1E800FFF7FEFCD5
:1060300004F18C0008F04EF804F14800FDF7F8FE7A
:10604000204607F0BFFB204610BD0000431C70B582
:106050000E4604D13B220E490E4845F09DFB0E4BE7
:106060001B68C0F307429D690E2AC4B2D8BF05EB76
:10607000C215072C04DD40F23131084857F0AEF864
:10608000012000FA04F40EB96C6070BDAC6070BD04
:106090008CC20610C8C20610600E0208E7C20610C5
:1060A00038B500230446154603600371437144F07C
:1060B0009EFEA560204638BD70470000104B1B783F
:1060C00010B50446D3B90F4B1B78032B06D00E4BEB
:1060D0001B781BB10D4B1B78022B09D100212068C6
:1060E000FFF7B4FF0021A068BDE81040FEF7B6BA84
:1060F00001210068FFF7AAFF0121F4E710BD00BFEE
:10610000114600088C37000828460008A43700080C
:1061100038B50446154607F0AAFB0023E36284F86D
:10612000303084F8313004F12C00294644F05FFE11
:1061300000236363014BA363204638BD1F856B3E7C
:1061400010B5044607F0E3FB204610BD0000000038
:1061500010B5D0ED0D7AF5EE407AF1EE10FA2DED96
:10616000028B044690ED0E8A04D1B5EE408AF1EE22
:1061700010FA40D0F4EEC87AF1EE10FA23DD17EEF3
:10618000900A63F0C7F91EA3D3E9002363F062F815
:1061900063F00CFD07EE100ADFED1B7AB5EEC07A56
:1061A000F1EE10FA58BFF0EE477AC4ED0D7A2046B2
:1061B000012107F06CFBBDEC028B616B2046BDE852
:1061C000104007F089BBF2D517EE900A63F0A2F9F0
:1061D0000BA3D3E9002363F03FF863F0E7FC07EE7D
:1061E000900AB4EEE78AF1EE10FA58BFB0EE678A73
:1061F00084ED0D8ADBE7BDEC028B10BDAFF30080B0
:10620000FCA9F1D24D62503F00000000074B1B7803
:10621000012B03D1064B836300207047022B01D171
:10622000044BF8E7032BF7D1034BF4E7A937000839
:106230001F856B3ECDCCCC3E9A99193F124B134A29
:106240001978134B04290BD1124981631978117005
:106250000321197010781B78C01A18BF01207047ED
:10626000012905D10C498163197811700221F0E7E9
:10627000022905D109498163197811700121E8E7E4
:106280000329E7D10649F6E786370008AA37000850
:10629000A9370008CDCCCC3EA470BD3E1F856B3E17
:1062A000EC51383E114B12491A78124B042A0BD18B
:1062B000114A82631A780A7003221A7008781B78D0
:1062C000C01A18BF01207047012A05D10B4A82630A
:1062D0001A780A700222F0E7023A012AEED8084A38
