:020000041000EA
:10000000002000080B0100100D0000006D01001021
:1000100000000000000000000000000000000000E0
:100020000000000000000000000000006901001056
:1000300000000000000000006901001069010010CC
:1000400069010010690100106901001069010010C8
:1000500069010010690100106901001069010010B8
:1000600069010010690100106901001069010010A8
:100070006901001069010010690100106901001098
:100080006901001069010010690100106901001088
:100090006901001069010010690100106901001078
:1000A0006901001069010010690100106901001068
:1000B0006901001069010010690100106901001058
:1000C00010B5064C2378002B07D1054B002B02D02E
:1000D000044800E000BF0123237010BD8C05000818
:1000E000000000000C150010044B10B5002B03D0CD
:1000F0000349044800E000BF10BDC04600000000F6
:10010000900500080C1500107047FFF7FDFF72B650
:100110000F4C104DAC4209DA21686268A368043BB9
:1001200002DBC858D050FAE70C34F3E70A490B4A0F
:100130000020521A02DD043A8850FCDC08480949C4
:100140000860BFF34F8F00F0F1F800F099F9FEE777
:1001500010150010281500108C05000880070008F5
:100160000000000808ED00E0FEE7FEE700B504200F
:100170007146084202D0EFF3098001E0EFF30880F6
:10018000043000F0DBFDFEE710B5002000F042FC7B
:1001900010BD7047F8B5E023524C9B00E2580F2386
:1001A000D0211A40930089001B1958580721084094
:1001B000032860D0042861D0414248414A49404266
:1001C00008404A494018002A67D1B223B1220321CE
:1001D000DB00D200E558A358A6581B0F360F0B4082
:1001E0000E4204D0A258120F0A40012A01D1EA0798
:1001F00001D4032B11D1B0233D4ADB00E658A158AE
:10020000E558C904C90C00F051FFB3039B0B5843D8
:10021000E901C90F013100F049FFE0239B00E358D9
:100220009B069B0FD840334B1860334B1C691969F0
:10023000240A090E013100F039FF304BE1B2186099
:10024000013100F033FF2E4B040018602D4B2E4976
:1002500018602E4BC01800F029FFFA212C4B8900A2
:1002600018702C4BE01800F021FF2B4B18602B4B23
:10027000C0031860F8BD2A490868A4E7C0211F2000
:10028000890059580140112901D0132902D1802039
:10029000000298E7FA20C00195E7013A012ABCD88C
:1002A0000327204A9E58204A99589D58090F2D0F20
:1002B00039403D4204D09D582D0F3D40012D01D1C4
:1002C000F50701D40329A8D19E5899589D587F233A
:1002D00033401F26090A3140584300F0E7FE290C3D
:1002E000314098E70000264000DC0BFF00366E012D
:1002F00084050000C800000800002140CC00000870
:10030000C0000008D400000840420F003F420F0028
:10031000DC000008E7030000D8000008D000000857
:10032000C40000083C060000FC05000010B524488D
:1003300000F0C2F8B022E0213020224CD200A358B5
:1003400089005B005B08A35063588343635080239C
:100350005B04A3501C4B1D4AE250A02204339201BF
:10036000E250FF221A4BE25000F08EFEC022012123
:100370005200A3588B43A350FFF70BFFFFF70AFF70
:10038000B0235B055A78002A02D05B78212B03D179
:100390000022104BDA605A600F4A8021032000F0DF
:1003A000A1FB0E4800F09CF90D4B1B6851331B78E4
:1003B000002B02D00B4800F001FA00F035F910BD17
:1003C0005C120010000026408405000001000200BD
:1003D0008C050000E000234030050008A805000857
:1003E0007C07000828120010024BD86F0323184026
:1003F0007047C0460400214010B500F056F8074988
:10040000074ACB6F1A40074B1343CB6710230649AB
:100410000A681A42FCD000F04CF810BD04002140DC
:10042000FCFF00000100FA058800214070B50F4C68
:10043000060000F03AF8E36F0500DB439B0701D1AB
:10044000FFF7DAFFB0230A4A9B00D650E36F094A50
:1004500009491A40094B1343E36710230A681A42FB
:10046000FCD0280000F025F870BDC04604002140F3
:1004700000002140FCFF0000880021400300FA0535
:1004800010B562B60348FFF7D1FF002000F066FD0B
:10049000FBE7C046002000100230800803D0013086
:1004A0000238FCD1C046C0467047EFF3108072B6E8
:1004B000704780F310887047014B18607047C04642
:1004C0007C0700081D4B98420FD010D840282FD031
:1004D00005D8002830D0102828D019481EE08028E0
:1004E00028D080235B009842F7D1144816E0154BC2
:1004F000984214D008D8A0231B0698421CD0124B57
:100500009842EAD1A0200BE0104B98420AD0104B41
:10051000984209D00F4B9842DFD10F487047A42072
:10052000C003FBE70D48F9E70D48F7E70D48F5E78D
:100530000D48F3E70D48F1E70020EFE70600520011
:10054000FF005200010000F0090000A0040000F0CC
:10055000050000F0030000F001005200020052000C
:10056000030052000100500002005000050052003C
:1005700070B50A4D04002B6831331B78834204D8D0
:10058000E9210748490000F0C9FB2B681A00B03286
:1005900010884443186A201870BDC0467C070008C4
:1005A0001413001010B50020FFF7E2FF0A4B1C687F
:1005B0002300B4331B68C0180368002B0ADB074B09
:1005C0001868FFF77FFF012263689A609A68002A23
:1005D000FCD110BD0248FCE77C0700082807000892
:1005E000020050000D4B10B51860002804D0FE2307
:1005F0005B42038000234380094B1B681A00503282
:100600001278002A08D051331B78002B04D0022224
:100610000449002000F070F910BDC04638070008FA
:100620007C0700084D01000810B50248FFF7DAFF0B
:1006300010BDC046400500080B4B70B51B68050097
:10064000B4331B680C00C3181B68002B0ADA0B0CB0
:1006500004D0B9210548890000F060FB0020A4B255
:100660006C6070BD0248FCE77C07000814130010A2
:1006700001008A00036870B505000C00002B0ADA3F
:10068000C2600B0C03D00549054800F047FB002071
:10069000A4B2AC6070BD0348FCE7C046CA020000CB
:1006A0001413001001008A0070B505000C1E03D160
:1006B000A321084800F032FB074B1B68B4331B68CA
:1006C000EB181B68002B03DA0020EB68236070BD79
:1006D0000248FCE77A1300107C07000801008A003A
:1006E000024B1A68002A00D1186070473C070008C6
:1006F000F7B52C4D1F002B68040000910192002BD0
:1007000003D1BF21284800F009FB2C23FF225C43C2
:100710002B683D001C193B0A3F0CA760234F134078
:1007200063603B681540256031331B789D4204D3DC
:10073000E9211F48490000F0F1FA3B681A00B03285
:10074000128855431A6A3233AD1825611B786568E3
:100750009D4204D3F7211648490000F0DFFA3B68B8
:1007600080351B6A6D01A668ED186561330C08D0F1
:100770000F4F1049380000F0D1FA0F49380000F04F
:10078000CDFA33041A0C1343AB60019BE361009B69
:1007900023620023A361089B002B01D01B88A38147
:1007A000F7BDC0463C070008DF1300107C070008B7
:1007B000141300100D0200000E020000F0B504003A
:1007C00085B0002803D15C21214800F0A7FA6368B6
:1007D000032B03D95E211E4800F0A0FAE36A002B28
:1007E00003D162211A4800F099FA236B002B03D140
:1007F0006321174800F092FAA36802AD2B80154BD5
:1008000022681B68E16ADB8EE0689B186B80636876
:10081000A26A039300952369266A676AFFF768FF57
:1008200000213B000A0000913000FFF761FF216BBF
:10083000280000F01FFA0022AB5E002B06DB1F220F
:1008400013401E3A9A401300034A136005B0F0BDEE
:10085000DF1300107C07000800E100E0F7B504009A
:100860000F00151E019304D108211D48FF3100F02F
:1008700055FA1C4E3368002B04D1842118484900D6
:1008800000F04CFA2C235C4332685F43141926694C
:10089000D719002E1FD0BB69002B1ED13368002B47
:1008A0001BDA01226368140011009C407B689940A8
:1008B0002B6809049BB20B432B60019BF5607B62A4
:1008C000BA61230C03D00849084800F027FA002039
:1008D000A4B2B460FEBD0648FCE70648FAE7C0468D
:1008E000DF1300103C070008CA02000014130010B8
:1008F00004028A0007028A00F8B5114F04003B6821
:100900000E001500002B04D1B4210E48490000F060
:1009100005FA2C2060433C682418236A002B04D17C
:10092000B6210848490000F0F9F9E369AB4204D95F
:100930000020236AAD00EE50F8BD0348FCE7C04636
:100940003C070008DF1300100A028A00002373B579
:1009500004000193984204D1DC212C48FF3100F0BF
:10096000DDF92369002B04D1EE212848490000F06D
:10097000D5F96369002B04D1DE212448FF3100F052
:10098000CDF9236A002B04D1EF212048490000F063
:10099000C5F96269D5682B0C22D01B04136013685B
:1009A0001B4B20691B68B4331B68C3181B68002BE2
:1009B00016DA01A9FFF778FE0026B0420CD10198A3
:1009C000E26903681E0CDBB29A4205D9226A9B00D9
:1009D0009B58002B00D0984731002069FFF72CFE70
:1009E000ADB2002D09D063691D6000251B68636AE4
:1009F000AB4205D098476562A56163691B6873BD0A
:100A0000A36A002BF8D09847F6E7C046DF13001022
:100A10007C07000870B5084C05002368002B04D142
:100A2000BC210648FF3100F079F92C2045432068AD
:100A30004019FFF78BFF70BD3C070008DF13001063
:100A400070B50A4D04002B6831331B78834204D8FB
:100A5000E9210748490000F061F92B681A00B0321B
:100A600010884443186A201870BDC0467C070008EF
:100A700014130010F8B5174B0D001B6831331B78A9
:100A8000834225D9002923D01F240B681C401FD185
:100A9000FFF7D6FF07002B680F4EDA082100306001
:100AA000686800F08FFB21003800FFF7C5FD2100CA
:100AB0002A003068FFF7DEFD041E07D10100306810
:100AC000FFF7BAFD03002000002B00D00348F8BD5B
:100AD0000348FCE77C0700084007000801018A0082
:100AE00003018A0010B50C00002A07D100290DD19E
:100AF000FFF7A6FF064B1860200010BD002905D0A7
:100B000004490C604A60FFF7B5FFF6E70248F4E7D6
:100B1000400700084405000803018A00F7B5184F94
:100B200004003B680191DE683368834226D90025C2
:100B3000A94202D1FFF7B9FC050038680368002B11
:100B40001ADA1F2201232240934064097268A4002C
:100B50001419226813420DD09A4322600024002108
:100B6000FFF76AFD019B002B02D12800FFF7A1FCD3
:100B70002000FEBD034CF2E7034CF3E7034CF7E71C
:100B800040070008020188000301880004018A0070
:100B90000A4B1B68DB681A6882420DD959681F230B
:100BA000420918401E3B8340920050581840431E93
:100BB0009841034BC01870470248FCE74007000803
:100BC0000001880004018A0070B5194E05003368E1
:100BD0000C001A0028321278012A15D18208072148
:100BE000100088430FD103202840C00084401B68B8
:100BF000920020339B182200FF24844019684A4049
:100C000014404C401C6070BD5B8F8B4203D180212F
:100C1000084800F083F8336807201A6880232840CA
:100C20001B06184380239B01E418A400A050EAE7A8
:100C30007C070008451400100A4B70B59B680A4EEB
:100C400010300D008400B34209D1002904D14221A3
:100C50000648FF3100F062F83059355170BD044B41
:100C60001859FBE700ED00E00000000845140010F3
:100C700000000010F8B506000D00002841D04368C0
:100C8000032B03D93C21204800F048F80023F05EF4
:100C9000002828DB7188FFF797FF0024FF22032735
:100CA00094460023F05E716883B21F40FF006646E1
:100CB000BA4089013140D243B940002815DB134EB8
:100CC00083089B009B19C026B6009F593A401143E8
:100CD00099510F4B9A680F4B9A4202D12900FFF7A6
:100CE000ABFF2000F8BD0C4CD8E70F263340083B83
:100CF000074E9B089B009B19DE6932401143D96166
:100D0000E7E7054CEDE7C0464514001000E100E0C0
:100D100000ED00E0000000080100560070B50D0075
:100D2000044C01001822200000F054FAA56101BE15
:100D3000FEE7C04650050008FEE7000002680A4BC7
:100D400010B5DA6142681A6282685A62C2689A62B1
:100D50000269DA6242691A6382695A63C2699A63F4
:100D6000FFF7EAFF10BDC04650050008B0235B0541
:100D70005A782120002A01D05878C0B27047B02399
:100D80005B059A89002A02D0988980B2704780203A
:100D90004000FBE710B5074C236831331B78002B6C
:100DA00004D1E92104484900FFF7B8FF2368186A15
:100DB00010BDC0467C0700081413001030B50400B5
:100DC00085B00D00042803D927492848FFF7A6FF5E
:100DD0006B1E012B07D9FB222B1F134203D0244982
:100DE0002248FFF79BFF234BA400E458042D01D0B9
:100DF000012D1AD100200FE0A3682B420BD1E3682C
:100E000029001A685B6802920193039302A8236881
:100E10009847194B1C606469002C04D0174B98420A
:100E2000EAD1012DE8D105B030BD022D06D1124B1B
:100E30001B68181EF7D01C6903E01C006369002BB7
:100E4000FBD10020002CEED0A3682B4209D1E3682F
:100E500029001A685B6802920193039302A8236831
:100E600098472469EEE7C046E6090000A91400107F
:100E7000E70900006807000864070008FF00420057
:100E800010B5041E03D111491148FFF747FFF222A4
:100E9000104BD2011B68DB689A582260F022D20105
:100EA0009A5862600C4A9A58A2600C4A9A58E260BA
:100EB0000B4A9A5822610B4A9A5862610A4A9A5818
:100EC000A2610A4A9B58E36110BDC046D50A0000E2
:100ED000A91400107C0700080478000008780000BE
:100EE0000C780000107800001478000018780000DA
:100EF00010B5041E03D110491048FFF70FFFF02270
:100F00000F4B61681B68D201DB689950A1680D4ADC
:100F10009950E1680C4A995021690C4A99506169CD
:100F20000B4A9950A1690B4A9950E1690A4A9950B4
:100F30002168E832995010BDFD0A0000A914001084
:100F40007C07000804780000087800000C78000096
:100F5000107800001478000018780000F7B507003A
:100F6000012803D940494148FFF7D8FE404D6B683E
:100F7000002B4AD1FFF799FA6B680190002B56D1EC
:100F80003C4E33681A0043321278002A07D09B681F
:100F9000E0331B68DB0602D53748FFF771FFFFF728
:100FA000EEFE80235B00984246D1380000F034F911
:100FB000002433681A0043321278002A17D0002820
:100FC00015D09B68E0331B68DB0610D5FFF7CEFE1B
:100FD000294B212808D032681300B0331988072321
:100FE0004B43126A9B18DB681800FFF781FF0198DA
:100FF000FFF75FFA002C0ED16B68002B03D008219D
:101000000120FFF7DBFE2000FEBD01210800FFF7F5
:10101000D5FE041EAED06B68002B03D00221012048
:10102000FFF7CCFE154B9C42EDD0154CEBE70421AD
:101030000120FFF7C3FEA3E7FFF7ACFE3368B4332C
:101040001B68C0180368002B0BDB04230D4A1169D1
:101050000B431361012F02D030BF0020A8E720BF4F
:10106000FBE70020054CA4E7AF020000A914001024
:10107000680700087C0700084407000805004200D4
:10108000FF00420000ED00E0C0228020064952002F
:101090008B58C0059B009B0803438B5080238858C6
:1010A0001B0603438B507047000026400022430874
:1010B0008B4274D303098B425FD3030A8B4244D320
:1010C000030B8B4228D3030C8B420DD3FF22090262
:1010D00012BA030C8B4202D31212090265D0030B21
:1010E0008B4219D300E0090AC30B8B4201D3CB0317
:1010F000C01A5241830B8B4201D38B03C01A524159
:10110000430B8B4201D34B03C01A5241030B8B425A
:1011100001D30B03C01A5241C30A8B4201D3CB0245
:10112000C01A5241830A8B4201D38B02C01A52412A
:10113000430A8B4201D34B02C01A5241030A8B422D
:1011400001D30B02C01A5241CDD2C3098B4201D345
:10115000CB01C01A524183098B4201D38B01C01AC3
:10116000524143098B4201D34B01C01A524103093A
:101170008B4201D30B01C01A5241C3088B4201D3E9
:10118000CB00C01A524183088B4201D38B00C01A96
:10119000524143088B4201D34B00C01A5241411ABD
:1011A00000D20146524110467047FFE701B50020CA
:1011B00000F006F802BDC0460029F7D076E7704778
:1011C0007047C04603001218934200D1704719704F
:1011D0000133F9E730B50500002A00D130BD0C78A5
:1011E000013A6B1C2C700131002C05D19A189A42DF
:1011F000F4D01C700133FAE71D00EDE7F8B5C046E6
:10120000F8BC08BC9E467047F8B5C046F8BC08BCA0
:101210009E4670470000000001B40248844601BCAD
:10122000604700BFA90200080300000001000000A1
:101230000100000000000000050360000400000041
:101240000100000000000000010000000604600032
:101250000800000008070008890100100000214074
:101260000000254000000140000034400000244000
:10127000000031400000324000001F4100002340C8
:1012800000001140010101010101010101101010D4
:10129000800019005500F0000501053B04101C01F9
:1012A000010000000FC00000000400000101010166
:1012B000011D3A577896000820001012080000001F
:1012C000001F00000010000F002000023F06080E63
:1012D00000080009000A000B24282C30340000000C
:1012E00010000000900000008800000008000000CE
:1012F0008000000004F0000000F000004002000048
:101300002005A000D00100018001A0012000000004
:1013100010000000433A2F55736572732F6F687584
:10132000642F4D6F647573546F6F6C626F785F32AA
:101330002E302F6C69627261726965732F70736FE2
:10134000633673772D312E322F636F6D706F6E653C
:101350006E74732F70736F633670646C2F64726970
:10136000766572732F696E636C7564652F63795F40
:101370006970635F6472762E6800433A2F55736517
:1013800072732F6F6875642F4D6F647573546F6F30
:101390006C626F785F322E302F6C69627261726995
:1013A00065732F70736F633673772D312E322F6311
:1013B0006F6D706F6E656E74732F70736F633670C0
:1013C000646C2F647269766572732F736F757263C4
:1013D000652F63795F6970635F6472762E63004383
:1013E0003A2F55736572732F6F6875642F4D6F6454
:1013F0007573546F6F6C626F785F322E302F6C692B
:10140000627261726965732F70736F633673772DC3
:10141000312E322F636F6D706F6E656E74732F7027
:10142000736F633670646C2F647269766572732FA4
:10143000736F757263652F63795F6970635F70693D
:1014400070652E6300433A2F55736572732F6F6872
:1014500075642F4D6F647573546F6F6C626F785F36
:10146000322E302F6C69627261726965732F7073EE
:101470006F633673772D312E322F636F6D706F6E01
:10148000656E74732F70736F633670646C2F647243
:1014900069766572732F736F757263652F63795FF9
:1014A000737973696E742E6300433A2F55736572B6
:1014B000732F6F6875642F4D6F647573546F6F6C05
:1014C000626F785F322E302F6C696272617269656B
:1014D000732F70736F633673772D312E322F636FD6
:1014E0006D706F6E656E74732F70736F633670649A
:1014F0006C2F647269766572732F736F7572636592
:101500002F63795F737973706D2E630000000000A4
:101510000000001000000008C0000000301500109E
:10152000C0000008700400008C050008F4010000F1
:1015300000093D000048E80100127A0000093D0062
:101540000000D00700093D00A00F000004000000CB
:10155000E9000010C100001080B230B5C00020D0FA
:10156000104B07221C682300B0331B885A43236AA0
:10157000D31819680029FCDA3E210B4B06251960A7
:101580000A4B0B491960A3210A4BC9005D500A4957
:1015900058505858206A1218002050605A58002A93
:1015A000FCDA30BD7C070008040126400801264013
:1015B0001E1F0000000026401C05000010B54378E7
:1015C000FF2B11D100F0B4F90400032000F0A8F9BA
:1015D000C3685A68012311681943116011681942E0
:1015E000FCD1200000F0BCF910BDF7B50090002040
:1015F000019100F095F93F4D06002B681A00503319
:10160000B43214681B780419002B5AD000F078F912
:10161000070003281BD000F08BF9374A374B050031
:10162000D358002B3EDA364A0121300000F0A8F9E9
:10163000002837D10198FFF78FFF009B002B3ED089
:101640002368002BFCDB00F063F904002BE006208C
:1016500000F066F92B68B4331B68C0180368002BD0
:1016600002DA284C2000FEBD002000F071F9264B64
:101670009842F6D00023254A19001268012000F094
:1016800077F90025A842ECD1002000F061F91E4A4C
:101690001F4B904203D09D42E3D00135F4E79D42B9
:1016A000B9D1DEE7174C032F05D10121002000F04E
:1016B0006FF90028F9D1280000F052F9D2E7154C53
:1016C000F1E700F035F90E4A05000121300000F085
:1016D00057F9002809D1009B002B08D02368002B64
:1016E000FCDB00F015F90400E5E7064CE3E7094CE4
:1016F000E1E7C0467C070008000026401C0500000A
:10170000280700080500520001018800380700087A
:10171000F049020001005000F7B56E4D04002A6840
:10172000536800931300B033198807234B43126AA0
:101730009B181A68002AFCDA00F002F92A681300E4
:10174000B033198807234B43212800D096E0116A53
:101750005B180221D8680143D960D968C9072FD521
:1017600008208446944460461600D968C06F0191F1
:101770001168883608183568076849190D683902F4
:10178000FF273F040F40694689882D0A2D063943FB
:101790002943D960902103684F4D09012B400B4329
:1017A0000360136830681B181868054029431960E6
:1017B00013686246D26F9A18126832689B181B68C9
:1017C000444D2A681300B033198807234B43126A2B
:1017D0009B1800225A600423404A11690B4313618D
:1017E000012C50D030BF2A681300B033198807236A
:1017F0004B43126A9B181A68002AFCDA00F0A0F822
:10180000212842D1296807220B000124B0331B880C
:1018100000205A430B6AD318DD6825421CD008000B
:1018200008300D68C06F2C4E28180568DB683540FD
:101830001B0C1B061B0C2B4303600B008833186822
:101840000B6818180B6A0568D318DB682E401B0E4E
:101850001B023343036020000B6A0221D218D368B5
:101860008B43D3601B4B1A681300B03319880723CE
:101870004B43126A9B1800225A60FEBD126A9B18E5
:10188000174ADA609CE720BFADE70020009BFC33DD
:101890001B698342E6D1A320124B1349134A144F0C
:1018A000C0000E681D5814680F6006271F503E20A8
:1018B000106010483E371F501F58002FFCDA009868
:1018C0000D4FFC3007610E60A321C9005D5001205F
:1018D0001460C7E77C070008FF00FFFF00ED00E091
:1018E0004407000800002640080126400401264065
:1018F0001E1F00001C050000AAAAAAAA00000000E2
:1019000001B40248844601BC604700BFE9030010EF
:1019100001B40248844601BC604700BFA505001021
:1019200001B40248844601BC604700BF7105001045
:1019300001B40248844601BC604700BFAB040010FC
:1019400001B40248844601BC604700BF6D0D001021
:1019500001B40248844601BC604700BF910B0010EF
:1019600001B40248844601BC604700BFB3040010C4
:1019700001B40248844601BC604700BF5D08001006
:1019800001B40248844601BC604700BF75060010E0
:1019900001B40248844601BC604700BF1D0B001023
:1019A0000000000000000000000000000000000037
:1019B0000000000000000000000000000000000027
:1019C0000000000000000000000000000000000017
:1019D0000000000000000000000000000000000007
:1019E00000000000000000000000000000000000F7
:1019F00000000000000000000000000000000000E7
:10200000007804084F6800100D000000B132001085
:10201000B7320010BD320010C332001000000000C3
:102020000000000000000000000000000544001057
:10203000AD680010000000009D440010AD44001089
:10204000AD680010AD680010AD680010AD680010FC
:10205000AD680010AD680010AD680010AD680010EC
:10206000AD680010AD680010AD680010AD680010DC
:10207000AD680010AD680010AD680010AD680010CC
:10228000AD680010AD680010AD680010044B054843
:102290001B1A062B02D9044B03B11847704700BF25
:1022A00023330008203300080000000005490648D9
:1022B000091A891001EBD171491002D0034B03B107
:1022C0001847704720330008203300080000000042
:1022D00010B5064C237843B9FFF7D8FF044B13B170
:1022E0000448AFF300800123237010BDC8330008F9
:1022F000000000004849011008B5084B1BB108490F
:102300000848AFF300800848036813B9BDE80840E7
:10231000CCE7064B002BF9D09847F7E70000000008
:10232000CC33000848490110842E0008000000004A
:10233000134B002B08BF114B9D46A3F5803A00219B
:102340008B460F461148124A121A0AF077FE0D4BBF
:10235000002B00D098470C4B002B00D09847002052
:10236000002104000D000B4801F07CFC0AF0C0F9CC
:102370002000290001F02EFF01F008FE00000800F7
:10238000007804080000000031410010C833000844
:10239000B854000899C0001083B500230321684693
:1023A00000938DF804308DF8053000F0B9FC284E0C
:1023B000284F294D30460AF0C3FE009C621C04D110
:1023C00046222649264801F03BF9C4F307483A68FB
:1023D000B8F10E0FD4BF9269D2F81880E4B2D8BF1A
:1023E00002EBC818082C04DD40F21331284608F02F
:1023F00035FED8F81030E340009C03F00109631C5F
:1024000001D13B22DDE7C4F307483B68B8F10E0F6A
:10241000D4BF9A69D3F81880E4B2D8BF02EBC818C9
:10242000072C04DD40F23131284608F017FE012365
:1024300003FA04F4B9F1000F06D0C8F804404FF4D1
:10244000FA7003F0DFFBB5E7C8F80840F7E700BF14
:10245000801D0110B0540008E21D0110871D0110FD
:10246000C31D0110C36810B504460BB19B689847A3
:10247000204610BD38B50546064B45F8283B0446B6
:1024800000F0C8F82846FFF7EDFF204600F06AF993
:10249000204638BD801E011010B50446FFF7EAFF44
:1024A0002046402101F0A8FD204610BDF8B50546A4
:1024B000074655F8044B94B90D4E306818B14FF0EB
:1024C000FF3102F011FE3C682CB915B1284601F02D
:1024D000EDFD3D602C46306808B102F01DFEAC42B7
:1024E00004D08B220349044801F0AAF82046F8BD25
:1024F00020420008331E0110551E011008B5282087
:1025000001F068FD4FF0FF31031F00F1240243F892
:10251000041F9342FBD1014B186008BDE43300084F
:1025200038B50D461022002104460AF087FDEB68FD
:102530001BB15B68294620469847EB68E36020465C
:1025400038BD884238B504460D4606D0FFF78AFFED
:102550001CB129462046FFF7E3FF204638BD6FF047
:102560001500704703681B69184703689B69184783
:1025700003689B6A184700290CBF6FF01800002001
:102580007047012070476FF0150070476FF015001D
:102590007047704770B5D0E90823D0E90245064678
:1025A00012196B4100F0CEF8736B2BB106F12800C5
:1025B0001B68BDE87040184770BD000010B50446A8
:1025C00000F0A8F82046064B40F8283B10220021D6
:1025D0000AF034FD012384F83830204610BD00BFD6
:1025E000801E0110D0B5044616461F4601F0DAF8E9
:1025F000204600F0B1F8C4E90867A06900F020FEA9
:10260000321847EB0103204600F09CF8BDE8D040AB
:1026100001F0DEB81FB5044601F0C4F8204600F012
:102620009BF8636B13B194F8383083B91022002102
:1026300068460AF003FD694604F12800FFF781FFB0
:102640006846FFF70FFF01F0C3F804B010BD01F0BA
:1026500023FAEBE7F8B504461F460D46164601F08F
:10266000A1F8636B13B994F838306BB9294604F1BB
:102670002800FFF766FF32463B462046FFF7B2FFD1
:10268000BDE8F84001F0A4B801F0ECF9EEE7000075
:1026900010B5034B03600446FFF7ECFE204610BD67
:1026A000B81E011010B50446FFF7F2FF2046402186
:1026B00001F0A2FC204610BD30B5044685B000F103
:1026C00028051022002168460AF0B8FC636B1BB194
:1026D0005B68294668469847636B03932046FFF77B
:1026E00099FF039B2BB94FF40F720649064800F07F
:1026F000A7FF1B68684698476846FFF7B3FE05B01A
:1027000030BD00BF8C1E0110AA1E011003689B681B
:1027100018470000094B10B5002203600023C0E9F0
:102720000223002303614361044600F0B1FD044924
:10273000A06100F0FBFC204610BD00BFCC1E0110C4
:102740000D27001007B5009000F10801806900F026
:102750002CFD03B05DF804FB00F10801806900F076
:1027600054BD000010B5034B03600446FFF7F4FFAF
:10277000204610BDCC1E0110036801221B690021F8
:102780001847036800221B691146184730B54FF4FB
:102790007A7440F271256143B1FBF5F189B20329E6
:1027A00083809DF80C30837198BF0423018098BF0B
:1027B00003800388B3F5804F88BF4FF4804304FB48
:1027C00002F2B2FBF5F292B288BF0380032A98BFEF
:1027D0000423428098BF43804388B3F5804F84BF71
:1027E0004FF48043438030BD03680BB1084618475F
:1027F00070470000044B00221A605A609A601A6108
:10280000024ADA60704700BFE8330008E927001089
:102810000346002210B503F8012B00F1110403F860
:10282000012BA342FBD1418210BD000008B542F646
:1028300002110248FFF7ECFF08BD00BFFC3300089F
:1028400007B500234FF48042009311460248FFF77A
:102850009DFF03B05DF804FB10340008034610B17F
:1028600007C983E8070070477047426881680368BA
:1028700012F0010F4FEA62021CBF8858C358881833
:10288000184738B504460D4600F08CFF94F85730D1
:102890002BB994F8563013B994F854308BB104F135
:1028A0000800FFF7B7FE002384F8553084F856304F
:1028B00084F857300DB12046A847BDE8384000F0F5
:1028C00087BFA36CDB689847F7E710B5044600F0B4
:1028D00069FFA36C9B689847BDE8104000F078BF83
:1028E00010B5044600F05EFFA36CDB689847BDE8B6
:1028F000104000F06DBF10B5044600F053FF0123F7
:1029000084F85730A36C5B699847BDE8104000F02D
:102910005FBF10B5044600F045FFA36CDB69984724
:10292000044600F055FF204610BD000038B50446AF
:1029300000F035FF20B9C2221749184800F080FE88
:1029400004F10800FFF766FE002384F8553084F890
:10295000563084F85730E36523666366A36C012222
:1029600084F85820DB69984742681F2A05460BD92E
:102970004FF0FF33A3662A6802F5742303F23F2366
:10298000B3FBF2F3E36638BD012000210EF0C2FB79
:102990000138A066EFE700BFE41E01100C1F011014
:1029A00010B5044600F0FEFE2046FFF7BFFFA36C03
:1029B0001B689847BDE8104000F00ABF10B50446F8
:1029C00000F0F0FE2046FFF7B1FFA36C9B6998472B
:1029D000BDE8104000F0FCBEF8B504460E460830D5
:1029E00017461D46FFF7EAFD0B4BA3603368A3644F
:1029F000069B013323650135002384F85430E564D8
:102A000000F0D0FE7368636020462760FFF78EFFFA
:102A100000F0DEFE2046F8BDB81E011038B50446B1
:102A20000D4600F0BCFE20B9F0220949094800F02B
:102A300007FE94F8560050B1236EE26D934206D023
:102A40002946184600F064FA003018BF012038BD4E
:102A5000E41E01100C1F011038B5044600F0A2FE60
:102A6000A36C5B68984794F8543005463BB901461F
:102A70002046FFF7D3FF10B1A36C5B69984700F0C5
:102A8000A7FE284638BD000038B505460C4600F0C4
:102A900086FE20B9FC220449044800F0D1FDE86E0E
:102AA0006043043038BD00BFE41E01100C1F01104C
:102AB000F0B585B004460D4600F071FE28B94FF41C
:102AC00082723349334800F0BBFD94F85830A16E50
:102AD00043B9636EE26CEB1A0B40934224BF0123AF
:102AE00084F85830E06D94F85830276D451B0D4040
:102AF00013BB94F85560002E33D13146102268463E
:102B00000AF09CFA244B0093BD42244B02942946C0
:102B1000039328BF39462046FFF7B6FF002302463D
:102B2000694604F10800FFF795FD6846FFF79AFC37
:102B3000012384F8553014E0BD4227D3A36C1B69F0
:102B40009847A36C5B689847002384F85830E36D7E
:102B50006066181AA36E1840854204D2A36C5B69A4
:102B6000984705B0F0BD236D9842FAD2256D854295
:102B700028BF05460021102268460AF05FFA064B7E
:102B80000093064B029403932946C4E72846EDE7D9
:102B9000E41E01100C1F0110E52B0010D81E0110BF
:102BA00038B504460D4600F0FDFDA36C5B68984700
:102BB000012384F8563094F8543020660146E565C8
:102BC00033B92046FFF774FFBDE8384000F000BE7F
:102BD000A36C28461B699847236E6366002384F81C
:102BE0005830F1E738B5044600F0DCFD002384F8E6
:102BF0005530A36C5B689847E26D0546206E9042A5
:102C00000BD0294600F084F938B929462046FFF751
:102C10004FFFBDE8384000F0DBBDA36C5B6998470F
:102C2000F7E70000EFF31083DB4372B6044A117834
:102C300029B9044903F001030B7001231370704795
:102C4000193400081834000808B5EFF31083DB07C7
:102C500004D436220549064800F0F2FC054B002258
:102C60001A70054B1B7803B162B608BD2C1F01100A
:102C7000561F01101934000818340008014B187849
:102C8000704700BF193400080C4B1B6870B5C0F3C7
:102C900007429D690E2AC4B2D8BF05EBC215072CA6
:102CA0000E4604DD40F23131054808F0D7F9012322
:102CB000A3400EB96B6070BDAB6070BDB05400082E
:102CC000E21D011038B504460068431C0D4604D1CE
:102CD0003B220949094800F0B3FC111C18BF01212F
:102CE000FFF7D2FF2046012103F0B7FF2946204617
:102CF000BDE8384003F0AEBF871D0110C31D0110B1
:102D000070B50E460446154603F086FF013606D020
:102D10002A4620460621BDE87040FFF7D3BF70BDAC
:102D20000022FFF7EDBF0000014800F051B800BFDE
:102D3000701F0110014B186800F034B89022000891
:102D4000014B1868FFF7E5BD60340008014B1868B7
:102D5000FFF734BE60340008014B1868FFF7CBBDA5
:102D600060340008024B01461868FFF719BF00BF26
:102D700060340008014B1868FFF7B2BD60340008EA
:102D8000014B1868FFF7A1BD60340008014B1868BB
:102D9000FFF762BE60340008014B1868FFF700BE01
:102DA0006034000810B5044600F0FCFC064B1B78AC
:102DB0000BB9FFF7B9FF054B21461868FFF761FD16
:102DC000BDE8104000F004BDD834000860340008AD
:102DD000F7B50B4D0B4C074600F0E4FC2B7853B9CC
:102DE000094E0A4A0323009339463046FFF7F4FDA3
:102DF000012326602B7000F0EBFC206803B0F0BDCF
:102E0000D834000860340008683400089C1F0110A2
:102E10002DE9F74FD0F804A09AF83A300446002B79
:102E200046D103685B68984763681B6A98423FD045
:102E3000DAF82030DAF80840CAF82000A0EB0308DE
:102E4000DAF80C30314808EA0308844246464FF06D
:102E5000000727D0DAE90A239AF83BB0A8FB0089DB
:102E6000CDE900230025BBF1000F2BD05A46404688
:102E700049460EF043F9DDE9002312EB080243EB6B
:102E8000090390465A46994606460F460EF042F907
:102E9000B8EB000069EB0101A94208BFA0420AD2C9
:102EA000CAE90A01DAE90C23B6185F41CAE90C67DE
:102EB00003B0BDE8F08F013647F10007001B61EB5E
:102EC0000501EDE722462B46404649460EF0BEFD81
:102ED000224606460F46404649462B460EF0B6FDB2
:102EE000DDE9008918EB020849EB0309A94508BF91
:102EF000A04502D2CAE90A89D4E7013647F10007A2
:102F0000B8EB040869EB0509F4E700BF40420F0085
:102F1000824206D98A420BD9884294BF0020012000
:102F20007047884206D98A428CBF00200120704732
:102F300001207047002070472DE9F14F476897F84E
:102F40003A300646002B60D197F83930002B5CD11F
:102F5000FFF75EFF75686B68002B59D0D5E90C89C7
:102F6000D3E90001894508BF804505D333685B6913
:102F700001B0BDE8F04F1847D5E90623B0EB0808CB
:102F800061EB09094B4508BF42452C6906D3AB6884
:102F9000254A93420FD1444528BF44462A6A3B6ADA
:102FA0001444EA681440A34221D14FF484721F49AB
:102FB0001F4800F045FB95F83B20DFF878A04FF064
:102FC000000B7AB1404649460EF0A4F810EB0A0017
:102FD00041EB0B01144A00230EF038FD844228BF58
:102FE0000446DBE7A3FB080103FB0911EEE73368A6
:102FF00020461B69984733685B689847224601461C
:10300000386AFFF785FF0028B0D101B0BDE8F08F26
:103010003B69386AFA68184433681B69104001B08C
:10302000BDE8F04F184700BF40420F00C01F01101D
:10303000E01F01103F420F002DE9F04F436893F865
:10304000382085B00546002A66D193F83A30002B27
:1030500062D103681B6898472B68DB69984707684B
:1030600027B92D222E492F4800F0EAFA1F2301220A
:1030700002FA03F18F425FFA83FB02D0013BF7D1E2
:103080009B46D0F804A0AAF104031C2B01D93B22D3
:10309000E8E7072617F1FF3006FA03F6224C4FF057
:1030A000000343F1FF313A46C4FB06010EF0CEFCAB
:1030B0006C682A6800232360636052680393CDE93B
:1030C0000001904720626C684FF000084FF0000943
:1030D0005246C4E90A89A76084F83BB00120002168
:1030E0000EF018F8DDE90023C4E90623039B84F8F9
:1030F000393084F83A3001380123E06026612846EF
:10310000C4E90C8984F83830FFF782FE284605B000
:10311000BDE8F04FFFF710BF05B0BDE8F08F00BF6E
:10312000C01F01107725011040420F0038B5054639
:103130000C46FFF781FF00F035FB6B681C60BDE8B3
:10314000384000F045BB70B5044600F02BFB236807
:10315000DB689847636893F83A201AB1BDE870407D
:1031600000F036BB012283F8392063685B68A3B1A5
:103170002046FFF74DFE65686E68D5E90C01D6E97B
:103180000023994208BF904207D3F3686B602B6815
:10319000002BEAD0B0689847E7E76368002283F81D
:1031A00039202046FFF7C8FED8E72DE9F843054649
:1031B0000C4616461F46DDF8208000F0F3FA28463C
:1031C000FFF726FE6A68C4F80880C4E90067536800
:1031D000002133B9E36069B954602846FFF7ACFEBB
:1031E0000FE0D3E900894F4508BF4645F2D31946A1
:1031F000DB68EEE7D2E90C23BB4208BFB242CC60E9
:10320000EBD2BDE8F84300F0E3BA38B505460C460A
:1032100000F0C8FA6A685368A34209D1DB685360BA
:103220002846FFF789FEBDE8384000F0D1BA1346C2
:10323000002BF8D0DA689442F9D1E268DA60F2E75C
:1032400038B50446FFF7F8FE00F0ACFA2046FFF769
:10325000DFFD6368D3E90C4500F0BAFA2046294641
:1032600038BD08B5FFF7ECFF08BD0000024B002297
:103270001A7003F07BBF00BFC841000808B503F017
:10328000B3FE024B01221A7008BD00BFC8410008FE
:103290000048704704200110024B1B680BB1024824
:1032A000184770479422000804200110002070473E
:1032B000102300F009B8202300F006B8302300F0F6
:1032C00003B8402300F000B8EFF3088004217246F1
:1032D0000A4201D0EFF309809C46254B1968026829
:1032E0000A60043142680A60043182680A6004316D
:1032F000C2680A600431F0C147460F6004314F468E
:103300000F60043157460F6004315F460F6004318F
:1033100002690A60083142690A60043182690A6000
:103320000431C2690A600431034620334FF4007649
:10333000324200D0043375461026354200D148335E
:103340000C46103C2360EFF309820A600431EFF36E
:1033500008820A60043172460A600431EFF3148275
:103360000A606046024B196800F07AF8FEE7000038
:1033700030200110F0B52C4C2C4F85B0002526468E
:1033800054F8252029463846013500F0EFF90D2D77
:10339000F6D1A36C0293636C0193236C009304F148
:1033A0003401234C23480EC900F0E0F9216822487B
:1033B00000F0DCF9E16AA26AA36AA06A256BE76BF8
:1033C0000297000C01950090C3F30723D2B21B486B
:1033D00000F0CCF9A36A1D0603D5616B184800F014
:1033E000C5F9A36A180403D5A16B164800F0BEF90D
:1033F000F36C190712D5144800F0B8F9336DDA07E9
:103400000FD5124800F0B2F9F36C5B074CBF1048BF
:10341000104805B0BDE8F04000F0A8B90E4800F033
:10342000A5F90E48EEE700BFCC410008C42001100A
:1034300000ED00E0D2200110212101102F21011008
:103440007E2101108C2101109A210110A921011067
:10345000D9210110E5210110C9210110B621011067
:1034600013B50446154800F081F9302C17D0402CD4
:103470001AD0202C1DD11248124C00F077F91248B6
:1034800000F074F9FFF776FF104800F06FF90023A1
:103490000F4A0093D26B0F49204600F0BDFA0E4848
:1034A0000E4C00F063F9EAE70D480E4C00F05EF9AF
:1034B000E5E70D480D4C00F059F9E0E73420011024
:1034C0005D2001103E01FF808A200110952001102F
:1034D000CC410008B42001106C2001103F01FF8096
:1034E000752001104001FF80802001103D01FF8008
:1034F000F8B515460C4699B151F8087C95B12846A7
:1035000009F090F9064648B1AF423A46214628BF35
:103510002A4609F095FC204609F08CF93046F8BDA2
:103520000F46EBE72E46F9E738B502FB01F42046DB
:1035300009F078F9054618B12246002109F07EFD10
:10354000284638BD38B5054619480C46FEF7AEFF8B
:1035500000F0B4FD04F10801284609F073F9154B99
:1035600000B39968144A0460214442609960196963
:103570001A6801311961596822448A421A6050F868
:10358000041C88BF5A609A6921F00101141B214470
:1035900000F1080599610648FEF788FF00F0ACFDD0
:1035A000284638BD5A6901325A610546F3E700BF23
:1035B0003C35000820350008EFBEADDE00B5724690
:1035C0005DF804EBFFF7BEBF38B5054616480C465C
:1035D000FEF76CFF00F072FDECB154F8042C134BB5
:1035E0009A421FD154F80C3C54F8082C23F00101E6
:1035F000002344F8043C0E4B1868801A18601869C0
:103600000138186198690244521A9A61A4F10801BC
:10361000284608F0ABFD0448FEF748FFBDE83840F7
:1036200000F06ABD2146F3E73C350008EFBEADDE91
:103630002035000800B572465DF804EBFFF7C4BF03
:1036400007B50B46009201460022014800F0E4F95C
:103650004401FF80431C70B50E4604D13B220E4945
:103660000E48FFF7EDFF0E4B1B68C0F307429D6944
:103670000E2AC4B2D8BF05EBC215072C04DD40F2F8
:103680003131084807F0EAFC012000FA04F40EB9D1
:103690006C6070BDAC6070BD871D0110C31D011052
:1036A000B0540008E21D011007B500F07BF80321BB
:1036B0006846FFF735FB124D042401210098FFF7FF
:1036C000C9FF284600F0B8FC00210098FFF7C2FFB0
:1036D000284600F0B1FC013CEFD10A4E0424012140
:1036E0000098FFF7B7FF304600F0A6FC00210098D5
:1036F000FFF7B0FF304600F09FFC013CEFD1DBE765
:10370000F0490200801A060010B501460446002266
:10371000022000F051FB00F045F8204609F0F0FED1
:1037200021460246022000F047FBBDE8104000F0B1
:103730004FB8000000B5A3B00B460246842101A893
:103740000BF0FEF9832806D9074B1A681B79CDF8D0
:1037500083208DF88730002802DD01A8FFF7D4FF11
:1037600023B05DF804FB00BFF12101100FB407B5D1
:1037700004A951F8040B0191FFF7DCFF03B05DF8D9
:1037800004EB04B07047EFF31080C04300F0010079
:103790007047EFF30580003018BF01207047FFF736
:1037A0006DBA000008B5FFF73DFA064A1368591CC8
:1037B00004D13F2204490548FFF742FF013313605B
:1037C00008BD00BF64350008F62101102022011059
:1037D000044A136823B1013B13600BB9FFF734BAF5
:1037E000704700BF6435000808B50E4B0121D3E8CF
:1037F0004F2FC3E8401FD2B20028F8D12AB1FFF7FB
:10380000D1FFBFF34F8F20BFFDE7FFF7C2FF08B125
:10381000FFF74AFFFFF7B7FF0028F9D0012000F0BB
:10382000B5FB00BFA8350008F0B5204D8FB001AC46
:1038300035EA200528BF05460E46174600213422EA
:10384000204609F0FBFB1A4B01955B690493DA6B88
:1038500005925A6B1B6B0692079302970396089486
:10386000FFF7A0FF134A13680133012B136009D13E
:1038700026460FCE104D0FC50FCE0FC50FCE0FC56C
:1038800033682B600FCC0D4D0FC50FCC0FC50FCC7F
:103890000FC523682B600A4B1B6813B1A5F13000DC
:1038A0009847FFF795FF00200FB0F0BD0101FF80A2
:1038B000A02300086835000874350008AC350008FE
:1038C0006C3500082DE9F0413C4C0E462168C1F3EF
:1038D0004173032B0CBF4D428DB2C1F3074398B027
:1038E0008046174636482A46FFF740FF6FF4987324
:1038F0001D44132D0FD8DFE805F00A484B4E5157F1
:10390000545A0E0E0E0E0E0E0E0E0E0E0E5DA16809
:103910002C48FFF72BFF4046FFF7F6FE61682A4868
:10392000FFF724FF4EB12948FFF7EEFE3046FFF7C0
:10393000EBFE39462648FFF719FFA1682548FFF737
:1039400015FFE268E369516823480293A369019374
:1039500063690093002908BF014623691F48FFF7E8
:1039600005FF04A800F04AFB079B01939DF818305F
:103970000093049A059B21681948FFF7F7FE194840
:10398000FFF7F4FE18B0BDE8F081A1681648C0E763
:10399000A1681648BDE7A1681548BAE7A1681548AF
:1039A000B7E7A1681448B4E7A1681448B1E7A16873
:1039B0001348AEE71348FFF7D9FEACE7AC35000873
:1039C0005B220110AC220110542301106523011069
:1039D0006D23011071230110512201108523011064
:1039E000DD23011059240110C2220110D22201103E
:1039F000E1220110F4220110082301101C23011000
:103A00002B2301104123011000207047014B18782F
:103A1000C0B270477035000880B50E461F4611468B
:103A2000084A0125D2E84F4FC2E8435FE4B23CB9EF
:103A30007246FFF7F9FE029A39463046FFF742FF19
:103A4000FFF7D2FE7035000810B5054C236813B996
:103A5000FFF76AF920602068BDE81040FFF7F0BB6F
:103A6000F035000807B5094AD2E85F3F0133C2E8E4
:103A7000513F0029F8D19BB22BB912880449009319
:103A80000448FFF7C9FF03B05DF804FBE035000808
:103A9000732401102301048007B50B4AD2E85F1F8D
:103AA0000139C2E8531F002BF8D14FF6FF7089B2DD
:103AB000814205D11288054900930548FFF7ACFF04
:103AC00003B05DF804FB00BFE03500089524011049
:103AD00024010480F8B5FFF765FEFFF7B5FF144B2E
:103AE0001B8806460F469BB29BB903F008FA0124D7
:103AF000FFF7AAFF8CB10F4BD3E90045A41B65EB80
:103B0000070500196941C3E90001BDE8F840FFF766
:103B10005FBE03F0F1F90024EAE7074CD4E9002383
:103B2000921B63EB070380185941C4E90001ECE7DD
:103B3000E0350008E8350008F83500086FF01C0093
:103B400070476FF0150070470120704700207047E4
:103B500070470000034B186818B14FF0FF3101F0B7
:103B6000C3BA704720420008024B186808B101F040
:103B7000D3BA704720420008F8B5074E15460C46E8
:103B80008F18BC4205D014F8011B304603F094F99D
:103B9000F7E72846F8BD00BF7453000838B58DB26A
:103BA00015F0010405D0084803F098F9041C18BF6B
:103BB0000124EB0605D5044803F097F908B144F059
:103BC0001004204638BD00BF7453000810B50446E9
:103BD00008F030FE204610BD10B50C462AB104484E
:103BE00003F052F92070012010BD104610BD00BF37
:103BF0007453000838B51D46074B0360074B1B681C
:103C0000044633B9064803F0D3F82946044803F0C4
:103C100025F9204638BD00BFBC240110184000081B
:103C200074530008002070470020704708B5012039
:103C300000F0ACF9074A084913681844884289BF64
:103C4000064B10600C224FF0FF308CBF1A601846F4
:103C5000704700BF9823000800740408B45400089B
:103C6000012070470120704708B500F0B5FA08BD83
:103C700008B500F0B9FA08BD10B50446037803F0A2
:103C80000303012B08D0FFF765FF237803F003023D
:103C9000012A03D1FFF768FF002010BD2AB140F2CE
:103CA000E55204490448FFF7CBFC43F002032370BC
:103CB000012010BD2F2501105B25011008B50378E8
:103CC00003F00302022A05D040F2EE5206490748EB
:103CD000FFF7B6FC23F0030343F001030370BDE8D4
:103CE0000840FFF741BF00BF2F25011079250110C3
:103CF0003F2870B5044630DC194D55F820305A1C69
:103D000013D1022811DCFFF78FFF034658B9204674
:103D1000FFF788FF034630B9124E3378BFF35B8F4D
:103D2000DB0704D5104B45F82430184670BD3046EB
:103D3000FFF7A2FF0028F5D04FF4E1334FF4E02263
:103D40000A490948FFF756FF3046FFF7B7FF084A10
:103D500008490548FFF784FFE4E70023E5E700BFD3
:103D60009822000800360008043600080100070009
:103D70008C220008513B001038B50546FFF7B8FF0C
:103D80000B4B002443F8254030B907F065FF0923A9
:103D900003604FF0FF3038BD03685B699847051E2C
:103DA00004DA07F059FF6D420560F2E7204638BD9E
:103DB00098220008FFF7E0BF38B50C461546FFF71C
:103DC00097FF38B907F048FF092303604FF0FF342D
:103DD000204638BD03682146DB682A469847041E02
:103DE000F6DA07F039FF64420460EFE773B5054681
:103DF0000E461446FFF7CDFC10B9FFF7C4FC88B996
:103E0000002300932A460C490C48FFF705FE07D013
:103E1000224631462846FFF7CFFF40EAE07009E02E
:103E2000204607E0002CF2DA07F016FF16230360A5
:103E30004FF0FF3002B070BDEC2501102F01018062
:103E400038B50C461546FFF753FF38B907F004FFA5
:103E5000092303604FF0FF34204638BD0368214634
:103E60009B682A469847041EF6DA07F0F5FE64427E
:103E70000460EFE773B504460E461546FFF789FC6C
:103E800010B9FFF780FC70B90023009322460B495C
:103E90000B48FFF7C1FD2A463146204602B0BDE877
:103EA0007040FFF7CDBF002DF5DA07F0D5FE1623E1
:103EB00003604FF0FF3002B070BD00BFB0250110AD
:103EC0002F01018010B5FFF713FF044628B907F052
:103ED000C3FE09230360204610BD0368DB699847D1
:103EE000041EF8DA07F0B8FE644204600024F2E72A
:103EF000FFF7E8BF38B50C461546FFF7F9FE38B9AD
:103F000007F0AAFE092303604FF0FF34204638BDB6
:103F1000036821461B692A469847041EF6DA07F013
:103F20009BFE64420460EFE7FFF7E4BF10B5FFF7C4
:103F3000DFFE30B907F090FE092303604FF0FF3039
:103F400010BD03689B699847041E04DA07F084FEDD
:103F500064420460F2E7002010BD00000A4C08B57E
:103F600023680546986807F07BFF2368D86807F048
:103F700077FF0120FFF7DAFF0220FFF7D7FF0DB12F
:103F8000FFF792FBFEE700BFB025000808B5FFF77A
:103F9000E5FF38B50D46FFF7ABFE044630B907F034
:103FA0005BFE092303604FF0FF3038BD0368DB6917
:103FB0009847002814BF4FF400534FF400436B6040
:103FC000236820469B6A98472861002038BDFFF788
:103FD000E0BF000013B5044608F024FC034628B9EE
:103FE0000090224602490348FFF716FD02B010BDBB
:103FF000102501101F01018008F01CBC10B50446FB
:1040000020B9902209490A48FFF71AFB50220021E3
:1040100009F014F84CF6C8032360064B1B68636074
:10402000022323724EF68C33E36010BD2626011066
:104030004D26011000ED00E070B50446FFF728F9A9
:104040000646FFF70EF905463046FFF70AF9401B12
:10405000A042F9D370BD000030B50C4685B00021F8
:10406000054601621022684608F0E8FF0C4B002C60
:1040700008BF1C462B1D02931C23039368460B2389
:104080000094019301F018F8286038B9FFF7BEFCDE
:1040900020B9382203490448FFF7D2FA05B030BDF1
:1040A0005B260110752601109526011010B5002120
:1040B0000446FFF7D1FF204610BD000037B5044687
:1040C0004FF0FF31006801F00FF8054628B9236A68
:1040D00001332362002003B030BDFFF797FC034695
:1040E0000028F7D100902A4601490248FFF794FCC6
:1040F000B92601101501028037B50546006801F0A8
:104100000BF8044628B92B6A013B2B62204603B00A
:1041100030BDFFF77BFC03460028F7D10090224614
:1041200001490248FFF778FCCB26011017010280F5
:1041300008B5094B094A1A60094B9B1A094A1360D2
:10414000094B0A4A1A600A4B9B1A0A4A136000F08C
:1041500051F800F065F800BF7436000800740408D8
:1041600000780408703600080C360008B8540008BF
:1041700000740408083600080E4838B50E4B03607A
:104180000B251C240D4B4560C460836000F094FF38
:104190000B4B18600B480C4BC46080E828000B4B9D
:1041A000836000F089FF0A4B1860BDE8384008F0D2
:1041B0009FBA00BF40360008DF26011054360008C1
:1041C0005036000810360008EC260110243600088E
:1041D00020360008FEF7E0B8024B4FF0FF311868B8
:1041E00000F082BF50360008014B186800F094BF01
:1041F0005036000808B503F01DF8BDE8084000F08F
:104200000CB8704708B5FFF7B7FFFFF7FAFFFFF7E5
:10421000FBFBBDE80840FFF7DDBF00F07DBA000002
:1042200007B51748174B03600B2343601C23164C3C
:10423000C360164B8360164B23614FF48053636158
:104240004423E360134BA3601823A361124B236044
:1042500000F032FF114B224618600021104801F097
:1042600001FC034628B90F49009022460E48FFF78B
:10427000D3FB00F069FA002300931A460B49F5E7D7
:104280004C520008F6260110285200085C52000823
:10429000284200087836000806270110204200084E
:1042A000054200100B2701101D0101802727011076
:1042B00073B506460C461546FFF7A8FB60B9A11D6D
:1042C000052996BF054B064953F82110002300939A
:1042D00032462846FFF7A0FB02B070BD3C27011014
:1042E0005C28011008B500F085F8000007B5411EF4
:1042F00002460023042923D8DFE801F0030A101640
:104300001C0012491248009301220023FFF784FB8E
:104310000093022200230F490F48F7E7009303227E
:1043200000230E490E48F1E70093042200230D49B3
:104330000D48EBE70093052200230C490C48E5E704
:1043400000930C490C480023E0E700BF54270110FC
:104350002501028075270110260102809A2701108D
:1043600027010280CF270110280102800A280110AE
:104370002A0102804A28011000010280014A0146F8
:10438000FFF796BF31010180014AFFF791BF00BFDF
:1043900032010180014AFFF78BBF00BF330101806A
:1043A00011F1110F02D0024AFFF782BF704700BF20
:1043B00034010180014AFFF77BBF00BF3801018053
:1043C00010B501F067FB034B1B6813B1BDE810404B
:1043D000184710BDBC36000808B5FFF7E3F9FFF732
:1043E00041FBFFF777FBFFF757FBBDE80840FFF7FE
:1043F000EFB9000008B5024C23689847FCE700BFFE
:104400009C2300081EF0040F0CBFEFF30880EFF3AD
:104410000980816911F8021C91BB01B590E80F1069
:10442000E047BDE800508CE80300244B93E8060009
:10443000914208BF704741B91EF0100F10D12049BA
:10444000086820F0010008600AE02CE9F00F1EF077
:10445000100F08BF2CED108AC1F838C081F822E097
:104460001A6092F82210906B61F0FF0E1EF0100F90
:1044700008BFB0EC108AB0E8F00F80F309887047ED
:10448000104A13689942FAD801B552F821C00FC8F2
:10449000E047BDE80050CCF80000704701B500F0DF
:1044A0005DFFBDE80140EFF3098CBEE701B500F008
:1044B0001BFFBDE80140EFF3098CB6E7B423000809
:1044C00034EF00E0B429011008B5014610B1132003
:1044D00001F036FA002008BD08B5EFF3058333B1CB
:1044E0006FF0050000F012F86FF0050008BDEFF363
:1044F0001083002BF4D1EFF31183002BF0D1DFF800
:1045000008C000DF08BD00BFC94400107047EFF3CA
:1045100010832BB9EFF31180003018BF01207047D2
:104520000120704770B54D4C217A012900F0878039
:1045300031B14FF0FF30FFF721FF4FF0FF3070BD7A
:10454000474D9C2204F1080008F078FDEB68EE6A04
:10455000E3652B8AA4F85430296BAB68236430469A
:1045600000F008F908B1C4F880606E69A9693046A6
:1045700000F000F9002864D06667EE69296A3046C9
:1045800000F0F8F8002860D0A6676E6AA96A304685
:1045900000F0F0F800285CD0E6676E6B3EB1F3687F
:1045A000B2683168304600F051F9C4F88460AE6BEF
:1045B0003EB1F368B2683168304600F047F9C4F89C
:1045C0008860EE6B3EB1F368B2683168304600F047
:1045D0003DF9C4F88C602E6C3EB1F368B268316866
:1045E000304600F033F9C4F890606E6C3EB1F36869
:1045F000B2683168304600F029F9C4F89460AE6CB6
:104600003EB1F368B2683168304600F01FF9C4F873
:104610009860EE6C3EB1F368B2683168304600F0E5
:1046200015F9C4F89C602D6D3DB1EB68AA68296846
:10463000284600F00BF9C4F8A05001232372002093
:1046400070BDD4F88030636797E7D4F88030A367F3
:104650009BE7D4F88030E3679FE700BFA023000802
:104660004C29011038B5264C237A012B06D06FF067
:104670000600FFF783FE4FF0FF3038BD01F0D2F99E
:1046800010B94FF0FF30F4E71E4A1F4D1F4968680C
:10469000FF2382F8223092F82230D26863F0FF03C1
:1046A000DB4314BFB3FA83F32023C3F12003C2F327
:1046B0000222934298BF531CFE2202FA03F3114ACE
:1046C000DBB2D37701F05EFA0028DAD101F096FA76
:1046D000206101F077FA0E4800F082FF00F0E6FF5B
:1046E0002B6813F0010F4FF0020304D083F31488FA
:1046F0002372002038BD032282F31488F8E700BF3C
:10470000A023000800ED00E04C290110AD4400108A
:10471000BC2300087047000008B5FFF7FBFFEFF36C
:10472000058333B16FF00500FFF728FE6FF0050039
:1047300008BDFFF7ECFE0028F4D1DFF808C000DF69
:1047400008BD00BF2545001008B5EFF3058333B160
:104750006FF00500FFF712FE6FF0050008BDFFF7D0
:10476000D6FE0028F4D1DFF808C000DF08BD00BF86
:104770006546001010B5A8B140EA010313F0070325
:104780000DD117290DD9016008390C181022846049
:1047900042600B5081684A60C360012010BD002058
:1047A00010BD184610BD70B5B0B100292ED032F042
:1047B00003032BD10F3121F0070100F108052E680A
:1047C0006C68731B24F003041B1B994205D93368E2
:1047D0003546002BF3D1184670BD446803680C447D
:1047E00044601844083843689C4288BF44606B6842
:1047F00011431BB9696005F1080070BD23F0030384
:10480000E818EE5041602860083070BD002070BD8F
:1048100010B5D0B1C1B1A1F1080400F10803002224
:10482000A34209D1596821F003044168091B416082
:104830003AB95A60012010BD19681A4621B10B46D9
:10484000EEE71B681360F5E7084610BD30B5C0B150
:1048500089B1C2B1CBB10024446002FB01F41D193F
:1048600001608260C360436105611846013904D16B
:10487000A21A99500121084630BD851805602846C6
:10488000F4E70146F7E71146F5E71946F3E710B5F7
:104890000346B0B100F1140252E8000F10B9BFF3A3
:1048A0002F8F04E0016842E8001404B1F4E740B13E
:1048B000043353E8002F511C43E8001404B1F8E717
:1048C00010BD10BD30B5F0B1C3688B421BD8036971
:1048D000994218D200F114031A680A60BFF35F8F7F
:1048E00053E8002F0C689442F6D143E8001505B157
:1048F000F2E7043050E8003F5A1E40E8002101B1C1
:10490000F8E7002030BD6FF0030030BDEFF31083F7
:104910002BB9EFF31180003018BF01207047012040
:104920007047036B30B5E3B1CD780024DA78AA4242
:104930000FD31A464A608C608AB19160A4B161605D
:10494000283050E8003F5A1C40E8002101B1F8E748
:1049500030BD5A681C46002AECD01346E6E7C16217
:10496000ECE74B608B60C1620163E9E74B688A68E2
:1049700023B19A608A681AB153607047C262F9E73E
:1049800003637047F8B58678044696B3C568014658
:104990000026284605F10C07FFF7E8FF26702146A0
:1049A0003846FFF78FFFAB68002B48D03846FFF73B
:1049B0006EFF0446002842D0284600F011FE324621
:1049C0000746314600F0A8FE384600F051FE6A6AFC
:1049D0008168074604F10C0008F032FAF9232370CD
:1049E000A670FB68E37021462846BDE8F840FFF753
:1049F00098BF8568AB68002BF5D05B78832BF2D12C
:104A0000284600F0EDFD32463146074600F084FEB0
:104A1000384600F02DFE06466A6A806804F10C01F3
:104A200008F00EFAF3680BB1E2781A7000232370D5
:104A3000214605F10C00BDE8F840FFF743BFF8BD83
:104A40002DE9F74F8946074600B131B96FF00301F0
:104A50000020FFF7AFFC00207BE0CD1C25F0030514
:104A60000C3514BFB5FA85F12021B0FA80F30B4460
:104A70001F2BEBDD05FB00FAF2B19468D2F8008041
:104A8000166953693CB1A10702D1D268332A05D80F
:104A90006FF00801DCE7D268002AF9D13EB116F0C8
:104AA000030B01D19A4557D96FF00901D0E7002BCC
:104AB000FAD11CB19B460CE090461646284BD3F821
:104AC000A000E0B1FFF7E3FE0446A8B14FF0010BF0
:104AD0003EBB234B0193D86F00225146FFF763FE84
:104AE000019B0646B8B9BBF1000F05D0D3F8A00072
:104AF000214658B1FFF7E6FE6FF00401A8E7012256
:104B00003421D3F88000FFF74EFEDDE7D3F88000B4
:104B1000FFF77EFEF0E75246002108F08FFA4BF0D7
:104B2000020BFA2323700023A360A362E3622363D2
:104B30002A46334684F802B0C4F80480C4F82490AE
:104B4000394604F10C00FFF781FE054B054A1A6750
:104B5000204603B0BDE8F08F002CE2D1AEE700BFE5
:104B6000A0230008854900102DE9F0410C461746A6
:104B70009846054618B10378FA2B00D141B928466A
:104B80006FF00301FFF716FC6FF00300BDE8F08142
:104B90008368C3B15B78832B15D100F021FD01221E
:104BA0000646002100F0B8FD304600F061FD0646E3
:104BB0006A6A8068214608F043F9F06858B30770C4
:104BC0000020BDE8F08105F10C00FFF760FE06460D
:104BD00070B121466A6A0C3008F032F90024F923DA
:104BE0003370B470F77031462846FFF79AFEE7E756
:104BF000B8F1000F11D04146932000F0A1FE40B162
:104C0000084B2846596900F0D9FCEFF309839C60F2
:104C1000DF606FF00100BDE8F0816FF00200BDE8D9
:104C2000F08100BFA023000810B500F1280353E86D
:104C3000002F12B9BFF32F8F04E0511E43E8001478
:104C400004B1F4E70AB9002010BDC06A01230028AE
:104C5000F9D0821CD2E84F1FC2E8443F04B1F9E703
:104C600011F0FF0F01D08068F1E710BD2DE9F04190
:104C70000F4614469846054618B10378FA2B00D122
:104C800041B928466FF00301FFF794FB6FF0030072
:104C9000BDE8F081FFF7C8FF064600283BD001467B
:104CA0002846FFF763FE6A6A06F10C01384608F0F1
:104CB000C7F80CB1F3782370002405F10C073470A9
:104CC00031463846FFF7FEFDAB6813B90020BDE85A
:104CD000F0813846FFF7DBFD06460028F6D028466F
:104CE00000F07EFC21460746012200F015FD384603
:104CF00000F0BEFC6A6A8168074606F10C0008F005
:104D00009FF8F9233370B470FB68F370314628467E
:104D1000FFF707FEDAE7B8F1000F11D04146832014
:104D200000F00EFE40B1084B2846596900F046FCE1
:104D3000EFF309839F60DC606FF00100BDE8F08154
:104D40006FF00200BDE8F081A023000810B5044612
:104D5000EFF3058333B16FF005010020FFF72AFB65
:104D6000002010BDFFF7D2FD0028F4D12046DFF867
:104D700008C000DF10BD00BF414A00102DE9F0411E
:104D800006460F4690461C46EFF305834BB19EB98D
:104D900030466FF00301FFF70DFB6FF00300BDE835
:104DA000F081FFF7B3FD0028F1D130462346DFF84C
:104DB00050C000DFBDE8F0813378FA2BE8D1002F36
:104DC000E6D0002CE4D106F10C00FFF760FD0546AB
:104DD00088B1726A39460C3008F032F8F923284657
:104DE0002B70AC7085F803806F60AE6000F0FEFA47
:104DF0002046BDE8F0816FF00200BDE8F08100BF01
:104E0000694B0010F8B504460F4616461D46EFF3F1
:104E1000058343B18CB920466FF00301FFF7CAFA4E
:104E20006FF00300F8BDFFF771FD0028F2D12046B6
:104E30002B46DFF844C000DFF8BD2378FA2BEAD117
:104E4000002FE8D0002DE6D12046FFF7EDFE054605
:104E500070B100F10C01626A384607F0F1FF0EB143
:104E6000EB7833702846EC6000F0C0FA0020F8BD03
:104E70006FF00200F8BD00BF6D4C0010EFF310831F
:104E80002BB9EFF31180003018BF012070470120CB
:104E90007047000070B5002835D0846890E8600045
:104EA00064B114F0030302D1C2681B2A19D86FF051
:104EB00008010020FFF76EFA002070BDC368002BC8
:104EC000F5D1124BD3F8940030B901221C21D3F84C
:104ED0008000FFF768FC01E0FFF7D9FC044668B1E9
:104EE0000123F522A37000232270E6706560A360A1
:104EF000E360236163612376204670BD6FF0040197
:104F0000FFF748FAF8E705460646DAE7A023000867
:104F1000284B70B55D6904460E4635B96FF0070140
:104F2000FFF738FA4FF0FF3070BD10B10378F52B62
:104F300007D020466FF00301FFF72CFA6FF0030053
:104F400070BD037E53B9EA6AC5604261036102B174
:104F50001061EC6201232376002070BDC278D10776
:104F60000DD5C168A9420AD1FF2B06D16FF00F0100
:104F7000FFF710FA6FF0020070BD0133EBE7002E6F
:104F8000F8D093070AD5E06895F9203090F92020F1
:104F90009A4203DA80F8203000F035FB3146532086
:104FA00000F0CEFC18B12946204600F007FB6FF058
:104FB000010070BDA023000838B52E4B5A69044685
:104FC00032B96FF00701FFF7E5F94FF0FF3038BD58
:104FD00010B10378F52B07D020466FF00301FFF7DF
:104FE000D9F96FF0030038BD037E33B96FF00E01BD
:104FF000FFF7D0F96FF0020038BDC168914202D0CE
:105000006FF00D01F4E7013BDBB2037623BB43698C
:105010000BB101691961216901B34B61E3789B0709
:1050200005D592F92110D36AD3B982F82010A3686C
:105030007BB1204600F0D4FA00220546114600F06C
:105040006BFBEB6A6361002323610123E560EC6283
:105050002376002000F034FB002038BDD362DDE76A
:10506000986820B190F920008142B8BF01465B6981
:10507000DAE700BFA02300082DE9F041044600262E
:1050800001270CB9BDE8F081E378D4F814801B0740
:1050900010D5A36826766BB1204600F0A1FA002255
:1050A0000546114600F038FBEB6AE5606361266156
:1050B000EC6227764446E4E708B50246EFF3058341
:1050C00033B16FF005010020FFF764F9002008BD3F
:1050D000FFF7D4FE0028F4D11046DFF808C000DF47
:1050E00008BD00BF954E001008B50246EFF30583DA
:1050F0003BB110466FF00501FFF74CF96FF005006A
:1051000008BDFFF7BBFE0028F3D11046DFF804C04E
:1051100000DF08BD114F001008B50246EFF305830C
:105120003BB110466FF00501FFF734F96FF0050051
:1051300008BDFFF7A3FE0028F3D11046DFF804C036
:1051400000DF08BDB94F0010EFF310832BB9EFF368
:105150001180003018BF012070470120704730B522
:1051600000F10C02C189D2E85F3F994202D8BFF337
:105170002F8F04E05C1CC2E8554F05B1F3E7C089EE
:105180009BB2984294BF0020012030BD38B505463F
:1051900010B10378F62B07D028466FF00301FFF714
:1051A000FFF86FF0030038BD84683CB100F018FAD6
:1051B0000122002100F0B0FA002038BDFFF7CFFF38
:1051C0000028F9D128466FF01001FFF7E9F86FF0D9
:1051D000020038BD70B5054610B10378F62B07D034
:1051E00028466FF00301FFF7DBF86FF0030070BD96
:1051F000836863B1284600F0F3F900226FF00201E2
:1052000000F08AFAA8680028F4D100F059FAA878CA
:10521000002610F001002E700ED0084BD3F89840F5
:10522000294624B12046FFF74DFB304670BDD3F828
:105230008000FFF7EDFA204670BD00BFA0230008F4
:1052400010B50446EFF3058343B184B920466FF0EF
:105250000301FFF7A5F86FF0030010BDFFF774FF1F
:105260000028F2D12046DFF830C000DF10BD2378DF
:10527000F62BEBD12046FFF772FF20B1204600F05D
:10528000B5F8002010BD20466FF01001FFF788F838
:105290006FF0020010BD00BF8D51001008B502462E
:1052A000EFF305833BB110466FF00501FFF778F887
:1052B0006FF0050008BDFFF747FF0028F3D1104647
:1052C000DFF804C000DF08BDD551001010B5D0E8EC
:1052D0005F3F5A1C914200D80022C0E8542F04B10D
:1052E000F5E798B210BD000038B51B4C00F080FC0B
:1052F000E3680133E360236D03B1984700F09EF942
:10530000002000F0DDF9236C2BB1A26BA1698A4269
:1053100002D0A163E36338BDE36B0BB1013BE363F0
:10532000E36B002BF7D1237A022BF4D1656A002DB1
:10533000F1D095F9201092F920309942EBD128460E
:1053400000F057F9A06B00F071F9284600F0AEF9B3
:10535000A563236CDEE700BFA023000870B5224CD4
:1053600004F1560504F15A06B4F85410D5E85F3F2D
:1053700013B9BFF32F8F04E05A1EC5E8502F00B1B8
:10538000F4E79BB25BB33046FFF7A0FFE36D53F841
:10539000200020B30378F13B082BE5D801A252F896
:1053A00023F000BFC953001069530010CF53001001
:1053B0006953001069530010D3530010D7530010E5
:1053C00069530010DB530010236E9847CCE7636EDF
:1053D000FBE7A36EF9E7E36EF7E7236FF5E700203D
:1053E000BDE8704000F06CB9A023000870B5164C01
:1053F0000546B4F8541004F15602D2E85F3F9942D2
:1054000002D8BFF32F8F04E0581CC2E8560F06B134
:10541000F3E79BB2994210D904F15800FFF756FF09
:10542000E36D43F82050637A23B9084B4FF0805264
:105430005A6070BD0123A37270BD29460220BDE8E9
:105440007040FEF753BF00BFA023000800ED00E04E
:10545000EFF310832BB9EFF31180003018BF012058
:10546000704701207047000010B50123094A4370BE
:1054700090F92010536A1C321BB193F920408C42E2
:1054800005DCC2608360906003B1D86010BD1A462D
:105490009B68F1E7A0230008014B5869704700BFE3
:1054A000A023000808B5FEF78BFFDFF810C000DF6F
:1054B0004FF0FF310020FEF767FFFEE7C1590010F3
:1054C00012F0020F10B502F0010222D100F1280300
:1054D00082B153E8000F00EA01028A4203D0BFF311
:1054E0002F8F002005E020EA010243E8002404B1E8
:1054F000EFE710BD53E8000F084203D1BFF32F8F31
:10550000002005E020EA010243E8002404B1F1E7AD
:1055100010BD806A01EA00031AB1994218BF002049
:1055200010BD002B08BF002010BD000010B5C469DD
:105530004169631C03690AD103B1596142691AB117
:1055400013610023436110BD064A136310BD1BB1F4
:10555000DA6959612244DA614269002AF0D1014ACC
:10556000D36210BDA023000810B500234370037060
:1055700083789A07044608D513F0100F016B0E4B81
:105580000FD0D3F88400FFF79DF9A378DB0712D57D
:10559000094BD3F88800214638B1BDE81040FFF729
:1055A00091B9586FFFF734F9EFE7D3F88000BDE801
:1055B0001040FFF72DB910BDA023000810B591F9D8
:1055C000202083681BB193F92040944205DAC8601B
:1055D0008B60816003B1D96010BD18469B68F1E70C
:1055E00083689A68826002B1D0600022DA6018464F
:1055F0007047C36833B182689A60826802B1D36031
:105600000023C360704710B50146044664B1237897
:10561000F12B07D00846FFF7ECFF2046BDE810400D
:10562000FFF7CCBFE468F1E710BD0000012301469D
:1056300043700148FFF7C2BFBC23000838B50B4DCB
:10564000EC6A94B1E369013BE36173B92046FFF76B
:10565000D0FF2046FFF7EAFF246924B1E369002B5D
:10566000F4D000236361EC6238BD38BDA02300088C
:1056700090F82230826B13F0100F0CBF60202020B6
:1056800010447047074B596951B10B6B8A6B9342B9
:1056900003D21A68044B9A4202D00120FEF726BEBC
:1056A000704700BFA0230008A52E5AE208B50223C8
:1056B0004370024B9861FFF7E5FF08BDA023000887
:1056C00010B5144B04461A7A5969A0B9022A1FD1A1
:1056D0005C6AECB194F9202091F920309A4217DDF0
:1056E0002046FFF786FF0846FFF7BEFE2046BDE8CE
:1056F0001040FFF7DBBF022A05D190F9202091F975
:1057000020309A42EFDC2046BDE81040FFF78EBF04
:1057100010BD00BFA023000838B504461546FFF7AA
:10572000A7FF01602046FFF701FF20461DB1BDE83D
:105730003840FFF7C5BFBDE83840FFF777BF10B569
:105740004378332B04460CD1416A90F82320FFF7AD
:10575000B7FE014628B120460022BDE81040FFF701
:10576000DBBF10BD2DE9F04F85B08246029128B90C
:105770006FF00301FEF708FE0020B8E0002A48D0D1
:10578000946816695569976944B1A30702D1D36833
:10579000432B06D86FF008010020EBE7D368002BFD
:1057A000F8D13EB1700702D1002D40F0B9806FF002
:1057B0000A01F1E72FB17B1E372B03D96FF00B01E4
:1057C000EAE718271DB16907F1D1472DEFD95368D2
:1057D000D2F8009001934CBB544BD3F88800F0B141
:1057E000FFF755F80446002800F097804FF00108B5
:1057F000002E36D1DFF834B1DDB94D4ADBF8840034
:10580000556DB0B1FFF743F8D8B148F0100806461F
:1058100023E091461827154616460192DCE701223F
:105820004421D3F88000FEF7BEFFDBE74FF000080D
:10583000DEE732462946DBF87400FEF7B4FF0028A5
:10584000E5D1B8F1000F5CD0DBF88820002A51D0F8
:1058500021461046FFF736F8002448F00208002CD5
:105860005BD0F1232370012363709DF80430E37053
:105870000023A360E36023616361A361E36184F8B3
:1058800023306362A362E362A5F1400333447FB235
:10589000A363FD22274B84F80280C4F8049084F8A7
:1058A000207084F8217084F8222026636563C4F890
:1058B0003CA033601E4B1B685B0724D4A36B002005
:1058C0001A1F03F1300142F8040F9142FBD11A4A2A
:1058D0005A634FF08072DA63029A1A62C3F838A0F2
:1058E000124B164A1A662046FFF7EAFE204605B01C
:1058F000BDE8F08F2146DBF880000392FEF788FFB9
:10590000AAE74446A9E7AD08113D4FF0CC33002D7E
:10591000D4D046F8043F013DF9E76FF004013BE7BE
:10592000002F7FF448AF18274DE700BFA0230008E1
:105930004C290110A52E5AE2A55400103F57001023
:1059400038B51D4C237A022B34D1636A002B31D039
:1059500063694A1C587015D1226B00216AB94FF057
:10596000FF30D86159611A6151B10B611348FFF7DB
:1059700037FEFFF79BFE012038BD11461269EDE7A7
:105980002363F3E7E26A002012B1D569A9420BD282
:10599000D96158611A6158B10361002AE6D0D06913
:1059A0005361411AD161E1E71046491B1269EBE7E7
:1059B000E362F2E7002038BDA0230008BC23000802
:1059C00038B5164D2B7A022B27D16B6A2BB36C6935
:1059D000E06AFFF751FBA06918B100221146FFF7FA
:1059E0009BFEEFF309830E48A363FFF7F9FDFFF772
:1059F0005DFE00236B61E378DB0701D5A36923B16A
:105A00002046BDE83840FFF7AFBD04226270E36076
:105A10006B6BA36003B1DC606C6338BDA02300082E
:105A2000BC23000838B50B4C0B48A26D0B4D002170
:105A3000FFF798FE636EA8624BB1E26D0848002143
:105A4000FFF790FEA864003018BF012038BD012088
:105A500038BD00BF4C290110E5420010A02300080A
:105A6000495B001010B50446EFF3058333B16FF0C6
:105A700005010020FEF788FC002010BDFFF7E8FCC0
:105A80000028F4D12046DFF808C000DF10BD00BFB9
:105A90006557001008B5EFF3058313B1054B58693E
:105AA00008BDFFF7D5FC0028F8D1DFF80CC000DFF7
:105AB00008BD00BFA0230008995400100C4A536C85
:105AC00030B5002413B11D69A9420AD20161846076
:105AD000C3601BB11D699860691A19612CB1E0603F
:105AE00030BD1C46491BDB68ECE7506430BD00BF8D
:105AF000A023000870B5134D6C6C04B32369013BFF
:105B0000236101262369D3B9E3680BB1A2689A60C7
:105B10006B6400231A4604F11801E86CFFF72EF9B4
:105B200018B121460320FEF7E1FBE378012B07D1F2
:105B300061692046FFF7C2FF6C6C002CE2D170BD9A
:105B40006670F9E7A02300080B4B0C4C07B51A6EE2
:105B5000586E0821FFF7FAF8094AE06422654FF011
:105B6000FF3300226946E06CFFF74CF90028F6D1BC
:105B70000198009B9847F2E74C290110A0230008E8
:105B8000F55A0010A8B10C4B1B68B3FBF0F00138BC
:105B9000B0F1807F0DD2094BFF2283F82320A3F5BB
:105BA0004F6306221A60586000209860044B1870FA
:105BB00070474FF0FF3070470425000800ED00E00B
:105BC000103D0008074B1A782AB100221A70064BC4
:105BD0004FF080625A60054A136843F00103136076
:105BE000704700BF103D000800ED00E010E000E04D
:105BF000014B1B68704700BF10E000E04FF0FF3022
:105C00007047000008B5FEF767FC20B1C1220249C9
:105C10000248FDF715FD08BD3A2A01102B2A011094
:105C20000A4B1B6893F83C30834281BF800000F12F
:105C3000804000F51810D0F8803383BF43F0004354
:105C4000C0F8803300200248704700BFB0540008FD
:105C500001004A000B4B1B6893F83C3083420FD97C
:105C60000F290DD8800000F1804000F51810D0F801
:105C7000803323F00F031943C0F8801300207047CE
:105C800001487047B054000801004A000D4B1B68E2
:105C900093F83C30834212D9032910D8800000F1D8
:105CA000804000F518100901D0F8803301F0300170
:105CB00023F030031943C0F88013002070470248D6
:105CC000704700BFB054000801004A00044B1B6835
:105CD0001968D3F880208B5823F47F438B5070478A
:105CE000B0540008044B1B681968D3F884208B5803
:105CF00023F47F438B507047B0540008064BD3F811
:105D00000C2542F00042C3F80C25D3F80C2542F0D4
:105D10000102C3F80C25704700002640FEE7000092
:105D200073B59621002005F013FA05F0B3F970B9A8
:105D300005F0A2F9B84BD3F88021D2075EBFD3F8A3
:105D40000C2522F00042C3F80C25FFF7D7FF0120F5
:105D500005F01CFD012005F06DFBB04A536C23F4E7
:105D60007F4343F468535364536CC3F307233A2BC4
:105D700007D1536C23F0005323F4685343F4685362
:105D800053640021A64D0846FFF780FFFFF7AAFFE6
:105D90002B681968D3F880208B5823F07F4343F099
:105DA00080738B50FFF792FF2B6893F83B1000290C
:105DB00056D1012004F0CEFC2B6893F83C3023B977
:105DC00040F2BC71974805F049F9934BD3F88043F2
:105DD00014F00F040AD1204604F0E6FC40F211133F
:105DE000984203D101212046FFF734FF8A4B8E4EA3
:105DF000D3F8882522F0405242F00052C3F888259B
:105E0000D3F8802522F00042C3F88025D3F88C25F2
:105E1000002122F00042C3F88C25084604F09AFCC9
:105E2000002100240846FFF715FF2346224621469D
:105E300000947E4803F0A6FC224600942346774C4B
:105E40007A48012103F09EFC226842F00802226099
:105E500023695B0727D40EBB0520FFF75FFF24E013
:105E60002B6893F83B304E1E9E4215D2890001F1FB
:105E7000804404F518140120D4F8FC3523F0405375
:105E800043F00053C4F8FC3505F0E0F8D4F8FC35D5
:105E900023F00043C4F8FC35314688E7012005F0C3
:105EA000D5F8013ED4E7002ED6D05B4AD2F80035B3
:105EB00023F0030343F00103C2F80035FFF712FF9C
:105EC0002B68D3F8802019688B5823F07F438B50C0
:105ED000FFF7FCFE0021012004F03CFC0121002022
:105EE000FFF7B8FE0021084604F034FC0021022030
:105EF00004F030FC0021032004F02CFC00210420DD
:105F000004F028FC4A4804F073FC10B10420FFF7A9
:105F100005FF484804F046FD10B10420FFF7FEFEDF
:105F200000210846FFF796FE00210846FFF7AEFE67
:105F30000021012004F00EFC3F49012004F092FDF5
:105F400010B10320FFF7EAFE42F21071012004F0C5
:105F500003FE10B10320FFF7E1FE01210846FFF721
:105F600079FE00210120FFF791FE0120FFF758FE86
:105F700000210220FFF76EFE01210220FFF786FEBE
:105F80000220FFF74DFE01210320FFF763FE0021F1
:105F90000320FFF77BFE0320FFF742FE1E4BD3F8E2
:105FA000042522F00042C3F80425D3F8042522F486
:105FB000407222F00102C3F80425D3F8042522F42C
:105FC0007F02C3F80425D3F8042542F00042C3F849
:105FD0000425002005F02AFD104A136823F44073BD
:105FE0001360FFF78BFE6421002005F0B1F800F08C
:105FF00071FC124801F080FA114801F07DFA114855
:1060000001F07AFA104801F077FA104802B0BDE8C2
:10601000704001F071BA00BF000026400000274028
:10602000B0540008242C011040420F000000324000
:10603000782C0110400D03009B2C01108C2C0110BA
:106040008F2C0110922C0110952C0110982C01100E
:1060500000280DDB4309012200F01F0002FA00F0C6
:106060002033044A42F82300BFF34F8FBFF36F8FF2
:10607000704700BF00E100E038B50C4C226892F890
:1060800031209042054604D340F21271084804F0D2
:10609000E5FF2268074BB2F85610B2F858000B44DF
:1060A00005FB00300123836138BD00BFB0540008F8
:1060B000A02C01100010284038B50C4C226892F832
:1060C00031209042054604D340F2C261084804F0F2
:1060D000C5FF2268074BB2F85610B2F858000B44BF
:1060E00005FB003001230361036938BDB05400088B
:1060F000A02C01100010284038B50B4C226892F8F3
:1061000031209042054604D340F27361074804F001
:10611000A5FF2268064BB2F85610B2F858000B449F
:1061200005FB0030C06838BDB0540008A02C011039
:1061300000102840013907292AD8DFE801F0151599
:10614000290429292917134B134A1968134B19607D
:1061500041F204715158596041F2087151589960E7
:1061600041F20C715258DA60002070470B4B09491C
:1061700018680860084A586841F20471505041F2AA
:10618000087198685050D96841F20C73D150EBE710
:10619000034870470017344000003440143E0008A4
:1061A000FF0042000B480022D3B2082113F0800FF9
:1061B0004FEA4303DBB201F1FF3118BF83F0120352
:1061C00011F0FF01F2D113540132B2F5807FEBD10F
:1061D000704700BF113D0008044B054A187083F852
:1061E00000020123137082F8003270471C10344003
:1061F0001C1134400C4A137843F0010313700B4B0D
:106200001A6892F86E0092F86C309168834092F8A8
:106210006F0003228240134343F00043C1F800346F
:10622000D1F80034704700BF14173440B054000850
:10623000024A137843F00203137070471417344076
:1062400010B50446002004F0D7FD0E4B19680A680B
:10625000D1F88030D3581B0E5A1C00EB5203B3FB0D
:10626000F2F3B3FBF4F39BB2013BFF2B08D8B1F878
:1062700070008968425822F47F4242EA0323435067
:1062800010BD00BFB0540008F8B53849384C394E3D
:10629000394F0523CB612046384B0B6102F066FE77
:1062A0002368374A012543F0807314602360294630
:1062B0000024304615719560147302F07FFF336837
:1062C000304943F0004333600623CB6138462E4B00
:1062D000CB6002F04BFE3B682C4A43F080732146B2
