:020000041000EA
:10000000002000080B0100100D0000006D01001021
:1000100000000000000000000000000000000000E0
:100020000000000000000000000000006901001056
:1000300000000000000000006901001069010010CC
:1000400069010010690100106901001069010010C8
:1000500069010010690100106901001069010010B8
:1000600069010010690100106901001069010010A8
:100070006901001069010010690100106901001098
:100080006901001069010010690100106901001088
:100090006901001069010010690100106901001078
:1000A0006901001069010010690100106901001068
:1000B0006901001069010010690100106901001058
:1000C00010B5064C2378002B07D1054B002B02D02E
:1000D000044800E000BF0123237010BD8C05000818
:1000E000000000000C150010044B10B5002B03D0CD
:1000F0000349044800E000BF10BDC04600000000F6
:10010000900500080C1500107047FFF7FDFF72B650
:100110000F4C104DAC4209DA21686268A368043BB9
:1001200002DBC858D050FAE70C34F3E70A490B4A0F
:100130000020521A02DD043A8850FCDC08480949C4
:100140000860BFF34F8F00F0F1F800F099F9FEE777
:1001500010150010281500108C05000880070008F5
:100160000000000808ED00E0FEE7FEE700B504200F
:100170007146084202D0EFF3098001E0EFF30880F6
:10018000043000F0DBFDFEE710B5002000F042FC7B
:1001900010BD7047F8B5E023524C9B00E2580F2386
:1001A000D0211A40930089001B1958580721084094
:1001B000032860D0042861D0414248414A49404266
:1001C00008404A494018002A67D1B223B1220321CE
:1001D000DB00D200E558A358A6581B0F360F0B4082
:1001E0000E4204D0A258120F0A40012A01D1EA0798
:1001F00001D4032B11D1B0233D4ADB00E658A158AE
:10020000E558C904C90C00F051FFB3039B0B5843D8
:10021000E901C90F013100F049FFE0239B00E358D9
:100220009B069B0FD840334B1860334B1C691969F0
:10023000240A090E013100F039FF304BE1B2186099
:10024000013100F033FF2E4B040018602D4B2E4976
:1002500018602E4BC01800F029FFFA212C4B8900A2
:1002600018702C4BE01800F021FF2B4B18602B4B23
:10027000C0031860F8BD2A490868A4E7C0211F2000
:10028000890059580140112901D0132902D1802039
:10029000000298E7FA20C00195E7013A012ABCD88C
:1002A0000327204A9E58204A99589D58090F2D0F20
:1002B00039403D4204D09D582D0F3D40012D01D1C4
:1002C000F50701D40329A8D19E5899589D587F233A
:1002D00033401F26090A3140584300F0E7FE290C3D
:1002E000314098E70000264000DC0BFF00366E012D
:1002F00084050000C800000800002140CC00000870
:10030000C0000008D400000840420F003F420F0028
:10031000DC000008E7030000D8000008D000000857
:10032000C40000083C060000FC05000010B524488D
:1003300000F0C2F8B022E0213020224CD200A358B5
:1003400089005B005B08A35063588343635080239C
:100350005B04A3501C4B1D4AE250A02204339201BF
:10036000E250FF221A4BE25000F08EFEC022012123
:100370005200A3588B43A350FFF70BFFFFF70AFF70
:10038000B0235B055A78002A02D05B78212B03D179
:100390000022104BDA605A600F4A8021032000F0DF
:1003A000A1FB0E4800F09CF90D4B1B6851331B78E4
:1003B000002B02D00B4800F001FA00F035F910BD17
:1003C0005C120010000026408405000001000200BD
:1003D0008C050000E000234030050008A805000857
:1003E0007C07000828120010024BD86F0323184026
:1003F0007047C0460400214010B500F056F8074988
:10040000074ACB6F1A40074B1343CB6710230649AB
:100410000A681A42FCD000F04CF810BD04002140DC
:10042000FCFF00000100FA058800214070B50F4C68
:10043000060000F03AF8E36F0500DB439B0701D1AB
:10044000FFF7DAFFB0230A4A9B00D650E36F094A50
:1004500009491A40094B1343E36710230A681A42FB
:10046000FCD0280000F025F870BDC04604002140F3
:1004700000002140FCFF0000880021400300FA0535
:1004800010B562B60348FFF7D1FF002000F066FD0B
:10049000FBE7C046002000100230800803D0013086
:1004A0000238FCD1C046C0467047EFF3108072B6E8
:1004B000704780F310887047014B18607047C04642
:1004C0007C0700081D4B98420FD010D840282FD031
:1004D00005D8002830D0102828D019481EE08028E0
:1004E00028D080235B009842F7D1144816E0154BC2
:1004F000984214D008D8A0231B0698421CD0124B57
:100500009842EAD1A0200BE0104B98420AD0104B41
:10051000984209D00F4B9842DFD10F487047A42072
:10052000C003FBE70D48F9E70D48F7E70D48F5E78D
:100530000D48F3E70D48F1E70020EFE70600520011
:10054000FF005200010000F0090000A0040000F0CC
:10055000050000F0030000F001005200020052000C
:10056000030052000100500002005000050052003C
:1005700070B50A4D04002B6831331B78834204D8D0
:10058000E9210748490000F0C9FB2B681A00B03286
:1005900010884443186A201870BDC0467C070008C4
:1005A0001413001010B50020FFF7E2FF0A4B1C687F
:1005B0002300B4331B68C0180368002B0ADB074B09
:1005C0001868FFF77FFF012263689A609A68002A23
:1005D000FCD110BD0248FCE77C0700082807000892
:1005E000020050000D4B10B51860002804D0FE2307
:1005F0005B42038000234380094B1B681A00503282
:100600001278002A08D051331B78002B04D0022224
:100610000449002000F070F910BDC04638070008FA
:100620007C0700084D01000810B50248FFF7DAFF0B
:1006300010BDC046400500080B4B70B51B68050097
:10064000B4331B680C00C3181B68002B0ADA0B0CB0
:1006500004D0B9210548890000F060FB0020A4B255
:100660006C6070BD0248FCE77C07000814130010A2
:1006700001008A00036870B505000C00002B0ADA3F
:10068000C2600B0C03D00549054800F047FB002071
:10069000A4B2AC6070BD0348FCE7C046CA020000CB
:1006A0001413001001008A0070B505000C1E03D160
:1006B000A321084800F032FB074B1B68B4331B68CA
:1006C000EB181B68002B03DA0020EB68236070BD79
:1006D0000248FCE77A1300107C07000801008A003A
:1006E000024B1A68002A00D1186070473C070008C6
:1006F000F7B52C4D1F002B68040000910192002BD0
:1007000003D1BF21284800F009FB2C23FF225C43C2
:100710002B683D001C193B0A3F0CA760234F134078
:1007200063603B681540256031331B789D4204D3DC
:10073000E9211F48490000F0F1FA3B681A00B03285
:10074000128855431A6A3233AD1825611B786568E3
:100750009D4204D3F7211648490000F0DFFA3B68B8
:1007600080351B6A6D01A668ED186561330C08D0F1
:100770000F4F1049380000F0D1FA0F49380000F04F
:10078000CDFA33041A0C1343AB60019BE361009B69
:1007900023620023A361089B002B01D01B88A38147
:1007A000F7BDC0463C070008DF1300107C070008B7
:1007B000141300100D0200000E020000F0B504003A
:1007C00085B0002803D15C21214800F0A7FA6368B6
:1007D000032B03D95E211E4800F0A0FAE36A002B28
:1007E00003D162211A4800F099FA236B002B03D140
:1007F0006321174800F092FAA36802AD2B80154BD5
:1008000022681B68E16ADB8EE0689B186B80636876
:10081000A26A039300952369266A676AFFF768FF57
:1008200000213B000A0000913000FFF761FF216BBF
:10083000280000F01FFA0022AB5E002B06DB1F220F
:1008400013401E3A9A401300034A136005B0F0BDEE
:10085000DF1300107C07000800E100E0F7B504009A
:100860000F00151E019304D108211D48FF3100F02F
:1008700055FA1C4E3368002B04D1842118484900D6
:1008800000F04CFA2C235C4332685F43141926694C
:10089000D719002E1FD0BB69002B1ED13368002B47
:1008A0001BDA01226368140011009C407B689940A8
:1008B0002B6809049BB20B432B60019BF5607B62A4
:1008C000BA61230C03D00849084800F027FA002039
:1008D000A4B2B460FEBD0648FCE70648FAE7C0468D
:1008E000DF1300103C070008CA02000014130010B8
:1008F00004028A0007028A00F8B5114F04003B6821
:100900000E001500002B04D1B4210E48490000F060
:1009100005FA2C2060433C682418236A002B04D17C
:10092000B6210848490000F0F9F9E369AB4204D95F
:100930000020236AAD00EE50F8BD0348FCE7C04636
:100940003C070008DF1300100A028A00002373B579
:1009500004000193984204D1DC212C48FF3100F0BF
:10096000DDF92369002B04D1EE212848490000F06D
:10097000D5F96369002B04D1DE212448FF3100F052
:10098000CDF9236A002B04D1EF212048490000F063
:10099000C5F96269D5682B0C22D01B04136013685B
:1009A0001B4B20691B68B4331B68C3181B68002BE2
:1009B00016DA01A9FFF778FE0026B0420CD10198A3
:1009C000E26903681E0CDBB29A4205D9226A9B00D9
:1009D0009B58002B00D0984731002069FFF72CFE70
:1009E000ADB2002D09D063691D6000251B68636AE4
:1009F000AB4205D098476562A56163691B6873BD0A
:100A0000A36A002BF8D09847F6E7C046DF13001022
:100A10007C07000870B5084C05002368002B04D142
:100A2000BC210648FF3100F079F92C2045432068AD
:100A30004019FFF78BFF70BD3C070008DF13001063
:100A400070B50A4D04002B6831331B78834204D8FB
:100A5000E9210748490000F061F92B681A00B0321B
:100A600010884443186A201870BDC0467C070008EF
:100A700014130010F8B5174B0D001B6831331B78A9
:100A8000834225D9002923D01F240B681C401FD185
:100A9000FFF7D6FF07002B680F4EDA082100306001
:100AA000686800F08FFB21003800FFF7C5FD2100CA
:100AB0002A003068FFF7DEFD041E07D10100306810
:100AC000FFF7BAFD03002000002B00D00348F8BD5B
:100AD0000348FCE77C0700084007000801018A0082
:100AE00003018A0010B50C00002A07D100290DD19E
:100AF000FFF7A6FF064B1860200010BD002905D0A7
:100B000004490C604A60FFF7B5FFF6E70248F4E7D6
:100B1000400700084405000803018A00F7B5184F94
:100B200004003B680191DE683368834226D90025C2
:100B3000A94202D1FFF7B9FC050038680368002B11
:100B40001ADA1F2201232240934064097268A4002C
:100B50001419226813420DD09A4322600024002108
:100B6000FFF76AFD019B002B02D12800FFF7A1FCD3
:100B70002000FEBD034CF2E7034CF3E7034CF7E71C
:100B800040070008020188000301880004018A0070
:100B90000A4B1B68DB681A6882420DD959681F230B
:100BA000420918401E3B8340920050581840431E93
:100BB0009841034BC01870470248FCE74007000803
:100BC0000001880004018A0070B5194E05003368E1
:100BD0000C001A0028321278012A15D18208072148
:100BE000100088430FD103202840C00084401B68B8
:100BF000920020339B182200FF24844019684A4049
:100C000014404C401C6070BD5B8F8B4203D180212F
:100C1000084800F083F8336807201A6880232840CA
:100C20001B06184380239B01E418A400A050EAE7A8
:100C30007C070008451400100A4B70B59B680A4EEB
:100C400010300D008400B34209D1002904D14221A3
:100C50000648FF3100F062F83059355170BD044B41
:100C60001859FBE700ED00E00000000845140010F3
:100C700000000010F8B506000D00002841D04368C0
:100C8000032B03D93C21204800F048F80023F05EF4
:100C9000002828DB7188FFF797FF0024FF22032735
:100CA00094460023F05E716883B21F40FF006646E1
:100CB000BA4089013140D243B940002815DB134EB8
:100CC00083089B009B19C026B6009F593A401143E8
:100CD00099510F4B9A680F4B9A4202D12900FFF7A6
:100CE000ABFF2000F8BD0C4CD8E70F263340083B83
:100CF000074E9B089B009B19DE6932401143D96166
:100D0000E7E7054CEDE7C0464514001000E100E0C0
:100D100000ED00E0000000080100560070B50D0075
:100D2000044C01001822200000F054FAA56101BE15
:100D3000FEE7C04650050008FEE7000002680A4BC7
:100D400010B5DA6142681A6282685A62C2689A62B1
:100D50000269DA6242691A6382695A63C2699A63F4
:100D6000FFF7EAFF10BDC04650050008B0235B0541
:100D70005A782120002A01D05878C0B27047B02399
:100D80005B059A89002A02D0988980B2704780203A
:100D90004000FBE710B5074C236831331B78002B6C
:100DA00004D1E92104484900FFF7B8FF2368186A15
:100DB00010BDC0467C0700081413001030B50400B5
:100DC00085B00D00042803D927492848FFF7A6FF5E
:100DD0006B1E012B07D9FB222B1F134203D0244982
:100DE0002248FFF79BFF234BA400E458042D01D0B9
:100DF000012D1AD100200FE0A3682B420BD1E3682C
:100E000029001A685B6802920193039302A8236881
:100E10009847194B1C606469002C04D0174B98420A
:100E2000EAD1012DE8D105B030BD022D06D1124B1B
:100E30001B68181EF7D01C6903E01C006369002BB7
:100E4000FBD10020002CEED0A3682B4209D1E3682F
:100E500029001A685B6802920193039302A8236831
:100E600098472469EEE7C046E6090000A91400107F
:100E7000E70900006807000864070008FF00420057
:100E800010B5041E03D111491148FFF747FFF222A4
:100E9000104BD2011B68DB689A582260F022D20105
:100EA0009A5862600C4A9A58A2600C4A9A58E260BA
:100EB0000B4A9A5822610B4A9A5862610A4A9A5818
:100EC000A2610A4A9B58E36110BDC046D50A0000E2
:100ED000A91400107C0700080478000008780000BE
:100EE0000C780000107800001478000018780000DA
:100EF00010B5041E03D110491048FFF70FFFF02270
:100F00000F4B61681B68D201DB689950A1680D4ADC
:100F10009950E1680C4A995021690C4A99506169CD
:100F20000B4A9950A1690B4A9950E1690A4A9950B4
:100F30002168E832995010BDFD0A0000A914001084
:100F40007C07000804780000087800000C78000096
:100F5000107800001478000018780000F7B507003A
:100F6000012803D940494148FFF7D8FE404D6B683E
:100F7000002B4AD1FFF799FA6B680190002B56D1EC
:100F80003C4E33681A0043321278002A07D09B681F
:100F9000E0331B68DB0602D53748FFF771FFFFF728
:100FA000EEFE80235B00984246D1380000F034F911
:100FB000002433681A0043321278002A17D0002820
:100FC00015D09B68E0331B68DB0610D5FFF7CEFE1B
:100FD000294B212808D032681300B0331988072321
:100FE0004B43126A9B18DB681800FFF781FF0198DA
:100FF000FFF75FFA002C0ED16B68002B03D008219D
:101000000120FFF7DBFE2000FEBD01210800FFF7F5
:10101000D5FE041EAED06B68002B03D00221012048
:10102000FFF7CCFE154B9C42EDD0154CEBE70421AD
:101030000120FFF7C3FEA3E7FFF7ACFE3368B4332C
:101040001B68C0180368002B0BDB04230D4A1169D1
:101050000B431361012F02D030BF0020A8E720BF4F
:10106000FBE70020054CA4E7AF020000A914001024
:10107000680700087C0700084407000805004200D4
:10108000FF00420000ED00E0C0228020064952002F
:101090008B58C0059B009B0803438B5080238858C6
:1010A0001B0603438B507047000026400022430874
:1010B0008B4274D303098B425FD3030A8B4244D320
:1010C000030B8B4228D3030C8B420DD3FF22090262
:1010D00012BA030C8B4202D31212090265D0030B21
:1010E0008B4219D300E0090AC30B8B4201D3CB0317
:1010F000C01A5241830B8B4201D38B03C01A524159
:10110000430B8B4201D34B03C01A5241030B8B425A
:1011100001D30B03C01A5241C30A8B4201D3CB0245
:10112000C01A5241830A8B4201D38B02C01A52412A
:10113000430A8B4201D34B02C01A5241030A8B422D
:1011400001D30B02C01A5241CDD2C3098B4201D345
:10115000CB01C01A524183098B4201D38B01C01AC3
:10116000524143098B4201D34B01C01A524103093A
:101170008B4201D30B01C01A5241C3088B4201D3E9
:10118000CB00C01A524183088B4201D38B00C01A96
:10119000524143088B4201D34B00C01A5241411ABD
:1011A00000D20146524110467047FFE701B50020CA
:1011B00000F006F802BDC0460029F7D076E7704778
:1011C0007047C04603001218934200D1704719704F
:1011D0000133F9E730B50500002A00D130BD0C78A5
:1011E000013A6B1C2C700131002C05D19A189A42DF
:1011F000F4D01C700133FAE71D00EDE7F8B5C046E6
:10120000F8BC08BC9E467047F8B5C046F8BC08BCA0
:101210009E4670470000000001B40248844601BCAD
:10122000604700BFA90200080300000001000000A1
:101230000100000000000000050360000400000041
:101240000100000000000000010000000604600032
:101250000800000008070008890100100000214074
:101260000000254000000140000034400000244000
:10127000000031400000324000001F4100002340C8
:1012800000001140010101010101010101101010D4
:10129000800019005500F0000501053B04101C01F9
:1012A000010000000FC00000000400000101010166
:1012B000011D3A577896000820001012080000001F
:1012C000001F00000010000F002000023F06080E63
:1012D00000080009000A000B24282C30340000000C
:1012E00010000000900000008800000008000000CE
:1012F0008000000004F0000000F000004002000048
:101300002005A000D00100018001A0012000000004
:1013100010000000433A2F55736572732F6F687584
:10132000642F4D6F647573546F6F6C626F785F32AA
:101330002E302F6C69627261726965732F70736FE2
:10134000633673772D312E322F636F6D706F6E653C
:101350006E74732F70736F633670646C2F64726970
:10136000766572732F696E636C7564652F63795F40
:101370006970635F6472762E6800433A2F55736517
:1013800072732F6F6875642F4D6F647573546F6F30
:101390006C626F785F322E302F6C69627261726995
:1013A00065732F70736F633673772D312E322F6311
:1013B0006F6D706F6E656E74732F70736F633670C0
:1013C000646C2F647269766572732F736F757263C4
:1013D000652F63795F6970635F6472762E63004383
:1013E0003A2F55736572732F6F6875642F4D6F6454
:1013F0007573546F6F6C626F785F322E302F6C692B
:10140000627261726965732F70736F633673772DC3
:10141000312E322F636F6D706F6E656E74732F7027
:10142000736F633670646C2F647269766572732FA4
:10143000736F757263652F63795F6970635F70693D
:1014400070652E6300433A2F55736572732F6F6872
:1014500075642F4D6F647573546F6F6C626F785F36
:10146000322E302F6C69627261726965732F7073EE
:101470006F633673772D312E322F636F6D706F6E01
:10148000656E74732F70736F633670646C2F647243
:1014900069766572732F736F757263652F63795FF9
:1014A000737973696E742E6300433A2F55736572B6
:1014B000732F6F6875642F4D6F647573546F6F6C05
:1014C000626F785F322E302F6C696272617269656B
:1014D000732F70736F633673772D312E322F636FD6
:1014E0006D706F6E656E74732F70736F633670649A
:1014F0006C2F647269766572732F736F7572636592
:101500002F63795F737973706D2E630000000000A4
:101510000000001000000008C0000000301500109E
:10152000C0000008700400008C050008F4010000F1
:1015300000093D000048E80100127A0000093D0062
:101540000000D00700093D00A00F000004000000CB
:10155000E9000010C100001080B230B5C00020D0FA
:10156000104B07221C682300B0331B885A43236AA0
:10157000D31819680029FCDA3E210B4B06251960A7
:101580000A4B0B491960A3210A4BC9005D500A4957
:1015900058505858206A1218002050605A58002A93
:1015A000FCDA30BD7C070008040126400801264013
:1015B0001E1F0000000026401C05000010B54378E7
:1015C000FF2B11D100F0B4F90400032000F0A8F9BA
:1015D000C3685A68012311681943116011681942E0
:1015E000FCD1200000F0BCF910BDF7B50090002040
:1015F000019100F095F93F4D06002B681A00503319
:10160000B43214681B780419002B5AD000F078F912
:10161000070003281BD000F08BF9374A374B050031
:10162000D358002B3EDA364A0121300000F0A8F9E9
:10163000002837D10198FFF78FFF009B002B3ED089
:101640002368002BFCDB00F063F904002BE006208C
:1016500000F066F92B68B4331B68C0180368002BD0
:1016600002DA284C2000FEBD002000F071F9264B64
:101670009842F6D00023254A19001268012000F094
:1016800077F90025A842ECD1002000F061F91E4A4C
:101690001F4B904203D09D42E3D00135F4E79D42B9
:1016A000B9D1DEE7174C032F05D10121002000F04E
:1016B0006FF90028F9D1280000F052F9D2E7154C53
:1016C000F1E700F035F90E4A05000121300000F085
:1016D00057F9002809D1009B002B08D02368002B64
:1016E000FCDB00F015F90400E5E7064CE3E7094CE4
:1016F000E1E7C0467C070008000026401C0500000A
:10170000280700080500520001018800380700087A
:10171000F049020001005000F7B56E4D04002A6840
:10172000536800931300B033198807234B43126AA0
:101730009B181A68002AFCDA00F002F92A681300E4
:10174000B033198807234B43212800D096E0116A53
:101750005B180221D8680143D960D968C9072FD521
:1017600008208446944460461600D968C06F0191F1
:101770001168883608183568076849190D683902F4
:10178000FF273F040F40694689882D0A2D063943FB
:101790002943D960902103684F4D09012B400B4329
:1017A0000360136830681B181868054029431960E6
:1017B00013686246D26F9A18126832689B181B68C9
:1017C000444D2A681300B033198807234B43126A2B
:1017D0009B1800225A600423404A11690B4313618D
:1017E000012C50D030BF2A681300B033198807236A
:1017F0004B43126A9B181A68002AFCDA00F0A0F822
:10180000212842D1296807220B000124B0331B880C
:1018100000205A430B6AD318DD6825421CD008000B
:1018200008300D68C06F2C4E28180568DB683540FD
:101830001B0C1B061B0C2B4303600B008833186822
:101840000B6818180B6A0568D318DB682E401B0E4E
:101850001B023343036020000B6A0221D218D368B5
:101860008B43D3601B4B1A681300B03319880723CE
:101870004B43126A9B1800225A60FEBD126A9B18E5
:10188000174ADA609CE720BFADE70020009BFC33DD
:101890001B698342E6D1A320124B1349134A144F0C
:1018A000C0000E681D5814680F6006271F503E20A8
:1018B000106010483E371F501F58002FFCDA009868
:1018C0000D4FFC3007610E60A321C9005D5001205F
:1018D0001460C7E77C070008FF00FFFF00ED00E091
:1018E0004407000800002640080126400401264065
:1018F0001E1F00001C050000AAAAAAAA00000000E2
:1019000001B40248844601BC604700BFE9030010EF
:1019100001B40248844601BC604700BFA505001021
:1019200001B40248844601BC604700BF7105001045
:1019300001B40248844601BC604700BFAB040010FC
:1019400001B40248844601BC604700BF6D0D001021
:1019500001B40248844601BC604700BF910B0010EF
:1019600001B40248844601BC604700BFB3040010C4
:1019700001B40248844601BC604700BF5D08001006
:1019800001B40248844601BC604700BF75060010E0
:1019900001B40248844601BC604700BF1D0B001023
:1019A0000000000000000000000000000000000037
:1019B0000000000000000000000000000000000027
:1019C0000000000000000000000000000000000017
:1019D0000000000000000000000000000000000007
:1019E00000000000000000000000000000000000F7
:1019F00000000000000000000000000000000000E7
:1020000000780408677200100D000000C13900104C
:10201000C7390010CD390010D3390010000000007E
:102020000000000000000000000000003D4D001016
:10203000C572001000000000D54D0010E54D0010E5
:10204000C5720010C5720010C5720010C572001074
:10205000C5720010C5720010C5720010C572001064
:10206000C5720010C5720010C5720010C572001054
:10207000C5720010C5720010C5720010C572001044
:10228000C5720010C5720010C5720010044B0548DD
:102290001B1A062B02D9044B03B11847704700BF25
:1022A0002B330008283300080000000005490648C9
:1022B000091A891001EBD171491002D0034B03B107
:1022C0001847704728330008283300080000000032
:1022D00010B5064C237843B9FFF7D8FF044B13B170
:1022E0000448AFF300800123237010BDD0330008F1
:1022F00000000000B082011008B5084B1BB108496E
:102300000848AFF300800848036813B9BDE80840E7
:10231000CCE7064B002BF9D09847F7E70000000008
:10232000D4330008B08201108C2E00080000000099
:10233000134B002B08BF114B9D46A3F5803A00219B
:102340008B460F461148124A121A0BF0B7FD0D4B7F
:10235000002B00D098470C4B002B00D09847002052
:10236000002104000D000B4802F004F80BF0CEF839
:102370002000290002F0CAFB02F0AAF900000800C0
:102380000078040800000000694A0010D0330008FB
:10239000D056000811CB00100B4B10B503F12002F2
:1023A00003608C330446C0F88021C0F8843100F506
:1023B000CC7002F051FB04F5C07001F0CFFA20465A
:1023C00000F060FA204610BD34550110A0F5C07031
:1023D000E2E7A0F5C270DFE783B50023032168467A
:1023E00000938DF804308DF8053000F059FE284D2B
:1023F000284E294F2946304601F0C2FA009C621C43
:1024000004D146222549264801F0A2FCC4F307481E
:102410003A68B8F10E0FD4BF9269D2F81880E4B2CE
:10242000D8BF02EBC818082C04DD40F213311D4858
:1024300009F050FBD8F81030E340009C03F001098C
:10244000631C01D13B22DDE7C4F307483B68B8F1C8
:102450000E0FD4BF9A69D3F81880E4B2D8BF02EB4C
:10246000C818072C04DD40F231310E4809F032FB68
:10247000012303FA04F4B9F1000F06D0C8F80440B0
:102480004FF4FA7004F0CAF8B4E7C8F80840F7E768
:10249000305401106C350008C8560008385401103B
:1024A000745401109354011010B50446FFF774FFE3
:1024B00020464FF4DE7102F041F9204610BDA0F530
:1024C000C070F1E7A0F5C270EEE7000010B5084C4F
:1024D00008494FF4E02220464FF4E13300F0CEF8F3
:1024E0002046054A0549BDE8104001F041BF00BF44
:1024F000EC330008010007008C220008992300102B
:10250000C36810B504460BB19B689847204610BDC0
:1025100038B50546064B45F8283B044600F038FA26
:102520002846FFF7EDFF204600F0DAFA204638BDD6
:102530000C56011010B50446FFF7EAFF2046402173
:1025400002F0FCF8204610BDF8B50546074655F8E0
:10255000044B94B90D4E306818B14FF0FF3103F0C1
:10256000B7FA3C682CB915B1284602F033FA3D6041
:102570002C46306808B103F0C3FAAC4204D08B2279
:102580000349044801F0E4FB2046F8BD3844000844
:10259000E45401100655011008B5282002F0BCF8DB
:1025A0004FF0FF31031F00F1240243F8041F934250
:1025B000FBD1014B186008BDA835000838B50D46A1
:1025C0001022002104460BF079FCEB681BB15B681C
:1025D000294620469847EB68E360204638BD88428C
:1025E00038B504460D4606D0FFF78AFF1CB12946D0
:1025F0002046FFF7E3FF204638BDC36810B5044608
:102600000BB19B689847204610BD6FF015007047CE
:1026100003681B69184703689B69184703689B6A2E
:10262000184700290CBF6FF01800002070470120E8
:1026300070476FF0150070476FF01500704711205C
:102640007047704700F06AB8A0F5C070FFF7FABF96
:1026500000F067B8A0F5C070FFF7FABF00F5CC70C6
:1026600002F0C0B9A0F5C070FFF7F8BF00F5CC705C
:1026700002F0D6B9A0F5C070FFF7F8BF10B5044658
:1026800000F056F8002104F5C07001F03DF9084B48
:1026900003F10802226003F128029433C4F8802178
:1026A000C4F8843104F5CC7002F094F9204610BDD2
:1026B0002C5501107047704710B4446800F10801B0
:1026C0000EC95CB103F0010002B938B15B1008B16A
:1026D000E0588258E0185DF8044B10475DF8044B51
:1026E0007047000000EB011303F5AE73DA6810B514
:1026F0007AB100EB0110D0F868212AB94FF40F72BB
:102700000449054801F024FB12681846BDE8104052
:10271000104710BDC8550110E6550110443005F0B2
:10272000EDB810B544300C4605F000F9204610BD58
:102730002DE9F04F04469346314A026087B00025E8
:102740001026304AA0608A46C56005614561426036
:10275000856105774577324629462030019304F19B
:1027600044070BF0ABFB3246294604F130000BF076
:10277000A5FB04F5AE79294684F8405084F8415011
:102780004FF48C7238460BF099FB04F5B67832465C
:10279000294648460BF092FB3246294640460BF04C
:1027A0008DFB019BC4F87C313246294602A80BF010
:1027B00085FB02A94846FFF712FF02A8FFF7A0FE1B
:1027C0003246294602A80BF079FB02A94046FFF7E2
:1027D00006FF02A8FFF794FE5A465146384604F019
:1027E000F3FFD4F87C11384605F044F83846224609
:1027F000054905F055F8204607B0BDE8F08F00BF49
:10280000F4550110B9260010E52600102DE9FF410E
:102810000646884656F8443B17461B6805463C0169
:10282000984701F047FBD8F80C3004F5AE742C44FF
:10283000ABB1E3680BB901F09DFC41462046FFF7C0
:10284000CEFE01223946304605F02FF801F048FB54
:102850002B6828465B68984704B0BDE8F081E368C0
:102860000BB101F0A1FC1022002168460BF026FB01
:1028700069462046FFF7B3FE6846FFF741FE002297
:10288000E0E700007FB51C4B0360044610220021E6
:1028900068460BF013FB002269462046FFF7B6FF9F
:1028A0006846FFF72DFE1022002168460BF006FB5C
:1028B000012269462046FFF7A9FF6846FFF720FE80
:1028C00014F5AE7608D004F5BE75B54204D0103DBF
:1028D0002846FFF715FEF8E704F13000FFF78DFEFC
:1028E00004F12000FFF789FEA06908B100F09EFE08
:1028F000204604B070BD00BFF455011010B5044669
:10290000FFF7C0FF20464FF4C07101F017FF2046CB
:1029100010BD70B5D0E90823D0E90245064612196A
:102920006B4100F0CDF8736B2BB106F128001B68EA
:10293000BDE87040184770BD10B5044600F0A8F817
:102940002046064B40F8283B102200210BF0B6FA37
:10295000012384F83830204610BD00BF0C5601100A
:10296000D0B5044616461F4601F0A4FA204600F0F2
:10297000B1F8C4E90867A06900F022FE321847EBFD
:102980000103204600F09CF8BDE8D04001F0A8BA51
:102990001FB5044601F08EFA204600F09BF8636BE9
:1029A00013B194F8383083B91022002168460BF037
:1029B00085FA694604F12800FFF711FE6846FFF723
:1029C0009FFD01F08DFA04B010BD01F0EDFBEBE7C7
:1029D000F8B504461F460D46164601F06BFA636BC8
:1029E00013B994F838306BB9294604F12800FFF781
:1029F000F6FD32463B462046FFF7B2FFBDE8F84001
:102A000001F06EBA01F0B6FBEEE7000010B5034B23
:102A100003600446FFF77CFD204610BD20560110E0
:102A200010B50446FFF7F2FF2046402101F086FE74
:102A3000204610BD30B5044685B000F128051022AF
:102A4000002168460BF03AFA636B1BB15B682946BC
:102A500068469847636B03932046FFF799FF039BF3
:102A60002BB94FF40F720649064801F071F91B6843
:102A7000684698476846FFF743FD05B030BD00BF84
:102A8000C8550110E655011003689B6818470000FF
:102A9000094B10B5002203600023C0E90223002384
:102AA00003614361044600F0B3FD0449A06100F0F6
:102AB000FDFC204610BD00BF34560110892A0010CD
:102AC00007B5009000F10801806900F02EFD03B009
:102AD0005DF804FB00F10801806900F056BD0000BC
:102AE00010B5034B03600446FFF7F4FF204610BD0A
:102AF00034560110036801221B690021184703683E
:102B000000221B69114618477047704730B54FF4D3
:102B10007A7440F271256143B1FBF5F189B2032962
:102B200083809DF80C30837198BF0423018098BF87
:102B300003800388B3F5804F88BF4FF4804304FBC4
:102B400002F2B2FBF5F292B288BF0380032A98BF6B
:102B50000423428098BF43804388B3F5804F84BFED
:102B60004FF48043438030BD03680BB108461847DB
:102B700070470000044B00221A605A609A601A6184
:102B8000024ADA60704700BFAC350008692B0010BC
:102B90000346002210B503F8012B00F1110403F8DD
:102BA000012BA342FBD1418210BD000008B542F6C3
:102BB00002110248FFF7ECFF08BD00BFC035000856
:102BC00007B500234FF48042009311460248FFF7F7
:102BD0009DFF03B05DF804FBD4350008034610B137
:102BE00007C983E807007047704742688168036837
:102BF00012F0010F4FEA62021CBF8858C3588818B0
:102C0000184738B504460D4601F054F994F857308A
:102C10002BB994F8563013B994F854308BB104F1B1
:102C20000800FFF7B5FE002384F8553084F85630CD
:102C300084F857300DB12046A847BDE8384001F070
:102C40004FB9A36CDB689847F7E710B5044601F06D
:102C500031F9A36C9B689847BDE8104001F040B97A
:102C600010B5044601F026F9A36CDB689847BDE86F
:102C7000104001F035B910B5044601F01BF90123ED
:102C800084F85730A36C5B699847BDE8104001F0A9
:102C900027B910B5044601F00DF9A36CDB6998471C
:102CA000044601F01DF9204610BD000038B5044669
:102CB00001F0FDF820B9C2221749184801F048F880
:102CC00004F10800FFF764FE002384F8553084F80F
:102CD000563084F85730E36523666366A36C01229F
:102CE00084F85820DB69984742681F2A05460BD9AB
:102CF0004FF0FF33A3662A6802F5742303F23F23E3
:102D0000B3FBF2F3E36638BD0120002111F05CFD56
:102D10000138A066EFE700BF4C5601107456011051
:102D200010B5044601F0C6F82046FFF7BFFFA36CBC
:102D30001B689847BDE8104001F0D2B810B50446B2
:102D400001F0B8F82046FFF7B1FFA36C9B699847E4
:102D5000BDE8104001F0C4B8F8B504460E4608308E
:102D600017461D46FFF7E8FD0B4BA3603368A364CD
:102D7000069B013323650135002384F85430E56454
:102D800001F098F87368636020462760FFF78EFFB4
:102D900001F0A6F82046F8BD2056011038B50446CB
:102DA0000D4601F084F820B9F0220949094800F0E5
:102DB000CFFF94F8560050B1236EE26D934206D0D7
:102DC0002946184600F064FA003018BF012038BDCB
:102DD0004C5601107456011038B5044601F06AF8DB
:102DE000A36C5B68984794F8543005463BB901469C
:102DF0002046FFF7D3FF10B1A36C5B69984701F041
:102E00006FF8284638BD000038B505460C4601F07D
:102E10004EF820B9FC220449044800F099FFE86EFE
:102E20006043043038BD00BF4C5601107456011089
:102E3000F0B585B004460D4601F039F828B94FF4D5
:102E400082723349334800F083FF94F85830A16E02
:102E500043B9636EE26CEB1A0B40934224BF01232B
:102E600084F85830E06D94F85830276D451B0D40BC
:102E700013BB94F85560002E33D1314610226846BA
:102E80000BF01CF8244B0093BD42244B02942946BE
:102E9000039328BF39462046FFF7B6FF00230246BA
:102EA000694604F10800FFF793FD6846FFF728FB29
:102EB000012384F8553014E0BD4227D3A36C1B696D
:102EC0009847A36C5B689847002384F85830E36DFB
:102ED0006066181AA36E1840854204D2A36C5B6921
:102EE000984705B0F0BD236D9842FAD2256D854212
:102EF00028BF05460021102268460AF0DFFF064B76
:102F00000093064B029403932946C4E72846EDE755
:102F10004C56011074560110652F001040560110D8
:102F200038B504460D4600F0C5FFA36C5B689847B2
:102F3000012384F8563094F8543020660146E56544
:102F400033B92046FFF774FFBDE8384000F0C8BF32
:102F5000A36C28461B699847236E6366002384F898
:102F60005830F1E738B5044600F0A4FF002384F898
:102F70005530A36C5B689847E26D0546206E904221
:102F80000BD0294600F084F938B929462046FFF7CE
:102F90004FFFBDE8384000F0A3BFA36C5B699847C2
:102FA000F7E70000EFF31083DB4372B6044A1178B1
:102FB00029B9044903F001030B7001231370704712
:102FC000DD350008DC35000808B5EFF31083DB07BA
:102FD00004D436220549064800F0BAFE054B00220B
:102FE0001A70054B1B7803B162B608BD94560110E8
:102FF000BE560110DD350008DC350008014B18789D
:10300000704700BFDD3500080C4B1B6870B5C0F37E
:1030100007429D690E2AC4B2D8BF05EBC215072C22
:103020000E4604DD40F23131054808F053FD01231E
:10303000A3400EB96B6070BDAB6070BDC856000890
:103040009354011038B504460068431C0D4604D162
:103050003B220949094800F07BFE111C18BF0121E1
:10306000FFF7D2FF2046012104F003FB294620464A
:10307000BDE8384004F0FABA385401107454011015
:1030800070B50E460446154604F0D2FA013606D055
:103090002A4620460621BDE87040FFF7D3BF70BD29
:1030A0000022FFF7EDBF0000014800F051B800BF5B
:1030B000D8560110014B186800F034B8902200086F
:1030C000014B1868FFF7E5BD20360008014B186872
:1030D000FFF734BE20360008014B1868FFF7CBBD60
:1030E00020360008024B01461868FFF719BF00BFE1
:1030F00020360008014B1868FFF7B2BD20360008E3
:10310000014B1868FFF7A1BD20360008014B186875
:10311000FFF762BE20360008014B1868FFF700BEBB
:103120002036000810B5044600F0C4FE064B1B789C
:103130000BB9FFF7B9FF054B21461868FFF761FD92
:10314000BDE8104000F0CCBE9836000820360008DC
:10315000F7B50B4D0B4C074600F0ACFE2B7853B97E
:10316000094E0A4A0323009339463046FFF7F4FD1F
:10317000012326602B7000F0B3FE206803B0F0BD81
:103180009836000820360008283600080457011039
:103190002DE9F74FD0F804A09AF83A300446002BF6
:1031A00046D103685B68984763681B6A98423FD0C2
:1031B000DAF82030DAF80840CAF82000A0EB03085B
:1031C000DAF80C30314808EA0308844246464FF0EA
:1031D000000727D0DAE90A239AF83BB0A8FB008958
:1031E000CDE900230025BBF1000F2BD05A46404605
:1031F000494611F0DDFADDE9002312EB080243EB4A
:10320000090390465A46994606460F4611F0DCFAE5
:10321000B8EB000069EB0101A94208BFA0420AD245
:10322000CAE90A01DAE90C23B6185F41CAE90C675A
:1032300003B0BDE8F08F013647F10007001B61EBDA
:103240000501EDE722462B464046494611F058FF5E
:10325000224606460F46404649462B4611F050FF8F
:10326000DDE9008918EB020849EB0309A94508BF0D
:10327000A04502D2CAE90A89D4E7013647F100071E
:10328000B8EB040869EB0509F4E700BF40420F0002
:10329000824206D98A420BD9884294BF002001207D
:1032A0007047884206D98A428CBF002001207047AF
:1032B00001207047002070472DE9F14F476897F8CB
:1032C0003A300646002B60D197F83930002B5CD19C
:1032D000FFF75EFF75686B68002B59D0D5E90C8944
:1032E000D3E90001894508BF804505D333685B6990
:1032F00001B0BDE8F04F1847D5E90623B0EB080848
:1033000061EB09094B4508BF42452C6906D3AB6800
:10331000254A93420FD1444528BF44462A6A3B6A56
:103320001444EA681440A34221D14FF484721F4927
:103330001F4800F00DFD95F83B20DFF878A04FF016
:10334000000B7AB14046494611F03EFA10EB0A00F4
:1033500041EB0B01144A002311F0D2FE844228BF36
:103360000446DBE7A3FB080103FB0911EEE7336822
:1033700020461B69984733685B6898472246014698
:10338000386AFFF785FF0028B0D101B0BDE8F08FA3
:103390003B69386AFA68184433681B69104001B009
:1033A000BDE8F04F184700BF40420F0028570110FA
:1033B000485701103F420F002DE9F04F436893F842
:1033C000382085B00546002A66D193F83A30002BA4
:1033D00062D103681B6898472B68DB6998470768C8
:1033E00027B92D222E492F4800F0B2FC1F230122BD
:1033F00002FA03F18F425FFA83FB02D0013BF7D15F
:103400009B46D0F804A0AAF104031C2B01D93B224F
:10341000E8E7072617F1FF3006FA03F6224C4FF0D3
:10342000000343F1FF313A46C4FB060111F068FE88
:103430006C682A6800232360636052680393CDE9B7
:103440000001904720626C684FF000084FF00009BF
:103450005246C4E90A89A76084F83BB001200021E4
:1034600011F0B2F9DDE90023C4E90623039B84F8D7
:10347000393084F83A3001380123E060266128466B
:10348000C4E90C8984F83830FFF782FE284605B07D
:10349000BDE8F04FFFF710BF05B0BDE8F08F00BFEB
:1034A000285701103C58011040420F0038B505461E
:1034B0000C46FFF781FF00F0FDFC6B681C60BDE867
:1034C000384000F00DBD70B5044600F0F3FC2368F1
:1034D000DB689847636893F83A201AB1BDE87040FA
:1034E00000F0FEBC012283F8392063685B68A3B159
:1034F0002046FFF74DFE65686E68D5E90C01D6E9F8
:103500000023994208BF904207D3F3686B602B6891
:10351000002BEAD0B0689847E7E76368002283F899
:1035200039202046FFF7C8FED8E72DE9F8430546C5
:103530000C4616461F46DDF8208000F0BBFC2846EE
:10354000FFF726FE6A68C4F80880C4E9006753687C
:10355000002133B9E36069B954602846FFF7ACFE37
:103560000FE0D3E900894F4508BF4645F2D319461D
:10357000DB68EEE7D2E90C23BB4208BFB242CC6065
:10358000EBD2BDE8F84300F0ABBC38B505460C46BD
:1035900000F090FC6A685368A34209D1DB6853606D
:1035A0002846FFF789FEBDE8384000F099BC134675
:1035B000002BF8D0DA689442F9D1E268DA60F2E7D9
:1035C00038B50446FFF7F8FE00F074FC2046FFF71C
:1035D000DFFD6368D3E90C4500F082FC20462946F4
:1035E00038BD08B5FFF7ECFF08BD0000024B002214
:1035F0001A7004F0F5BA00BFE043000808B504F003
:103600002DFA024B01221A7008BD00BFE0430008EA
:10361000004870476C570110024B1B680BB1024801
:1036200018477047942200086C570110024B1B6822
:1036300003B11847704700BFE0360008007B7047B1
:1036400038B504460C4B036000234360A16002734D
:103650000A480D46FEF778FF01F0C4F955B1084B52
:103660001A6862601C600548FEF76EFF01F0D8F929
:10367000204638BD6560F6E7A8570110E836000817
:10368000E4360008144B10B5036004461348FEF7F7
:103690005BFF01F0A7F9A3682BB1114A13689C42A4
:1036A00014D1636813600F4B0C481A68944204BF2E
:1036B00000221A60FEF748FF01F0B2F9237B13B92C
:1036C000201F01F03DF8204610BD13465A68944271
:1036D000FBD162685A60E6E7A8570110E836000897
:1036E000E43600081037000810B50446FFF7CAFF9B
:1036F0002046102101F022F8204610BDF8B50746FB
:1037000017480D46FEF720FF01F06CF9154B1C68B9
:10371000A4B1A66886B130460AF052FFA8420BD188
:103720002A46394630460AF09BFA28B90C48FEF77B
:103730000BFF01F075F911E06468E9E7072DF5D199
:103740002A46394608480AF08BFA0028EED1044888
:10375000FEF7FAFE01F064F9044B1C682046F8BD40
:10376000E8360008E43600089857011010370008C2
:103770000020704700207047036870B51B69012264
:10378000002104469847051E0DDB236802221B69B1
:103790000021204698472368064629461B690022D7
:1037A000204698473546284670BD000070B50E4645
:1037B00000250446056045600E4930460AF0A0FF2A
:1037C00030442060294623681A782F2A07D1013314
:1037D000236051B92A220849084800F0B9FA002AA2
:1037E000F7D0013301312360EDE7FFF787FF606019
:1037F000204670BD0C5801100E58011035580110AC
:1038000000687047406808B520B1FFF717FF431EF6
:103810005842584108BD10B50446FFF7F3FF10B1F8
:10382000606800B1043810BD406808B520B1FFF7EA
:1038300005FFB0FA80F0400908BD10B50446FFF757
:10384000F3FF10B1606800B1043810BD406800306B
:1038500018BF01207047F8B50368DB6D0E460446BB
:103860008F1898473546BD4207D0236815F8011BCD
:103870005B6D204698470130F5D1236820461B6ECA
:103880009847A81BF8BDF8B50368DB6D0E460446E3
:103890008F1898473546BD4208D0236820469B6D57
:1038A0009847431C02D005F8010BF4E72368204633
:1038B0001B6E9847A81BF8BD00207047704700207A
:1038C000704700207047000010B5054B03605C3363
:1038D000044640F8043FFFF7D5FE204610BD00BF68
:1038E00048580110A0F10400EEE700BF10B50446EF
:1038F000FFF7EAFF2046142100F020FF204610BD0C
:10390000A0F10400F2E700000F4B13B500220446BB
:1039100040F8043BFFF794FE0C4B23606C3363606C
:10392000002363610A49204600F05EFF03466061A0
:1039300028B9009002460749074800F0F5FB00F05F
:103940001BFD204602B010BDB8570110CC58011025
:10395000AC580110AF5801101901018010B5074B88
:1039600003F108027433044602604360406908F0C2
:10397000F5FE2046FFF7A8FF204610BDC4580110F1
:103980000EB477B5036807AD044655F8046BDB6DDC
:103990009847012200216069019509F059FA019ABE
:1039A000606931460EF010FA236805461B6E20460A
:1039B0009847284603B0BDE8704003B07047000048
:1039C000102300F009B8202300F006B8302300F0DF
:1039D00003B8402300F000B8EFF3088004217246DA
:1039E0000A4201D0EFF309809C46254B1968026812
:1039F0000A60043142680A60043182680A60043156
:103A0000C2680A600431F0C147460F6004314F4676
:103A10000F60043157460F6004315F460F60043178
:103A200002690A60083142690A60043182690A60E9
:103A30000431C2690A600431034620334FF4007632
:103A4000324200D0043375461026354200D1483347
:103A50000C46103C2360EFF309820A600431EFF357
:103A600008820A60043172460A600431EFF314825E
:103A70000A606046024B196800F07AF8FEE7000021
:103A800040590110F0B52C4C2C4F85B0002526462E
:103A900054F8252029463846013500F0EFF90D2D60
:103AA000F6D1A36C0293636C0193236C009304F131
:103AB0003401234C23480EC900F0E0F92168224864
:103AC00000F0DCF9E16AA26AA36AA06A256BE76BE1
:103AD0000297000C01950090C3F30723D2B21B4854
:103AE00000F0CCF9A36A1D0603D5616B184800F0FD
:103AF000C5F9A36A180403D5A16B164800F0BEF9F6
:103B0000F36C190712D5144800F0B8F9336DDA07D1
:103B10000FD5124800F0B2F9F36C5B074CBF1048A8
:103B2000104805B0BDE8F04000F0A8B90E4800F01C
:103B3000A5F90E48EEE700BFE4430008D459011090
:103B400000ED00E0E2590110315A01103F5A011016
:103B50008E5A01109C5A0110AA5A0110B95A01102C
:103B6000E95A0110F55A0110D95A0110C65A01102C
:103B700013B50446154800F081F9302C17D0402CBD
:103B80001AD0202C1DD11248124C00F077F912489F
:103B900000F074F9FFF776FF104800F06FF900238A
:103BA0000F4A0093D26B0F49204600F0BDFA0E4831
:103BB0000E4C00F063F9EAE70D480E4C00F05EF998
:103BC000E5E70D480D4C00F059F9E0E744590110C4
:103BD0006D5901103E01FF809A590110A55901103D
:103BE000E4430008C45901107C5901103F01FF80D3
:103BF000855901104001FF80905901103D01FF805F
:103C0000F8B515460C4699B151F8087C95B128468F
:103C100009F016FD064648B1AF423A46214628BF94
:103C20002A460AF04DF8204609F012FD3046F8BD4C
:103C30000F46EBE72E46F9E738B502FB01F42046C4
:103C400009F0FEFC054618B1224600210AF036F9BB
:103C5000284638BD38B5054619480C46FEF774FCB1
:103C600000F0C0FE04F10801284609F0F9FC154BEC
:103C700000B39968144A046021444260996019694C
:103C80001A6801311961596822448A421A6050F851
:103C9000041C88BF5A609A6921F00101141B214459
:103CA00000F1080599610648FEF74EFC00F0B8FEE9
:103CB000284638BD5A6901325A610546F3E700BF0C
:103CC0003037000814370008EFBEADDE00B572468D
:103CD0005DF804EBFFF7BEBF38B5054616480C4645
:103CE000FEF732FC00F07EFEECB154F8042C134BCE
:103CF0009A421FD154F80C3C54F8082C23F00101CF
:103D0000002344F8043C0E4B1868801A18601869A8
:103D10000138186198690244521A9A61A4F10801A5
:103D2000284608F0ADFF0448FEF70EFCBDE8384019
:103D300000F076BE2146F3E730370008EFBEADDE77
:103D40001437000800B572465DF804EBFFF7C4BFF6
:103D500007B50B46009201460022014800F0E4F945
:103D60004401FF80431C70B50E4604D13B220E492E
:103D70000E48FFF7EDFF0E4B1B68C0F307429D692D
:103D80000E2AC4B2D8BF05EBC215072C04DD40F2E1
:103D90003131084807F09EFE012000FA04F40EB904
:103DA0006C6070BDAC6070BD38540110745401106B
:103DB000C85600089354011007B500F07BF80321A2
:103DC0006846FFF76DF9124D042401210098FFF7B2
:103DD000C9FF284600F0C4FD00210098FFF7C2FF8C
:103DE000284600F0BDFD013CEFD10A4E042401211C
:103DF0000098FFF7B7FF304600F0B2FD00210098B1
:103E0000FFF7B0FF304600F0ABFD013CEFD1DBE740
:103E1000F0490200801A060010B50146044600224F
:103E2000022000F055FB00F045F820460AF0C8FBE0
:103E300021460246022000F04BFBBDE8104000F096
:103E40004FB8000000B5A3B00B460246842101A87C
:103E50000EF036F8832806D9074B1A681B79CDF87F
:103E600083208DF88730002802DD01A8FFF7D4FFFA
:103E700023B05DF804FB00BF015B01100FB407B570
:103E800004A951F8040B0191FFF7DCFF03B05DF8C2
:103E900004EB04B07047EFF31080C04300F0010062
:103EA0007047EFF30580003018BF01207047FFF71F
:103EB000A5B8000008B5FFF775F8064A1368591C45
:103EC00004D13F2204490548FFF742FF0133136044
:103ED00008BD00BF58370008065B0110305B0110B9
:103EE000044A136823B1013B13600BB9FFF76CB8A8
:103EF000704700BF5837000808B50E4B0121D3E8C2
:103F00004F2FC3E8401FD2B20028F8D12AB1FFF7E3
:103F1000D1FFBFF34F8F20BFFDE7FFF7C2FF08B10E
:103F2000FFF74AFFFFF7B7FF0028F9D0012000F0A4
:103F3000CFFB00BF9C370008F0B5204D8FB001AC1F
:103F400035EA200528BF05460E46174600213422D3
:103F5000204609F0B3FF1A4B01955B690493DA6BB5
:103F600005925A6B1B6B069207930297039608946F
:103F7000FFF7A0FF134A13680133012B136009D127
:103F800026460FCE104D0FC50FCE0FC50FCE0FC555
:103F900033682B600FCC0D4D0FC50FCC0FC50FCC68
:103FA0000FC523682B600A4B1B6813B1A5F13000C5
:103FB0009847FFF795FF00200FB0F0BD0101FF808B
:103FC000A02300085C37000868370008A037000805
:103FD000603700082DE9F0413C4C0E462168C1F3E2
:103FE0004173032B0CBF4D428DB2C1F3074398B010
:103FF0008046174636482A46FFF740FF6FF498730D
:104000001D44132D0FD8DFE805F00A484B4E5157D9
:10401000545A0E0E0E0E0E0E0E0E0E0E0E5DA168F2
:104020002C48FFF72BFF4046FFF7F6FE61682A4851
:10403000FFF724FF4EB12948FFF7EEFE3046FFF7A9
:10404000EBFE39462648FFF719FFA1682548FFF720
:1040500015FFE268E369516823480293A36901935D
:1040600063690093002908BF014623691F48FFF7D1
:1040700005FF04A800F056FC079B01939DF818303B
:104080000093049A059B21681948FFF7F7FE194829
:10409000FFF7F4FE18B0BDE8F081A1681648C0E74C
:1040A000A1681648BDE7A1681548BAE7A168154898
:1040B000B7E7A1681448B4E7A1681448B1E7A1685C
:1040C0001348AEE71348FFF7D9FEACE7A037000866
:1040D0006B5B0110BC5B0110645C0110755C01102E
:1040E0007D5C0110815C0110615B0110955C011029
:1040F000ED5C0110695D0110D25B0110E25B011003
:10410000F15B0110045C0110185C01102C5C0110C3
:104110003B5C0110515C011000207047014B187886
:10412000C0B270476437000880B50E461F4611467E
:10413000084A0125D2E84F4FC2E8435FE4B23CB9D8
:104140007246FFF7F9FE029A39463046FFF742FF02
:10415000FFF7D2FE6437000810B5054C236813B989
:10416000FEF7A2FF20602068BDE81040FFF728BAE4
:10417000E037000807B5094AD2E85F3F0133C2E8DB
:10418000513F0029F8D19BB22BB912880449009302
:104190000448FFF7C9FF03B05DF804FBD4370008FB
:1041A000835D01102301048007B50B4AD2E85F1F2D
:1041B0000139C2E8531F002BF8D14FF6FF7089B2C6
:1041C000814205D11288054900930548FFF7ACFFED
:1041D00003B05DF804FB00BFD4370008A55D0110F3
:1041E00024010480F8B5FFF765FEFFF7B5FF144B17
:1041F0001B8806460F469BB29BB903F0BAFB01240D
:10420000FFF7AAFF8CB10F4BD3E90045A41B65EB68
:10421000070500196941C3E90001BDE8F840FFF74F
:104220005FBE03F0A3FB0024EAE7074CD4E90023B8
:10423000921B63EB070380185941C4E90001ECE7C6
:10424000D4370008D8370008E83700086FF01C00A2
:1042500070476FF0150070470120704700207047CD
:1042600070470000034B186818B14FF0FF3101F0A0
:104270002FBC704738440008024B186808B101F0A1
:104280003FBC704738440008F8B5074E15460C4649
:104290008F18BC4205D014F8011B304603F046FBD2
:1042A000F7E72846F8BD00BF8C55000838B58DB239
:1042B00015F0010405D0084803F04AFB041C18BFA0
:1042C0000124EB0605D5044803F049FB08B144F08E
:1042D0001004204638BD00BF8C55000810B50446B8
:1042E00009F0B6F9204610BD10B50C462AB10448B5
:1042F00003F004FB2070012010BD104610BD00BF6C
:104300008C55000838B51D46074B0360074B1B68EA
:10431000044633B9064803F057FA2946044803F027
:10432000A9FA204638BD00BFCC5D0110304200081C
:104330008C550008002070470020704708B5012008
:1043400000F0C6F9074A084913681844884289BF33
:10435000064B10600C224FF0FF308CBF1A601846DD
:10436000704700BF9823000800740408CC5600086A
:104370000120704701207047002109F0A9BE08B54F
:1043800000F0C6FB08BD08B500F0CAFB08BD000080
:1043900010B50446037803F00303012B08D0FFF7A0
:1043A00061FF237803F00302012A03D1FFF764FFC2
:1043B000002010BD2AB140F2E55204490448FFF73D
:1043C000C7FC43F002032370012010BD3F5E0110C3
:1043D0006B5E011008B5037803F00302022A05D0D2
:1043E00040F2EE5206490748FFF7B2FC23F0030300
:1043F00043F001030370BDE80840FFF73DBF00BF75
:104400003F5E0110895E01103F2870B5044630DC24
:10441000194D55F820305A1C13D1022811DCFFF732
:104420008BFF034658B92046FFF784FF034630B997
:10443000124E3378BFF35B8FDB0704D5104B45F882
:104440002430184670BD3046FFF7A2FF0028F5D093
:104450004FF4E1334FF4A0220A490948FFF752FF15
:104460003046FFF7B7FF084A08490548FFF780FFC5
:10447000E4E70023E5E700BF98220008F0370008D2
:104480001C380008010005008C2200086142001061
:1044900038B50546FFF7B8FF0B4B002443F825401D
:1044A00030B908F015F9092303604FF0FF3038BD2B
:1044B00003685B699847051E04DA08F009F96D4244
:1044C0000560F2E7204638BD98220008FFF7E0BFFC
:1044D00038B50C461546FFF797FF38B908F0F8F8DD
:1044E000092303604FF0FF34204638BD036821469E
:1044F000DB682A469847041EF6DA08F0E9F86442B9
:104500000460EFE773B505460E461446FFF7C9FC95
:1045100010B9FFF7C0FC88B9002300932A460C4964
:104520000C48FFF701FE07D0224631462846FFF728
:10453000CFFF40EAE07009E0204607E0002CF2DA05
:1045400008F0C6F8162303604FF0FF3002B070BDCC
:10455000135F01102F01018038B50C461546FFF797
:1045600053FF38B908F0B4F8092303604FF0FF3463
:10457000204638BD036821469B682A469847041E9A
:10458000F6DA08F0A5F864420460EFE773B5044674
:104590000E461546FFF785FC10B9FFF77CFC70B995
:1045A0000023009322460B490B48FFF7BDFD2A4626
:1045B0003146204602B0BDE87040FFF7CDBF002D68
:1045C000F5DA08F085F8162303604FF0FF3002B0EB
:1045D00070BD00BFD75E01102F01018010B5FFF73D
:1045E00013FF044628B908F073F809230360204636
:1045F00010BD0368DB699847041EF8DA08F068F814
:10460000644204600024F2E737B54023CDF801008E
:10461000054668468DF8003008F0DAFA044630B1F5
:104620002846FFF7DBFF10B12046FFF7A5FE204626
:1046300003B030BDFFF7D2BF38B50C461546FFF7C3
:10464000E3FE38B908F044F8092303604FF0FF3463
:10465000204638BD036821461B692A469847041E38
:10466000F6DA08F035F864420460EFE7FFF7E4BFDC
:1046700010B5FFF7C9FE30B908F02AF80923036026
:104680004FF0FF3010BD03689B699847041E04DAA1
:1046900008F01EF864420460F2E7002010BD00003C
:1046A0000A4C08B523680546986808F015F9236890
:1046B000D86808F011F90120FFF7DAFF0220FFF7B0
:1046C000D7FF0DB1FFF778FBFEE700BFB02500086C
:1046D00008B5FFF7E5FF38B50D46FFF795FE044630
:1046E00030B907F0F5FF092303604FF0FF3038BD04
:1046F0000368DB699847002814BF4FF400534FF458
:1047000000436B60236820469B6A9847286100201D
:1047100038BDFFF7E0BF000013B5044608F090FF76
:10472000034628B90090224602490348FFF7FCFCE3
:1047300002B010BD205E01101F01018008F088BF8B
:1047400010B504460B48FDF7FFFE00F04BF90023BF
:10475000094A194652F82300A04208BF42F8231024
:104760000133402BF6D10348FDF7EEFEBDE81040C3
:1047700000F056B9F43700089822000810B5124826
:10478000FDF7E2FE00F02EF9104B032453F824202D
:104790007AB10134402CF9D107F09AFF1823036055
:1047A0000948FDF7D1FE00F03BF94FF0FF342046F9
:1047B00010BD4FF0FF32044843F82420FDF7C4FE3B
:1047C00000F02EF9F3E700BFF43700089822000844
:1047D00010B50446FFF7D2FF0028A4BF014B43F8F1
:1047E000204010BD9822000870B506460C46FFF721
:1047F000EFFF054690B12146FFF706FF044630B9AA
:10480000074B53F82520964203D143F82500204654
:1048100070BD07F05DFF09230360F8E70446F6E783
:10482000982200080EB42DE9F04185B00546FFF747
:10483000A5FF041E13DB0023294602A80193FEF7FF
:10484000B5FF02A8FFF702F81B4D064668B907F04E
:104850003FFF1323036045F824604FF0FF342046E8
:1048600005B0BDE8F04103B0704702A8FEF7DCFFD9
:10487000074602A837B1FEF7E0FF0190019B45F81B
:104880002430ECE7FEF7C7FF06460028DFD00368B8
:1048900002A8D3F80880FEF7B3FF0B9B024601A9DC
:1048A0003046C04706460028E8D007F011FF7642A0
:1048B000066045F82470D0E79822000870B50E46CF
:1048C0001549044609F000FD054618B9FFF79CFD9F
:1048D000284670BD1149204609F0F6FC20B9012098
:1048E000FFF792FD0125F3E70D49204609F0ECFCA6
:1048F00020B90220FFF788FD0225E9E72378402B45
:1049000002D1D4F80150E3E726F400412046BDE887
:104910007040FFF787BF00BFC85E0110CF5E011077
:10492000C05E011010B5044620B9902209490A481A
:10493000FFF70EFA5022002109F0C0FA4CF6C80326
:104940002360064B1B686360022323724EF68C3390
:10495000E36010BD4D5F0110745F011000ED00E0D9
:1049600070B50446FEF754FE0646FEF73AFE0546CD
:104970003046FEF736FE401BA042F9D370BD000062
:1049800030B50C4685B0002105460162102268460C
:1049900009F094FA0C4B002C08BF1C462B1D029307
:1049A0001C23039368460B230094019301F078F8CD
:1049B000286038B9FFF7B2FB20B938220349044810
:1049C000FFF7C6F905B030BD825F01109C5F011092
:1049D000BC5F011010B500210446FFF7D1FF20464F
:1049E00010BD000037B504464FF0FF31006801F0FC
:1049F0006FF8054628B9236A01332362002003B00B
:104A000030BDFFF78BFB03460028F7D100902A4604
:104A100001490248FFF788FBE05F011015010280A1
:104A200037B50546006801F06BF8044628B92B6AD3
:104A3000013B2B62204603B030BDFFF76FFB0346FE
:104A40000028F7D10090224601490248FFF76CFB8D
:104A5000F25F01101701028010B50446006801F0F2
:104A600067F8204610BD000008B5094B094A1A60D6
:104A7000094B9B1A094A1360094B0A4A1A600A4BF0
:104A80009B1A0A4A136000F051F800F065F800BF65
:104A90008C3800080074040800780408883800087E
:104AA00024380008D0560008007404082038000894
:104AB0000E4838B50E4B03600B251C240D4B45608A
:104AC000C460836000F0ECFF0B4B18600B480C4B8C
:104AD000C46080E828000B4B836000F0E1FF0A4BC4
:104AE0001860BDE8384008F011BD00BF5838000814
:104AF000066001106C380008683800082838000883
:104B0000136001103C38000838380008FDF764BC19
:104B1000024B4FF0FF31186800F0DABF6838000828
:104B2000014B186800F0ECBF6838000808B503F0C6
:104B3000BBF8BDE8084000F00CB8704708B5FFF7B7
:104B4000B7FFFFF7FAFFFFF7E7FABDE80840FFF706
:104B5000DDBF00F07DBA000007B51748174B0360B2
:104B60000B2343601C23164CC360164B8360164B0B
:104B700023614FF4805363614423E360134BA360CC
:104B80001823A361124B236000F08AFF114B2246C9
:104B900018600021104801F071FC034628B90F4944
:104BA000009022460E48FFF7BFFA00F069FA002392
:104BB00000931A460B49F5E7645400081D60011084
:104BC000405400087454000840440008903800081D
:104BD0002D600110384400083D4B00103260011078
:104BE0001D0101804E60011073B506460C46154646
:104BF000FFF794FA60B9A11D052996BF054B064938
:104C000053F821100023009332462846FFF78CFA10
:104C100002B070BD646001108461011008B500F03D
:104C200085F8000007B5411E02460023042923D859
:104C3000DFE801F0030A10161C0012491248009325
:104C400001220023FFF770FA0093022200230F498C
:104C50000F48F7E70093032200230E490E48F1E7BF
:104C60000093042200230D490D48EBE70093052231
:104C700000230C490C48E5E700930C490C4800233D
:104C8000E0E700BF7C600110250102809D600110FB
:104C900026010280C260011027010280F760011026
:104CA00028010280326101102A0102807261011024
:104CB00000010280014A0146FFF796BF31010180E1
:104CC000014AFFF791BF00BF32010180014AFFF79F
:104CD0008BBF00BF3301018011F1110F02D0024AD6
:104CE000FFF782BF704700BF34010180014AFFF720
:104CF0007BBF00BF3801018010B501F0D7FB034B2B
:104D00001B6813B1BDE81040184710BDD438000827
:104D100008B5FFF7CFF8FFF72DFAFFF763FAFFF7B3
:104D200043FABDE80840FFF7DBB8000008B5024CC5
:104D300023689847FCE700BF9C2300081EF0040F7F
:104D40000CBFEFF30880EFF30980816911F8021CB2
:104D500091BB01B590E80F10E047BDE800508CE82A
:104D60000300244B93E80600914208BF704741B905
:104D70001EF0100F10D12049086820F001000860D3
:104D80000AE02CE9F00F1EF0100F08BF2CED108A7E
:104D9000C1F838C081F822E01A6092F82210906BB6
:104DA00061F0FF0E1EF0100F08BFB0EC108AB0E8E3
:104DB000F00F80F309887047104A13689942FAD8B7
:104DC00001B552F821C00FC8E047BDE80050CCF84B
:104DD0000000704701B500F0CDFFBDE80140EFF3E2
:104DE000098CBEE701B500F08BFFBDE80140EFF391
:104DF000098CB6E7B423000834EF00E0DC62011050
:104E000008B5014610B1132001F0A6FA002008BD34
:104E100008B5EFF3058333B16FF0050000F012F829
:104E20006FF0050008BDEFF31083002BF4D1EFF312
:104E30001183002BF0D1DFF808C000DF08BD00BFF0
:104E4000014E00107047EFF310832BB9EFF3118080
:104E5000003018BF012070470120704770B54D4CDD
:104E6000217A012900F0878031B14FF0FF30FFF740
:104E700021FF4FF0FF3070BD474D9C2204F1080028
:104E800009F01CF8EB68EE6AE3652B8AA4F854304D
:104E9000296BAB682364304600F008F908B1C4F808
:104EA00080606E69A969304600F000F9002864D07E
:104EB0006667EE69296A304600F0F8F8002860D08D
:104EC000A6676E6AA96A304600F0F0F800285CD048
:104ED000E6676E6B3EB1F368B2683168304600F049
:104EE00051F9C4F88460AE6B3EB1F368B2683168C2
:104EF000304600F047F9C4F88860EE6B3EB1F368C5
:104F0000B2683168304600F03DF9C4F88C602E6C10
:104F10003EB1F368B2683168304600F033F9C4F846
:104F200090606E6C3EB1F368B2683168304600F054
:104F300029F9C4F89460AE6C3EB1F368B268316888
:104F4000304600F01FF9C4F89860EE6C3EB1F3688B
:104F5000B2683168304600F015F9C4F89C602D6DD8
:104F60003DB1EB68AA682968284600F00BF9C4F83F
:104F7000A05001232372002070BDD4F880306367F5
:104F800097E7D4F88030A3679BE7D4F88030E367D5
:104F90009FE700BFA02300087462011038B5264CBB
:104FA000237A012B06D06FF00600FFF783FE4FF047
:104FB000FF3038BD01F042FA10B94FF0FF30F4E78E
:104FC0001E4A1F4D1F496868FF2382F8223092F85D
:104FD0002230D26863F0FF03DB4314BFB3FA83F3DC
:104FE0002023C3F12003C2F30222934298BF531C33
:104FF000FE2202FA03F3114ADBB2D37701F0CEFAB4
:105000000028DAD101F006FB206101F0E7FA0E4832
:1050100000F0F2FF01F056F82B6813F0010F4FF08B
:10502000020304D083F314882372002038BD0322C6
:1050300082F31488F8E700BFA023000800ED00E029
:1050400074620110E54D0010BC2300087047000099
:1050500008B5FFF7FBFFEFF3058333B16FF00500F1
:10506000FFF728FE6FF0050008BDFFF7ECFE0028F3
:10507000F4D1DFF808C000DF08BD00BF5D4E0010AE
:1050800008B5EFF3058333B16FF00500FFF712FEAB
:105090006FF0050008BDFFF7D6FE0028F4D1DFF859
:1050A00008C000DF08BD00BF9D4F001010B5A8B1BB
:1050B00040EA010313F007030DD117290DD9016050
:1050C00008390C181022846042600B5081684A60D5
:1050D000C360012010BD002010BD184610BD70B582
:1050E000B0B100292ED032F003032BD10F3121F0C3
:1050F000070100F108052E686C68731B24F0030497
:105100001B1B994205D933683546002BF3D118464D
:1051100070BD446803680C44446018440838436810
:105120009C4288BF44606B6811431BB9696005F1FC
:10513000080070BD23F00303E818EE5041602860BA
:10514000083070BD002070BD10B5D0B1C1B1A1F163
:10515000080400F108030022A34209D1596821F094
:1051600003044168091B41603AB95A60012010BD2F
:1051700019681A4621B10B46EEE71B681360F5E784
:10518000084610BD30B5C0B189B1C2B1CBB1002461
:10519000446002FB01F41D1901608260C360436139
:1051A00005611846013904D1A21A99500121084617
:1051B00030BD851805602846F4E70146F7E711463B
:1051C000F5E71946F3E710B50346B0B100F1140254
:1051D00052E8000F10B9BFF32F8F04E0016842E8D6
:1051E000001404B1F4E740B1043353E8002F511C1C
:1051F00043E8001404B1F8E710BD10BD30B5F0B1BC
:10520000C3688B421BD80369994218D200F114037A
:105210001A680A60BFF35F8F53E8002F0C6894424E
:10522000F6D143E8001505B1F2E7043050E8003F3D
:105230005A1E40E8002101B1F8E7002030BD6FF0B0
:10524000030030BDEFF310832BB9EFF31180003072
:1052500018BF0120704701207047036B30B5E3B1E0
:10526000CD780024DA78AA420FD31A464A608C60BF
:105270008AB19160A4B16160283050E8003F5A1CA7
:1052800040E8002101B1F8E730BD5A681C46002A09
:10529000ECD01346E6E7C162ECE74B608B60C1627D
:1052A0000163E9E74B688A6823B19A608A681AB19A
:1052B00053607047C262F9E703637047F8B58678B8
:1052C000044696B3C56801460026284605F10C073A
:1052D000FFF7E8FF267021463846FFF78FFFAB68DF
:1052E000002B48D03846FFF76EFF0446002842D016
:1052F000284600F081FE32460746314600F018FF8E
:10530000384600F0C1FE6A6A8168074604F10C0065
:1053100008F0D6FCF9232370A670FB68E3702146E1
:105320002846BDE8F840FFF798BF8568AB68002BBA
:10533000F5D05B78832BF2D1284600F05DFE324633
:105340003146074600F0F4FE384600F09DFE064662
:105350006A6A806804F10C0108F0B2FCF3680BB1D2
:10536000E2781A7000232370214605F10C00BDE895
:10537000F840FFF743BFF8BD2DE9F74F89460746D0
:1053800000B131B96FF003010020FFF7AFFC00203E
:105390007BE0CD1C25F003050C3514BFB5FA85F173
:1053A0002021B0FA80F30B441F2BEBDD05FB00FA44
:1053B000F2B19468D2F80080166953693CB1A10734
:1053C00002D1D268332A05D86FF00801DCE7D26831
:1053D000002AF9D13EB116F0030B01D19A4557D9F5
:1053E0006FF00901D0E7002BFAD11CB19B460CE00D
:1053F00090461646284BD3F8A000E0B1FFF7E3FE35
:105400000446A8B14FF0010B3EBB234B0193D86F6C
:1054100000225146FFF763FE019B0646B8B9BBF177
:10542000000F05D0D3F8A000214658B1FFF7E6FEE3
:105430006FF00401A8E701223421D3F88000FFF7C0
:105440004EFEDDE7D3F88000FFF77EFEF0E7524620
:10545000002108F033FD4BF0020BFA2323700023E8
:10546000A360A362E36223632A46334684F802B052
:10547000C4F80480C4F82490394604F10C00FFF706
:1054800081FE054B054A1A67204603B0BDE8F08F40
:10549000002CE2D1AEE700BFA0230008BD520010EF
:1054A0002DE9F0410C4617469846054618B1037899
:1054B000FA2B00D141B928466FF00301FFF716FC23
:1054C0006FF00300BDE8F0818368C3B15B78832B84
:1054D00015D100F091FD01220646002100F028FEC2
:1054E000304600F0D1FD06466A6A8068214608F021
:1054F000E7FBF06858B307700020BDE8F08105F1C4
:105500000C00FFF760FE064670B121466A6A0C3057
:1055100008F0D6FB0024F9233370B470F7703146DD
:105520002846FFF79AFEE7E7B8F1000F11D0414691
:10553000932000F011FF40B1084B2846596900F054
:1055400049FDEFF309839C60DF606FF00100BDE867
:10555000F0816FF00200BDE8F08100BFA0230008D9
:1055600010B500F1280353E8002F12B9BFF32F8FB5
:1055700004E0511E43E8001404B1F4E70AB9002026
:1055800010BDC06A01230028F9D0821CD2E84F1F49
:10559000C2E8443F04B1F9E711F0FF0F01D0806881
:1055A000F1E710BD2DE9F0410F4614469846054637
:1055B00018B10378FA2B00D141B928466FF00301E6
:1055C000FFF794FB6FF00300BDE8F081FFF7C8FF21
:1055D000064600283BD001462846FFF763FE6A6A6C
:1055E00006F10C01384608F06BFB0CB1F378237020
:1055F000002405F10C07347031463846FFF7FEFDF4
:10560000AB6813B90020BDE8F0813846FFF7DBFD39
:1056100006460028F6D0284600F0EEFC2146074654
:10562000012200F085FD384600F02EFD6A6A81688F
:10563000074606F10C0008F043FBF9233370B47001
:10564000FB68F37031462846FFF707FEDAE7B8F14A
:10565000000F11D04146832000F07EFE40B1084B80
:105660002846596900F0B6FCEFF309839F60DC60BF
:105670006FF00100BDE8F0816FF00200BDE8F0813D
:10568000A023000810B50446EFF3058333B16FF093
:1056900005010020FFF72AFB002010BDFFF7D2FD17
:1056A0000028F4D12046DFF808C000DF10BD00BF9D
:1056B000795300102DE9F04106460F4690461C46EE
:1056C000EFF305834BB19EB930466FF00301FFF74E
:1056D0000DFB6FF00300BDE8F081FFF7B3FD00287C
:1056E000F1D130462346DFF850C000DFBDE8F0813D
:1056F0003378FA2BE8D1002FE6D0002CE4D106F164
:105700000C00FFF760FD054688B1726A39460C301F
:1057100008F0D6FAF92328462B70AC7085F8038080
:105720006F60AE6000F06EFB2046BDE8F0816FF068
:105730000200BDE8F08100BFA1540010F8B5044696
:105740000F4616461D46EFF3058343B18CB920463C
:105750006FF00301FFF7CAFA6FF00300F8BDFFF71F
:1057600071FD0028F2D120462B46DFF844C000DF4F
:10577000F8BD2378FA2BEAD1002FE8D0002DE6D12E
:105780002046FFF7EDFE054670B100F10C01626A9C
:10579000384608F095FA0EB1EB7833702846EC6085
:1057A00000F030FB0020F8BD6FF00200F8BD00BF34
:1057B000A5550010EFF310832BB9EFF311800030E3
:1057C00018BF0120704701207047000070B5002805
:1057D00035D0846890E8600064B114F0030302D10E
:1057E000C2681B2A19D86FF008010020FFF76EFA73
:1057F000002070BDC368002BF5D1124BD3F8940084
:1058000030B901221C21D3F88000FFF768FC01E0C9
:10581000FFF7D9FC044668B10123F522A3700023E9
:105820002270E6706560A360E360236163612376A4
:10583000204670BD6FF00401FFF748FAF8E705460F
:105840000646DAE7A0230008284B70B55D690446D8
:105850000E4635B96FF00701FFF738FA4FF0FF3009
:1058600070BD10B10378F52B07D020466FF003010F
:10587000FFF72CFA6FF0030070BD037E53B9EA6A9C
:10588000C5604261036102B11061EC6201232376BD
:10589000002070BDC278D1070DD5C168A9420AD1D8
:1058A000FF2B06D16FF00F01FFF710FA6FF0020027
:1058B00070BD0133EBE7002EF8D093070AD5E068FE
:1058C00095F9203090F920209A4203DA80F82030B0
:1058D00000F0A5FB3146532000F03EFD18B12946EB
:1058E000204600F077FB6FF0010070BDA023000898
:1058F00038B52E4B5A69044632B96FF00701FFF7ED
:10590000E5F94FF0FF3038BD10B10378F52B07D023
:1059100020466FF00301FFF7D9F96FF0030038BD9F
:10592000037E33B96FF00E01FFF7D0F96FF002007C
:1059300038BDC168914202D06FF00D01F4E7013B20
:10594000DBB2037623BB43690BB10169196121699D
:1059500001B34B61E3789B0705D592F92110D36A17
:10596000D3B982F82010A3687BB1204600F044FB35
:1059700000220546114600F0DBFBEB6A6361002361
:1059800023610123E560EC622376002000F0A4FB94
:10599000002038BDD362DDE7986820B190F920007F
:1059A0008142B8BF01465B69DAE700BFA023000867
:1059B00070B5044610B10378F52B07D020466FF080
:1059C0000301FFF783F96FF0030070BD037ED3B1CD
:1059D0006369C0680BB122691A6122691AB3536105
:1059E000E3789B070BD590F92130C26AEAB990F9A8
:1059F00020209A4203D080F8203000F010FBA068ED
:105A0000E0B900F069FBA078002610F001002670D4
:105A100022D0124BD3F894502146C5B12846FFF747
:105A2000EDFB304670BDC362DAE7916821B191F9B0
:105A300020108B42B8BF0B465269D7E7204600F0D2
:105A4000DBFA00226FF0020100F072FBD7E7D3F817
:105A50008000FFF779FB284670BD00BFA023000837
:105A60002DE9F0410446002601270CB9BDE8F0817C
:105A7000E378D4F814801B0710D5A36826766BB1A1
:105A8000204600F0B9FA00220546114600F050FB0E
:105A9000EB6AE56063612661EC6227764446E4E7E1
:105AA00008B50246EFF3058333B16FF0050100201E
:105AB000FFF70CF9002008BDFFF77CFE0028F4D1A9
:105AC0001046DFF808C000DF08BD00BFCD5700104A
:105AD00008B50246EFF305833BB110466FF00501B0
:105AE000FFF7F4F86FF0050008BDFFF763FE00282C
:105AF000F3D11046DFF804C000DF08BD495800109C
:105B000008B50246EFF305833BB110466FF005017F
:105B1000FFF7DCF86FF0050008BDFFF74BFE00282B
:105B2000F3D11046DFF804C000DF08BDF1580010C3
:105B300008B50246EFF305833BB110466FF005014F
:105B4000FFF7C4F86FF0050008BDFFF733FE00282B
:105B5000F3D11046DFF804C000DF08BDB1590010D2
:105B6000EFF310832BB9EFF31180003018BF012041
:105B700070470120704730B500F10C02C189D2E8AE
:105B80005F3F994202D8BFF32F8F04E05C1CC2E84C
:105B9000554F05B1F3E7C0899BB2984294BF0020EE
:105BA000012030BD38B5054610B10378F62B07D07B
:105BB00028466FF00301FFF78FF86FF0030038BD40
:105BC00084683CB100F018FA0122002100F0B0FA1C
:105BD000002038BDFFF7CFFF0028F9D128466FF02D
:105BE0001001FFF779F86FF0020038BD70B5054677
:105BF00010B10378F62B07D028466FF00301FFF7AA
:105C00006BF86FF0030070BD836863B1284600F045
:105C1000F3F900226FF0020100F08AFAA868002868
:105C2000F4D100F059FAA878002610F001002E7087
:105C30000ED0084BD3F89840294624B12046FFF7F0
:105C4000DDFA304670BDD3F88000FFF77DFA2046BC
:105C500070BD00BFA023000810B50446EFF3058314
:105C600043B184B920466FF00301FFF735F86FF0B8
:105C7000030010BDFFF774FF0028F2D12046DFF8C3
:105C800030C000DF10BD2378F62BEBD12046FFF7A4
:105C900072FF20B1204600F0B5F8002010BD20466C
:105CA0006FF01001FFF718F86FF0020010BD00BF91
:105CB000A55B001008B50246EFF305833BB1104623
:105CC0006FF00501FFF708F86FF0050008BDFFF75A
:105CD00047FF0028F3D11046DFF804C000DF08BDFD
:105CE000ED5B001010B5D0E85F3F5A1C914200D820
:105CF0000022C0E8542F04B1F5E798B210BD0000AF
:105D000038B51B4C00F080FCE3680133E360236D81
:105D100003B1984700F09EF9002000F0DDF9236CF4
:105D20002BB1A26BA1698A4202D0A163E36338BDA3
:105D3000E36B0BB1013BE363E36B002BF7D1237AF9
:105D4000022BF4D1656A002DF1D095F9201092F95B
:105D500020309942EBD1284600F057F9A06B00F0B3
:105D600071F9284600F0AEF9A563236CDEE700BFA9
:105D7000A023000870B5224C04F1560504F15A0620
:105D8000B4F85410D5E85F3F13B9BFF32F8F04E088
:105D90005A1EC5E8502F00B1F4E79BB25BB3304602
:105DA000FFF7A0FFE36D53F8200020B30378F13B29
:105DB000082BE5D801A252F823F000BFE15D0010E6
:105DC000815D0010E75D0010815D0010815D0010B5
:105DD000EB5D0010EF5D0010815D0010F35D0010C1
:105DE000236E9847CCE7636EFBE7A36EF9E7E36E9B
:105DF000F7E7236FF5E70020BDE8704000F06CB9CD
:105E0000A023000870B5164C0546B4F8541004F1F0
:105E10005602D2E85F3F994202D8BFF32F8F04E0C9
:105E2000581CC2E8560F06B1F3E79BB2994210D94D
:105E300004F15800FFF756FFE36D43F82050637AF2
:105E400023B9084B4FF080525A6070BD0123A372F2
:105E500070BD29460220BDE87040FEF7E3BE00BFDA
:105E6000A023000800ED00E0EFF310832BB9EFF35F
:105E70001180003018BF01207047012070470000DA
:105E800010B50123094A437090F92010536A1C325F
:105E90001BB193F920408C4205DCC26083609060A6
:105EA00003B1D86010BD1A469B68F1E7A023000833
:105EB000014B5869704700BFA023000808B5FEF7E2
:105EC0001BFFDFF810C000DF4FF0FF310020FEF7AE
:105ED000F7FEFEE7D963001012F0020F10B502F0D2
:105EE000010222D100F1280382B153E8000F00EA39
:105EF00001028A4203D0BFF32F8F002005E020EA81
:105F0000010243E8002404B1EFE710BD53E8000F9D
:105F1000084203D1BFF32F8F002005E020EA0102E1
:105F200043E8002404B1F1E710BD806A01EA0003F0
:105F30001AB1994218BF002010BD002B08BF0020E5
:105F400010BD000010B5C4694169631C03690AD122
:105F500003B1596142691AB113610023436110BD55
:105F6000064A136310BD1BB1DA6959612244DA6134
:105F70004269002AF0D1014AD36210BDA023000873
:105F800010B500234370037083789A07044608D540
:105F900013F0100F016B0E4B0FD0D3F88400FFF7F6
:105FA0002DF9A378DB0712D5094BD3F888002146D9
:105FB00038B1BDE81040FFF721B9586FFFF7C4F8BA
:105FC000EFE7D3F88000BDE81040FFF7BDB810BD83
:105FD000A023000810B591F9202083681BB193F924
:105FE0002040944205DAC8608B60816003B1D960BB
:105FF00010BD18469B68F1E783689A68826002B119
:10600000D0600022DA6018467047C36833B18268F6
:106010009A60826802B1D3600023C360704710B5F4
:106020000146044664B12378F12B07D00846FFF7F8
:10603000ECFF2046BDE81040FFF7CCBFE468F1E775
:1060400010BD00000123014643700148FFF7C2BFA5
:10605000BC23000838B50B4DEC6A94B1E369013BF1
:10606000E36173B92046FFF7D0FF2046FFF7EAFF50
:10607000246924B1E369002BF4D000236361EC624E
:1060800038BD38BDA023000890F82230826B13F091
:10609000100F0CBF6020202010447047074B596937
:1060A00051B10B6B8A6B934203D21A68044B9A422C
:1060B00002D00120FEF7B6BD704700BFA023000844
:1060C000A52E5AE208B502234370024B9861FFF7F0
:1060D000E5FF08BDA023000810B5144B04461A7A4A
:1060E0005969A0B9022A1FD15C6AECB194F9202049
:1060F00091F920309A4217DD2046FFF786FF0846C7
:10610000FFF7BEFE2046BDE81040FFF7DBBF022AC6
:1061100005D190F9202091F920309A42EFDC2046F9
:10612000BDE81040FFF78EBF10BD00BFA0230008E0
:1061300038B504461546FFF7A7FF01602046FFF774
:1061400001FF20461DB1BDE83840FFF7C5BFBDE8DF
:106150003840FFF777BF10B54378332B04460CD196
:10616000416A90F82320FFF7B7FE014628B1204688
:106170000022BDE81040FFF7DBBF10BD2DE9F04F56
:1061800085B08246029128B96FF00301FEF798FDB1
:106190000020B8E0002A48D09468166955699769CC
:1061A00044B1A30702D1D368432B06D86FF008018E
:1061B0000020EBE7D368002BF8D13EB1700702D185
:1061C000002D40F0B9806FF00A01F1E72FB17B1E7E
:1061D000372B03D96FF00B01EAE718271DB16907C8
:1061E000F1D1472DEFD95368D2F8009001934CBB01
:1061F000544BD3F88800F0B1FEF7E5FF04460028C1
:1062000000F097804FF00108002E36D1DFF834B14E
:10621000DDB94D4ADBF88400556DB0B1FEF7D3FF10
:10622000D8B148F01008064623E0914618271546D5
:1062300016460192DCE701224421D3F88000FEF7E4
:106240004EFFDBE74FF00008DEE732462946DBF879
:106250007400FEF744FF0028E5D1B8F1000F5CD0D0
:10626000DBF88820002A51D021461046FEF7C6FFF1
:10627000002448F00208002C5BD0F1232370012396
:1062800063709DF80430E3700023A360E360236132
:106290006361A361E36184F823306362A362E36214
:1062A000A5F1400333447FB2A363FD22274B84F85A
:1062B0000280C4F8049084F8207084F8217084F877
:1062C000222026636563C4F83CA033601E4B1B6824
:1062D0005B0724D4A36B00201A1F03F1300142F89E
